{"contracts/AssetRegistry.sol":{"AssetRegistry":{"abi":[{"inputs":[{"internalType":"address","name":"_standardMultiSigWalletAddress","type":"address"},{"internalType":"address","name":"_bankMultiSigWalletAddress","type":"address"},{"internalType":"address","name":"_verifierOracleAddress","type":"address"},{"internalType":"uint256","name":"_highValueThreshold","type":"uint256"}],"stateMutability":"nonpayable","type":"constructor"},{"inputs":[],"name":"AccessControlBadConfirmation","type":"error"},{"inputs":[{"internalType":"address","name":"account","type":"address"},{"internalType":"bytes32","name":"neededRole","type":"bytes32"}],"name":"AccessControlUnauthorizedAccount","type":"error"},{"anonymous":false,"inputs":[{"indexed":true,"internalType":"uint256","name":"tokenId","type":"uint256"},{"indexed":true,"internalType":"address","name":"owner","type":"address"},{"indexed":false,"internalType":"string","name":"assetDetails","type":"string"},{"indexed":false,"internalType":"uint256","name":"value","type":"uint256"}],"name":"AssetRegistered","type":"event"},{"anonymous":false,"inputs":[{"indexed":true,"internalType":"uint256","name":"tokenId","type":"uint256"},{"indexed":false,"internalType":"string","name":"eventType","type":"string"},{"indexed":false,"internalType":"string","name":"description","type":"string"},{"indexed":true,"internalType":"address","name":"recordedBy","type":"address"}],"name":"LifecycleEventAdded","type":"event"},{"anonymous":false,"inputs":[{"indexed":true,"internalType":"bytes32","name":"role","type":"bytes32"},{"indexed":true,"internalType":"bytes32","name":"previousAdminRole","type":"bytes32"},{"indexed":true,"internalType":"bytes32","name":"newAdminRole","type":"bytes32"}],"name":"RoleAdminChanged","type":"event"},{"anonymous":false,"inputs":[{"indexed":true,"internalType":"bytes32","name":"role","type":"bytes32"},{"indexed":true,"internalType":"address","name":"account","type":"address"},{"indexed":true,"internalType":"address","name":"sender","type":"address"}],"name":"RoleGranted","type":"event"},{"anonymous":false,"inputs":[{"indexed":true,"internalType":"bytes32","name":"role","type":"bytes32"},{"indexed":true,"internalType":"address","name":"account","type":"address"},{"indexed":true,"internalType":"address","name":"sender","type":"address"}],"name":"RoleRevoked","type":"event"},{"anonymous":false,"inputs":[{"indexed":true,"internalType":"uint256","name":"tokenId","type":"uint256"},{"indexed":true,"internalType":"address","name":"from","type":"address"},{"indexed":true,"internalType":"address","name":"to","type":"address"},{"indexed":false,"internalType":"address","name":"multiSigWalletUsed","type":"address"},{"indexed":false,"internalType":"uint256","name":"multiSigTxId","type":"uint256"}],"name":"TransferInitiated","type":"event"},{"inputs":[],"name":"ADMIN_ROLE","outputs":[{"internalType":"bytes32","name":"","type":"bytes32"}],"stateMutability":"view","type":"function"},{"inputs":[],"name":"BANK_ROLE","outputs":[{"internalType":"bytes32","name":"","type":"bytes32"}],"stateMutability":"view","type":"function"},{"inputs":[],"name":"CERTIFIED_PROFESSIONAL_ROLE","outputs":[{"internalType":"bytes32","name":"","type":"bytes32"}],"stateMutability":"view","type":"function"},{"inputs":[],"name":"DEFAULT_ADMIN_ROLE","outputs":[{"internalType":"bytes32","name":"","type":"bytes32"}],"stateMutability":"view","type":"function"},{"inputs":[{"internalType":"uint256","name":"tokenId","type":"uint256"},{"internalType":"string","name":"eventType","type":"string"},{"internalType":"string","name":"description","type":"string"}],"name":"addLifecycleEvent","outputs":[],"stateMutability":"nonpayable","type":"function"},{"inputs":[{"internalType":"uint256","name":"","type":"uint256"}],"name":"assetDataStore","outputs":[{"internalType":"string","name":"assetDetails","type":"string"},{"internalType":"uint256","name":"value","type":"uint256"}],"stateMutability":"view","type":"function"},{"inputs":[],"name":"assetNft","outputs":[{"internalType":"contract AssetNFT","name":"","type":"address"}],"stateMutability":"view","type":"function"},{"inputs":[],"name":"bankMultiSigWallet","outputs":[{"internalType":"contract MultiSigWallet","name":"","type":"address"}],"stateMutability":"view","type":"function"},{"inputs":[{"internalType":"bytes32","name":"role","type":"bytes32"}],"name":"getRoleAdmin","outputs":[{"internalType":"bytes32","name":"","type":"bytes32"}],"stateMutability":"view","type":"function"},{"inputs":[{"internalType":"address","name":"user","type":"address"}],"name":"grantBankRole","outputs":[],"stateMutability":"nonpayable","type":"function"},{"inputs":[{"internalType":"address","name":"user","type":"address"}],"name":"grantCertifiedProfessionalRole","outputs":[],"stateMutability":"nonpayable","type":"function"},{"inputs":[{"internalType":"bytes32","name":"role","type":"bytes32"},{"internalType":"address","name":"account","type":"address"}],"name":"grantRole","outputs":[],"stateMutability":"nonpayable","type":"function"},{"inputs":[{"internalType":"bytes32","name":"role","type":"bytes32"},{"internalType":"address","name":"account","type":"address"}],"name":"hasRole","outputs":[{"internalType":"bool","name":"","type":"bool"}],"stateMutability":"view","type":"function"},{"inputs":[],"name":"highValueThreshold","outputs":[{"internalType":"uint256","name":"","type":"uint256"}],"stateMutability":"view","type":"function"},{"inputs":[{"internalType":"uint256","name":"tokenId","type":"uint256"},{"internalType":"address","name":"to","type":"address"}],"name":"initiateTransfer","outputs":[],"stateMutability":"nonpayable","type":"function"},{"inputs":[{"internalType":"address","name":"owner","type":"address"},{"internalType":"string","name":"assetDetails","type":"string"},{"internalType":"uint256","name":"value","type":"uint256"}],"name":"registerNewAsset","outputs":[],"stateMutability":"nonpayable","type":"function"},{"inputs":[{"internalType":"bytes32","name":"role","type":"bytes32"},{"internalType":"address","name":"callerConfirmation","type":"address"}],"name":"renounceRole","outputs":[],"stateMutability":"nonpayable","type":"function"},{"inputs":[{"internalType":"bytes32","name":"role","type":"bytes32"},{"internalType":"address","name":"account","type":"address"}],"name":"revokeRole","outputs":[],"stateMutability":"nonpayable","type":"function"},{"inputs":[],"name":"standardMultiSigWallet","outputs":[{"internalType":"contract MultiSigWallet","name":"","type":"address"}],"stateMutability":"view","type":"function"},{"inputs":[{"internalType":"bytes4","name":"interfaceId","type":"bytes4"}],"name":"supportsInterface","outputs":[{"internalType":"bool","name":"","type":"bool"}],"stateMutability":"view","type":"function"},{"inputs":[],"name":"verifierOracle","outputs":[{"internalType":"contract VerifierOracle","name":"","type":"address"}],"stateMutability":"view","type":"function"}],"evm":{"bytecode":{"linkReferences":{},"object":"60806040523480156200001157600080fd5b5060405162002b8b38038062002b8b833981016040819052620000349162000290565b62000041600033620001b6565b506200006e7fa49807205ce4d355092ef5a8a18f56e8913cf4a201fbe287825b095693c2177533620001b6565b50306040516200007e9062000265565b6001600160a01b039091168152602001604051809103906000f080158015620000ab573d6000803e3d6000fd5b50600180546001600160a01b03199081166001600160a01b039384161790915560028054821687841690811790915560038054831687851617905560048054909216928516929092178155600583905560405163f2fde38b60e01b8152309181019190915263f2fde38b90602401600060405180830381600087803b1580156200013457600080fd5b505af115801562000149573d6000803e3d6000fd5b505060035460405163f2fde38b60e01b81523060048201526001600160a01b03909116925063f2fde38b9150602401600060405180830381600087803b1580156200019357600080fd5b505af1158015620001a8573d6000803e3d6000fd5b5050505050505050620002e2565b6000828152602081815260408083206001600160a01b038516845290915281205460ff166200025b576000838152602081815260408083206001600160a01b03861684529091529020805460ff19166001179055620002123390565b6001600160a01b0316826001600160a01b0316847f2f8788117e7eff1d82e926ec794901d17c78024a50270940304540a733656f0d60405160405180910390a45060016200025f565b5060005b92915050565b6113b480620017d783390190565b80516001600160a01b03811681146200028b57600080fd5b919050565b60008060008060808587031215620002a757600080fd5b620002b28562000273565b9350620002c26020860162000273565b9250620002d26040860162000273565b6060959095015193969295505050565b6114e580620002f26000396000f3fe608060405234801561001057600080fd5b50600436106101375760003560e01c806346a7010f116100b857806391d148541161007c57806391d14854146102c05780639cd82df0146102d3578063a217fddf146102e6578063d547741f146102ee578063f22881db14610301578063fe4da5051461032857600080fd5b806346a7010f146102515780636733c8e0146102725780636fb6ed6c1461028557806375b238fc14610298578063846675e6146102ad57600080fd5b806325860e9f116100ff57806325860e9f146101da5780632f2ff15d1461020557806336568abe146102185780633a371b8e1461022b5780634039694f1461023e57600080fd5b806301ffc9a71461013c578063026a3ff9146101645780630eb714321461017b57806318c7e2b6146101a2578063248a9ca3146101b7575b600080fd5b61014f61014a366004610ebb565b61033b565b60405190151581526020015b60405180910390f35b61016d60055481565b60405190815260200161015b565b61016d7f591fa5458fe051cc8c02c405479bd38e00713c98dbd3db209d982048f1e638fa81565b6101b56101b0366004610f01565b610372565b005b61016d6101c5366004610f1e565b60009081526020819052604090206001015490565b6004546101ed906001600160a01b031681565b6040516001600160a01b03909116815260200161015b565b6101b5610213366004610f37565b6103b8565b6101b5610226366004610f37565b6103e3565b6101b5610239366004610f37565b61041b565b6101b561024c366004610f01565b6108eb565b61026461025f366004610f1e565b61092d565b60405161015b929190610fad565b6101b5610280366004611018565b6109d1565b6002546101ed906001600160a01b031681565b61016d60008051602061149083398151915281565b6003546101ed906001600160a01b031681565b61014f6102ce366004610f37565b610c25565b6101b56102e1366004611092565b610c4e565b61016d600081565b6101b56102fc366004610f37565b610d53565b61016d7fbdb3b186091af1eb1ae5c50fa0612c33068a4a081a418934ab31721be7069cd981565b6001546101ed906001600160a01b031681565b60006001600160e01b03198216637965db0b60e01b148061036c57506301ffc9a760e01b6001600160e01b03198316145b92915050565b60008051602061149083398151915261038a81610d78565b6103b47fbdb3b186091af1eb1ae5c50fa0612c33068a4a081a418934ab31721be7069cd9836103b8565b5050565b6000828152602081905260409020600101546103d381610d78565b6103dd8383610d85565b50505050565b6001600160a01b038116331461040c5760405163334bd91960e11b815260040160405180910390fd5b6104168282610e17565b505050565b6001546040516331a9108f60e11b8152600481018490526000916001600160a01b031690636352211e90602401602060405180830381865afa158015610465573d6000803e3d6000fd5b505050506040513d601f19601f8201168201806040525081019061048991906110ee565b90506001600160a01b03811633146105055760405162461bcd60e51b815260206004820152603460248201527f417373657452656769737472793a2043616c6c6572206973206e6f74207468656044820152731037bbb732b91037b3103a3432903a37b5b2b71760611b60648201526084015b60405180910390fd5b6001600160a01b0382166105815760405162461bcd60e51b815260206004820152603b60248201527f417373657452656769737472793a205472616e7366657220746f20746865207a60448201527f65726f2061646472657373206973206e6f7420616c6c6f7765642e000000000060648201526084016104fc565b6000838152600660205260409020600101541515806105ee575060408051602080820183526000918290528582526006905281902090517fc5d2460186f7233c927e7db2dcc703c0e500b653ca82273b7bfad8045d85a470916105e391611145565b604051809103902014155b6106495760405162461bcd60e51b815260206004820152602660248201527f4173736574206e6f74207265676973746572656420696e20417373657452656760448201526534b9ba393c9760d11b60648201526084016104fc565b6005546000848152600660205260408120600101549091101561067857506003546001600160a01b0316610686565b506002546001600160a01b03165b60015460405163020604bf60e21b8152600481018690526001600160a01b0383811692169063081812fc90602401602060405180830381865afa1580156106d1573d6000803e3d6000fd5b505050506040513d601f19601f820116820180604052508101906106f591906110ee565b6001600160a01b03161461077b5760405162461bcd60e51b815260206004820152604160248201527f417373657452656769737472793a2043686f73656e204d756c7469536967576160448201527f6c6c6574206e6f7420617070726f76656420666f72207468697320746f6b656e6064820152601760f91b608482015260a4016104fc565b604080516001600160a01b038481166024830152858116604483015260648083018890528351808403909101815260849092018352602080830180516001600160e01b0316632142170760e11b1790528351625bbdfb60e91b8152935192936000939286169263b77bf600926004808401939192918290030181865afa158015610809573d6000803e3d6000fd5b505050506040513d601f19601f8201168201806040525081019061082d91906111bb565b60015460405163a9496e7560e01b81529192506001600160a01b038086169263a9496e759261086592169060009087906004016111d4565b600060405180830381600087803b15801561087f57600080fd5b505af1158015610893573d6000803e3d6000fd5b5050604080516001600160a01b03878116825260208201869052808a1694508816925089917fb1f1da2409dfb599a552eda8da9b1e1eac4b32365c9693efc526fd49a09dbfd8910160405180910390a4505050505050565b60008051602061149083398151915261090381610d78565b6103b47f591fa5458fe051cc8c02c405479bd38e00713c98dbd3db209d982048f1e638fa836103b8565b6006602052600090815260409020805481906109489061110b565b80601f01602080910402602001604051908101604052809291908181526020018280546109749061110b565b80156109c15780601f10610996576101008083540402835291602001916109c1565b820191906000526020600020905b8154815290600101906020018083116109a457829003601f168201915b5050505050908060010154905082565b7fbdb3b186091af1eb1ae5c50fa0612c33068a4a081a418934ab31721be7069cd96109fb81610d78565b600086815260066020526040902060010154151580610a68575060408051602080820183526000918290528882526006905281902090517fc5d2460186f7233c927e7db2dcc703c0e500b653ca82273b7bfad8045d85a47091610a5d91611145565b604051809103902014155b610aca5760405162461bcd60e51b815260206004820152602d60248201527f417373657420646f6573206e6f74206578697374206f72206e6f742066756c6c60448201526c3c903932b3b4b9ba32b932b21760991b60648201526084016104fc565b60066000878152602001908152602001600020600201604051806080016040528042815260200187878080601f016020809104026020016040519081016040528093929190818152602001838380828437600092019190915250505090825250604080516020601f880181900481028201810190925286815291810191908790879081908401838280828437600092018290525093855250503360209384015250835460018181018655948252908290208351600490920201908155908201519192909190820190610b9c9082611268565b5060408201516002820190610bb19082611268565b5060609190910151600390910180546001600160a01b0319166001600160a01b03909216919091179055604051339087907fddf5168028249a8c8091da3714cf08991eeb7792af2f331fe75d004b555a838a90610c15908990899089908990611351565b60405180910390a3505050505050565b6000918252602082815260408084206001600160a01b0393909316845291905290205460ff1690565b600080516020611490833981519152610c6681610d78565b6007805460009182610c7783611383565b90915550600154604051632851206560e21b81526001600160a01b0389811660048301526024820184905292935091169063a144819490604401600060405180830381600087803b158015610ccb57600080fd5b505af1158015610cdf573d6000803e3d6000fd5b50505060008281526006602052604090209050610cfd8587836113aa565b5060008181526006602052604090819020600101849055516001600160a01b0387169082907f17bfbb947caca86ac77ea06397ced8c4f77a1a6c82a21b5a05a738ceddc1f66090610c159089908990899061146b565b600082815260208190526040902060010154610d6e81610d78565b6103dd8383610e17565b610d828133610e82565b50565b6000610d918383610c25565b610e0f576000838152602081815260408083206001600160a01b03861684529091529020805460ff19166001179055610dc73390565b6001600160a01b0316826001600160a01b0316847f2f8788117e7eff1d82e926ec794901d17c78024a50270940304540a733656f0d60405160405180910390a450600161036c565b50600061036c565b6000610e238383610c25565b15610e0f576000838152602081815260408083206001600160a01b0386168085529252808320805460ff1916905551339286917ff6391f5c32d9c69d2a47ea670b442974b53935d1edc7fd64eb21e047a839171b9190a450600161036c565b610e8c8282610c25565b6103b45760405163e2517d3f60e01b81526001600160a01b0382166004820152602481018390526044016104fc565b600060208284031215610ecd57600080fd5b81356001600160e01b031981168114610ee557600080fd5b9392505050565b6001600160a01b0381168114610d8257600080fd5b600060208284031215610f1357600080fd5b8135610ee581610eec565b600060208284031215610f3057600080fd5b5035919050565b60008060408385031215610f4a57600080fd5b823591506020830135610f5c81610eec565b809150509250929050565b6000815180845260005b81811015610f8d57602081850181015186830182015201610f71565b506000602082860101526020601f19601f83011685010191505092915050565b604081526000610fc06040830185610f67565b90508260208301529392505050565b60008083601f840112610fe157600080fd5b50813567ffffffffffffffff811115610ff957600080fd5b60208301915083602082850101111561101157600080fd5b9250929050565b60008060008060006060868803121561103057600080fd5b85359450602086013567ffffffffffffffff8082111561104f57600080fd5b61105b89838a01610fcf565b9096509450604088013591508082111561107457600080fd5b5061108188828901610fcf565b969995985093965092949392505050565b600080600080606085870312156110a857600080fd5b84356110b381610eec565b9350602085013567ffffffffffffffff8111156110cf57600080fd5b6110db87828801610fcf565b9598909750949560400135949350505050565b60006020828403121561110057600080fd5b8151610ee581610eec565b600181811c9082168061111f57607f821691505b60208210810361113f57634e487b7160e01b600052602260045260246000fd5b50919050565b60008083546111538161110b565b6001828116801561116b5760018114611180576111af565b60ff19841687528215158302870194506111af565b8760005260208060002060005b858110156111a65781548a82015290840190820161118d565b50505082870194505b50929695505050505050565b6000602082840312156111cd57600080fd5b5051919050565b60018060a01b03841681528260208201526060604082015260006111fb6060830184610f67565b95945050505050565b634e487b7160e01b600052604160045260246000fd5b601f82111561041657600081815260208120601f850160051c810160208610156112415750805b601f850160051c820191505b818110156112605782815560010161124d565b505050505050565b815167ffffffffffffffff81111561128257611282611204565b61129681611290845461110b565b8461121a565b602080601f8311600181146112cb57600084156112b35750858301515b600019600386901b1c1916600185901b178555611260565b600085815260208120601f198616915b828110156112fa578886015182559484019460019091019084016112db565b50858210156113185787850151600019600388901b60f8161c191681555b5050505050600190811b01905550565b81835281816020850137506000828201602090810191909152601f909101601f19169091010190565b604081526000611365604083018688611328565b8281036020840152611378818587611328565b979650505050505050565b6000600182016113a357634e487b7160e01b600052601160045260246000fd5b5060010190565b67ffffffffffffffff8311156113c2576113c2611204565b6113d6836113d0835461110b565b8361121a565b6000601f84116001811461140a57600085156113f25750838201355b600019600387901b1c1916600186901b178355611464565b600083815260209020601f19861690835b8281101561143b578685013582556020948501946001909201910161141b565b50868210156114585760001960f88860031b161c19848701351681555b505060018560011b0183555b5050505050565b60408152600061147f604083018587611328565b905082602083015294935050505056fea49807205ce4d355092ef5a8a18f56e8913cf4a201fbe287825b095693c21775a2646970667358221220aacafc9eedae5337627429d41e7f7405eb98158ce7cfc5fcdbf8c112ecdc60d764736f6c6343000814003360806040523480156200001157600080fd5b50604051620013b4380380620013b483398101604081905262000034916200012f565b806040518060400160405280600e81526020016d121a59da15985b1d59505cdcd95d60921b8152506040518060400160405280600381526020016248564160e81b815250816000908162000089919062000206565b50600162000098828262000206565b5050506001600160a01b038116620000ca57604051631e4fbdf760e01b81526000600482015260240160405180910390fd5b620000d581620000dd565b5050620002d2565b600680546001600160a01b038381166001600160a01b0319831681179093556040519116919082907f8be0079c531659141344cd1fd0a4f28419497f9722a3daafe3b4186f6b6457e090600090a35050565b6000602082840312156200014257600080fd5b81516001600160a01b03811681146200015a57600080fd5b9392505050565b634e487b7160e01b600052604160045260246000fd5b600181811c908216806200018c57607f821691505b602082108103620001ad57634e487b7160e01b600052602260045260246000fd5b50919050565b601f8211156200020157600081815260208120601f850160051c81016020861015620001dc5750805b601f850160051c820191505b81811015620001fd57828155600101620001e8565b5050505b505050565b81516001600160401b0381111562000222576200022262000161565b6200023a8162000233845462000177565b84620001b3565b602080601f831160018114620002725760008415620002595750858301515b600019600386901b1c1916600185901b178555620001fd565b600085815260208120601f198616915b82811015620002a35788860151825594840194600190910190840162000282565b5085821015620002c25787850151600019600388901b60f8161c191681555b5050505050600190811b01905550565b6110d280620002e26000396000f3fe608060405234801561001057600080fd5b506004361061010b5760003560e01c8063715018a6116100a2578063a22cb46511610071578063a22cb4651461021b578063b88d4fde1461022e578063c87b56dd14610241578063e985e9c514610254578063f2fde38b1461026757600080fd5b8063715018a6146101e75780638da5cb5b146101ef57806395d89b4114610200578063a14481941461020857600080fd5b806323b872dd116100de57806323b872dd1461018d57806342842e0e146101a05780636352211e146101b357806370a08231146101c657600080fd5b806301ffc9a71461011057806306fdde0314610138578063081812fc1461014d578063095ea7b314610178575b600080fd5b61012361011e366004610d42565b61027a565b60405190151581526020015b60405180910390f35b6101406102cc565b60405161012f9190610daf565b61016061015b366004610dc2565b61035e565b6040516001600160a01b03909116815260200161012f565b61018b610186366004610df7565b610387565b005b61018b61019b366004610e21565b610396565b61018b6101ae366004610e21565b610426565b6101606101c1366004610dc2565b610446565b6101d96101d4366004610e5d565b610451565b60405190815260200161012f565b61018b610499565b6006546001600160a01b0316610160565b6101406104ad565b61018b610216366004610df7565b6104bc565b61018b610229366004610e78565b6104ce565b61018b61023c366004610eca565b6104d9565b61014061024f366004610dc2565b6104f1565b610123610262366004610fa6565b610566565b61018b610275366004610e5d565b610594565b60006001600160e01b031982166380ac58cd60e01b14806102ab57506001600160e01b03198216635b5e139f60e01b145b806102c657506301ffc9a760e01b6001600160e01b03198316145b92915050565b6060600080546102db90610fd9565b80601f016020809104026020016040519081016040528092919081815260200182805461030790610fd9565b80156103545780601f1061032957610100808354040283529160200191610354565b820191906000526020600020905b81548152906001019060200180831161033757829003601f168201915b5050505050905090565b6000610369826105d2565b506000828152600460205260409020546001600160a01b03166102c6565b61039282823361060b565b5050565b6001600160a01b0382166103c557604051633250574960e11b8152600060048201526024015b60405180910390fd5b60006103d2838333610618565b9050836001600160a01b0316816001600160a01b031614610420576040516364283d7b60e01b81526001600160a01b03808616600483015260248201849052821660448201526064016103bc565b50505050565b610441838383604051806020016040528060008152506104d9565b505050565b60006102c6826105d2565b60006001600160a01b03821661047d576040516322718ad960e21b8152600060048201526024016103bc565b506001600160a01b031660009081526003602052604090205490565b6104a1610711565b6104ab600061073e565b565b6060600180546102db90610fd9565b6104c4610711565b6103928282610790565b6103923383836107aa565b6104e4848484610396565b6104203385858585610849565b60606104fc826105d2565b50600061051460408051602081019091526000815290565b90506000815111610534576040518060200160405280600081525061055f565b8061053e84610974565b60405160200161054f929190611013565b6040516020818303038152906040525b9392505050565b6001600160a01b03918216600090815260056020908152604080832093909416825291909152205460ff1690565b61059c610711565b6001600160a01b0381166105c657604051631e4fbdf760e01b8152600060048201526024016103bc565b6105cf8161073e565b50565b6000818152600260205260408120546001600160a01b0316806102c657604051637e27328960e01b8152600481018490526024016103bc565b6104418383836001610a07565b6000828152600260205260408120546001600160a01b039081169083161561064557610645818486610b0d565b6001600160a01b0381161561068357610662600085600080610a07565b6001600160a01b038116600090815260036020526040902080546000190190555b6001600160a01b038516156106b2576001600160a01b0385166000908152600360205260409020805460010190555b60008481526002602052604080822080546001600160a01b0319166001600160a01b0389811691821790925591518793918516917fddf252ad1be2c89b69c2b068fc378daa952ba7f163c4a11628f55a4df523b3ef91a4949350505050565b6006546001600160a01b031633146104ab5760405163118cdaa760e01b81523360048201526024016103bc565b600680546001600160a01b038381166001600160a01b0319831681179093556040519116919082907f8be0079c531659141344cd1fd0a4f28419497f9722a3daafe3b4186f6b6457e090600090a35050565b610392828260405180602001604052806000815250610b71565b6001600160a01b0382166107dc57604051630b61174360e31b81526001600160a01b03831660048201526024016103bc565b6001600160a01b03838116600081815260056020908152604080832094871680845294825291829020805460ff191686151590811790915591519182527f17307eab39ab6107e8899845ad3d59bd9653f200f220920489ca2b5937696c31910160405180910390a3505050565b6001600160a01b0383163b1561096d57604051630a85bd0160e11b81526001600160a01b0384169063150b7a029061088b908890889087908790600401611042565b6020604051808303816000875af19250505080156108c6575060408051601f3d908101601f191682019092526108c39181019061107f565b60015b61092f573d8080156108f4576040519150601f19603f3d011682016040523d82523d6000602084013e6108f9565b606091505b50805160000361092757604051633250574960e11b81526001600160a01b03851660048201526024016103bc565b805181602001fd5b6001600160e01b03198116630a85bd0160e11b1461096b57604051633250574960e11b81526001600160a01b03851660048201526024016103bc565b505b5050505050565b6060600061098183610b89565b600101905060008167ffffffffffffffff8111156109a1576109a1610eb4565b6040519080825280601f01601f1916602001820160405280156109cb576020820181803683370190505b5090508181016020015b600019016f181899199a1a9b1b9c1cb0b131b232b360811b600a86061a8153600a85049450846109d557509392505050565b8080610a1b57506001600160a01b03821615155b15610add576000610a2b846105d2565b90506001600160a01b03831615801590610a575750826001600160a01b0316816001600160a01b031614155b8015610a6a5750610a688184610566565b155b15610a935760405163a9fbf51f60e01b81526001600160a01b03841660048201526024016103bc565b8115610adb5783856001600160a01b0316826001600160a01b03167f8c5be1e5ebec7d5bd14f71427d1e84f3dd0314c0f7b2291e5b200ac8c7c3b92560405160405180910390a45b505b5050600090815260046020526040902080546001600160a01b0319166001600160a01b0392909216919091179055565b610b18838383610c61565b610441576001600160a01b038316610b4657604051637e27328960e01b8152600481018290526024016103bc565b60405163177e802f60e01b81526001600160a01b0383166004820152602481018290526044016103bc565b610b7b8383610cc7565b610441336000858585610849565b60008072184f03e93ff9f4daa797ed6e38ed64bf6a1f0160401b8310610bc85772184f03e93ff9f4daa797ed6e38ed64bf6a1f0160401b830492506040015b6d04ee2d6d415b85acef81000000008310610bf4576d04ee2d6d415b85acef8100000000830492506020015b662386f26fc100008310610c1257662386f26fc10000830492506010015b6305f5e1008310610c2a576305f5e100830492506008015b6127108310610c3e57612710830492506004015b60648310610c50576064830492506002015b600a83106102c65760010192915050565b60006001600160a01b03831615801590610cbf5750826001600160a01b0316846001600160a01b03161480610c9b5750610c9b8484610566565b80610cbf57506000828152600460205260409020546001600160a01b038481169116145b949350505050565b6001600160a01b038216610cf157604051633250574960e11b8152600060048201526024016103bc565b6000610cff83836000610618565b90506001600160a01b03811615610441576040516339e3563760e11b8152600060048201526024016103bc565b6001600160e01b0319811681146105cf57600080fd5b600060208284031215610d5457600080fd5b813561055f81610d2c565b60005b83811015610d7a578181015183820152602001610d62565b50506000910152565b60008151808452610d9b816020860160208601610d5f565b601f01601f19169290920160200192915050565b60208152600061055f6020830184610d83565b600060208284031215610dd457600080fd5b5035919050565b80356001600160a01b0381168114610df257600080fd5b919050565b60008060408385031215610e0a57600080fd5b610e1383610ddb565b946020939093013593505050565b600080600060608486031215610e3657600080fd5b610e3f84610ddb565b9250610e4d60208501610ddb565b9150604084013590509250925092565b600060208284031215610e6f57600080fd5b61055f82610ddb565b60008060408385031215610e8b57600080fd5b610e9483610ddb565b915060208301358015158114610ea957600080fd5b809150509250929050565b634e487b7160e01b600052604160045260246000fd5b60008060008060808587031215610ee057600080fd5b610ee985610ddb565b9350610ef760208601610ddb565b925060408501359150606085013567ffffffffffffffff80821115610f1b57600080fd5b818701915087601f830112610f2f57600080fd5b813581811115610f4157610f41610eb4565b604051601f8201601f19908116603f01168101908382118183101715610f6957610f69610eb4565b816040528281528a6020848701011115610f8257600080fd5b82602086016020830137600060208483010152809550505050505092959194509250565b60008060408385031215610fb957600080fd5b610fc283610ddb565b9150610fd060208401610ddb565b90509250929050565b600181811c90821680610fed57607f821691505b60208210810361100d57634e487b7160e01b600052602260045260246000fd5b50919050565b60008351611025818460208801610d5f565b835190830190611039818360208801610d5f565b01949350505050565b6001600160a01b038581168252841660208201526040810183905260806060820181905260009061107590830184610d83565b9695505050505050565b60006020828403121561109157600080fd5b815161055f81610d2c56fea2646970667358221220ca5519169a819d92e4d63af63f67fd4ea157752f7601dea1164a51d5838abc0f64736f6c63430008140033","opcodes":"PUSH1 0x80 PUSH1 0x40 MSTORE CALLVALUE DUP1 ISZERO PUSH3 0x11 JUMPI PUSH1 0x0 DUP1 REVERT JUMPDEST POP PUSH1 0x40 MLOAD PUSH3 0x2B8B CODESIZE SUB DUP1 PUSH3 0x2B8B DUP4 CODECOPY DUP2 ADD PUSH1 0x40 DUP2 SWAP1 MSTORE PUSH3 0x34 SWAP2 PUSH3 0x290 JUMP JUMPDEST PUSH3 0x41 PUSH1 0x0 CALLER PUSH3 0x1B6 JUMP JUMPDEST POP PUSH3 0x6E PUSH32 0xA49807205CE4D355092EF5A8A18F56E8913CF4A201FBE287825B095693C21775 CALLER PUSH3 0x1B6 JUMP JUMPDEST POP ADDRESS PUSH1 0x40 MLOAD PUSH3 0x7E SWAP1 PUSH3 0x265 JUMP JUMPDEST PUSH1 0x1 PUSH1 0x1 PUSH1 0xA0 SHL SUB SWAP1 SWAP2 AND DUP2 MSTORE PUSH1 0x20 ADD PUSH1 0x40 MLOAD DUP1 SWAP2 SUB SWAP1 PUSH1 0x0 CREATE DUP1 ISZERO DUP1 ISZERO PUSH3 0xAB JUMPI RETURNDATASIZE PUSH1 0x0 DUP1 RETURNDATACOPY RETURNDATASIZE PUSH1 0x0 REVERT JUMPDEST POP PUSH1 0x1 DUP1 SLOAD PUSH1 0x1 PUSH1 0x1 PUSH1 0xA0 SHL SUB NOT SWAP1 DUP2 AND PUSH1 0x1 PUSH1 0x1 PUSH1 0xA0 SHL SUB SWAP4 DUP5 AND OR SWAP1 SWAP2 SSTORE PUSH1 0x2 DUP1 SLOAD DUP3 AND DUP8 DUP5 AND SWAP1 DUP2 OR SWAP1 SWAP2 SSTORE PUSH1 0x3 DUP1 SLOAD DUP4 AND DUP8 DUP6 AND OR SWAP1 SSTORE PUSH1 0x4 DUP1 SLOAD SWAP1 SWAP3 AND SWAP3 DUP6 AND SWAP3 SWAP1 SWAP3 OR DUP2 SSTORE PUSH1 0x5 DUP4 SWAP1 SSTORE PUSH1 0x40 MLOAD PUSH4 0xF2FDE38B PUSH1 0xE0 SHL DUP2 MSTORE ADDRESS SWAP2 DUP2 ADD SWAP2 SWAP1 SWAP2 MSTORE PUSH4 0xF2FDE38B SWAP1 PUSH1 0x24 ADD PUSH1 0x0 PUSH1 0x40 MLOAD DUP1 DUP4 SUB DUP2 PUSH1 0x0 DUP8 DUP1 EXTCODESIZE ISZERO DUP1 ISZERO PUSH3 0x134 JUMPI PUSH1 0x0 DUP1 REVERT JUMPDEST POP GAS CALL ISZERO DUP1 ISZERO PUSH3 0x149 JUMPI RETURNDATASIZE PUSH1 0x0 DUP1 RETURNDATACOPY RETURNDATASIZE PUSH1 0x0 REVERT JUMPDEST POP POP PUSH1 0x3 SLOAD PUSH1 0x40 MLOAD PUSH4 0xF2FDE38B PUSH1 0xE0 SHL DUP2 MSTORE ADDRESS PUSH1 0x4 DUP3 ADD MSTORE PUSH1 0x1 PUSH1 0x1 PUSH1 0xA0 SHL SUB SWAP1 SWAP2 AND SWAP3 POP PUSH4 0xF2FDE38B SWAP2 POP PUSH1 0x24 ADD PUSH1 0x0 PUSH1 0x40 MLOAD DUP1 DUP4 SUB DUP2 PUSH1 0x0 DUP8 DUP1 EXTCODESIZE ISZERO DUP1 ISZERO PUSH3 0x193 JUMPI PUSH1 0x0 DUP1 REVERT JUMPDEST POP GAS CALL ISZERO DUP1 ISZERO PUSH3 0x1A8 JUMPI RETURNDATASIZE PUSH1 0x0 DUP1 RETURNDATACOPY RETURNDATASIZE PUSH1 0x0 REVERT JUMPDEST POP POP POP POP POP POP POP POP PUSH3 0x2E2 JUMP JUMPDEST PUSH1 0x0 DUP3 DUP2 MSTORE PUSH1 0x20 DUP2 DUP2 MSTORE PUSH1 0x40 DUP1 DUP4 KECCAK256 PUSH1 0x1 PUSH1 0x1 PUSH1 0xA0 SHL SUB DUP6 AND DUP5 MSTORE SWAP1 SWAP2 MSTORE DUP2 KECCAK256 SLOAD PUSH1 0xFF AND PUSH3 0x25B JUMPI PUSH1 0x0 DUP4 DUP2 MSTORE PUSH1 0x20 DUP2 DUP2 MSTORE PUSH1 0x40 DUP1 DUP4 KECCAK256 PUSH1 0x1 PUSH1 0x1 PUSH1 0xA0 SHL SUB DUP7 AND DUP5 MSTORE SWAP1 SWAP2 MSTORE SWAP1 KECCAK256 DUP1 SLOAD PUSH1 0xFF NOT AND PUSH1 0x1 OR SWAP1 SSTORE PUSH3 0x212 CALLER SWAP1 JUMP JUMPDEST PUSH1 0x1 PUSH1 0x1 PUSH1 0xA0 SHL SUB AND DUP3 PUSH1 0x1 PUSH1 0x1 PUSH1 0xA0 SHL SUB AND DUP5 PUSH32 0x2F8788117E7EFF1D82E926EC794901D17C78024A50270940304540A733656F0D PUSH1 0x40 MLOAD PUSH1 0x40 MLOAD DUP1 SWAP2 SUB SWAP1 LOG4 POP PUSH1 0x1 PUSH3 0x25F JUMP JUMPDEST POP PUSH1 0x0 JUMPDEST SWAP3 SWAP2 POP POP JUMP JUMPDEST PUSH2 0x13B4 DUP1 PUSH3 0x17D7 DUP4 CODECOPY ADD SWAP1 JUMP JUMPDEST DUP1 MLOAD PUSH1 0x1 PUSH1 0x1 PUSH1 0xA0 SHL SUB DUP2 AND DUP2 EQ PUSH3 0x28B JUMPI PUSH1 0x0 DUP1 REVERT JUMPDEST SWAP2 SWAP1 POP JUMP JUMPDEST PUSH1 0x0 DUP1 PUSH1 0x0 DUP1 PUSH1 0x80 DUP6 DUP8 SUB SLT ISZERO PUSH3 0x2A7 JUMPI PUSH1 0x0 DUP1 REVERT JUMPDEST PUSH3 0x2B2 DUP6 PUSH3 0x273 JUMP JUMPDEST SWAP4 POP PUSH3 0x2C2 PUSH1 0x20 DUP7 ADD PUSH3 0x273 JUMP JUMPDEST SWAP3 POP PUSH3 0x2D2 PUSH1 0x40 DUP7 ADD PUSH3 0x273 JUMP JUMPDEST PUSH1 0x60 SWAP6 SWAP1 SWAP6 ADD MLOAD SWAP4 SWAP7 SWAP3 SWAP6 POP POP POP JUMP JUMPDEST PUSH2 0x14E5 DUP1 PUSH3 0x2F2 PUSH1 0x0 CODECOPY PUSH1 0x0 RETURN INVALID PUSH1 0x80 PUSH1 0x40 MSTORE CALLVALUE DUP1 ISZERO PUSH2 0x10 JUMPI PUSH1 0x0 DUP1 REVERT JUMPDEST POP PUSH1 0x4 CALLDATASIZE LT PUSH2 0x137 JUMPI PUSH1 0x0 CALLDATALOAD PUSH1 0xE0 SHR DUP1 PUSH4 0x46A7010F GT PUSH2 0xB8 JUMPI DUP1 PUSH4 0x91D14854 GT PUSH2 0x7C JUMPI DUP1 PUSH4 0x91D14854 EQ PUSH2 0x2C0 JUMPI DUP1 PUSH4 0x9CD82DF0 EQ PUSH2 0x2D3 JUMPI DUP1 PUSH4 0xA217FDDF EQ PUSH2 0x2E6 JUMPI DUP1 PUSH4 0xD547741F EQ PUSH2 0x2EE JUMPI DUP1 PUSH4 0xF22881DB EQ PUSH2 0x301 JUMPI DUP1 PUSH4 0xFE4DA505 EQ PUSH2 0x328 JUMPI PUSH1 0x0 DUP1 REVERT JUMPDEST DUP1 PUSH4 0x46A7010F EQ PUSH2 0x251 JUMPI DUP1 PUSH4 0x6733C8E0 EQ PUSH2 0x272 JUMPI DUP1 PUSH4 0x6FB6ED6C EQ PUSH2 0x285 JUMPI DUP1 PUSH4 0x75B238FC EQ PUSH2 0x298 JUMPI DUP1 PUSH4 0x846675E6 EQ PUSH2 0x2AD JUMPI PUSH1 0x0 DUP1 REVERT JUMPDEST DUP1 PUSH4 0x25860E9F GT PUSH2 0xFF JUMPI DUP1 PUSH4 0x25860E9F EQ PUSH2 0x1DA JUMPI DUP1 PUSH4 0x2F2FF15D EQ PUSH2 0x205 JUMPI DUP1 PUSH4 0x36568ABE EQ PUSH2 0x218 JUMPI DUP1 PUSH4 0x3A371B8E EQ PUSH2 0x22B JUMPI DUP1 PUSH4 0x4039694F EQ PUSH2 0x23E JUMPI PUSH1 0x0 DUP1 REVERT JUMPDEST DUP1 PUSH4 0x1FFC9A7 EQ PUSH2 0x13C JUMPI DUP1 PUSH4 0x26A3FF9 EQ PUSH2 0x164 JUMPI DUP1 PUSH4 0xEB71432 EQ PUSH2 0x17B JUMPI DUP1 PUSH4 0x18C7E2B6 EQ PUSH2 0x1A2 JUMPI DUP1 PUSH4 0x248A9CA3 EQ PUSH2 0x1B7 JUMPI JUMPDEST PUSH1 0x0 DUP1 REVERT JUMPDEST PUSH2 0x14F PUSH2 0x14A CALLDATASIZE PUSH1 0x4 PUSH2 0xEBB JUMP JUMPDEST PUSH2 0x33B JUMP JUMPDEST PUSH1 0x40 MLOAD SWAP1 ISZERO ISZERO DUP2 MSTORE PUSH1 0x20 ADD JUMPDEST PUSH1 0x40 MLOAD DUP1 SWAP2 SUB SWAP1 RETURN JUMPDEST PUSH2 0x16D PUSH1 0x5 SLOAD DUP2 JUMP JUMPDEST PUSH1 0x40 MLOAD SWAP1 DUP2 MSTORE PUSH1 0x20 ADD PUSH2 0x15B JUMP JUMPDEST PUSH2 0x16D PUSH32 0x591FA5458FE051CC8C02C405479BD38E00713C98DBD3DB209D982048F1E638FA DUP2 JUMP JUMPDEST PUSH2 0x1B5 PUSH2 0x1B0 CALLDATASIZE PUSH1 0x4 PUSH2 0xF01 JUMP JUMPDEST PUSH2 0x372 JUMP JUMPDEST STOP JUMPDEST PUSH2 0x16D PUSH2 0x1C5 CALLDATASIZE PUSH1 0x4 PUSH2 0xF1E JUMP JUMPDEST PUSH1 0x0 SWAP1 DUP2 MSTORE PUSH1 0x20 DUP2 SWAP1 MSTORE PUSH1 0x40 SWAP1 KECCAK256 PUSH1 0x1 ADD SLOAD SWAP1 JUMP JUMPDEST PUSH1 0x4 SLOAD PUSH2 0x1ED SWAP1 PUSH1 0x1 PUSH1 0x1 PUSH1 0xA0 SHL SUB AND DUP2 JUMP JUMPDEST PUSH1 0x40 MLOAD PUSH1 0x1 PUSH1 0x1 PUSH1 0xA0 SHL SUB SWAP1 SWAP2 AND DUP2 MSTORE PUSH1 0x20 ADD PUSH2 0x15B JUMP JUMPDEST PUSH2 0x1B5 PUSH2 0x213 CALLDATASIZE PUSH1 0x4 PUSH2 0xF37 JUMP JUMPDEST PUSH2 0x3B8 JUMP JUMPDEST PUSH2 0x1B5 PUSH2 0x226 CALLDATASIZE PUSH1 0x4 PUSH2 0xF37 JUMP JUMPDEST PUSH2 0x3E3 JUMP JUMPDEST PUSH2 0x1B5 PUSH2 0x239 CALLDATASIZE PUSH1 0x4 PUSH2 0xF37 JUMP JUMPDEST PUSH2 0x41B JUMP JUMPDEST PUSH2 0x1B5 PUSH2 0x24C CALLDATASIZE PUSH1 0x4 PUSH2 0xF01 JUMP JUMPDEST PUSH2 0x8EB JUMP JUMPDEST PUSH2 0x264 PUSH2 0x25F CALLDATASIZE PUSH1 0x4 PUSH2 0xF1E JUMP JUMPDEST PUSH2 0x92D JUMP JUMPDEST PUSH1 0x40 MLOAD PUSH2 0x15B SWAP3 SWAP2 SWAP1 PUSH2 0xFAD JUMP JUMPDEST PUSH2 0x1B5 PUSH2 0x280 CALLDATASIZE PUSH1 0x4 PUSH2 0x1018 JUMP JUMPDEST PUSH2 0x9D1 JUMP JUMPDEST PUSH1 0x2 SLOAD PUSH2 0x1ED SWAP1 PUSH1 0x1 PUSH1 0x1 PUSH1 0xA0 SHL SUB AND DUP2 JUMP JUMPDEST PUSH2 0x16D PUSH1 0x0 DUP1 MLOAD PUSH1 0x20 PUSH2 0x1490 DUP4 CODECOPY DUP2 MLOAD SWAP2 MSTORE DUP2 JUMP JUMPDEST PUSH1 0x3 SLOAD PUSH2 0x1ED SWAP1 PUSH1 0x1 PUSH1 0x1 PUSH1 0xA0 SHL SUB AND DUP2 JUMP JUMPDEST PUSH2 0x14F PUSH2 0x2CE CALLDATASIZE PUSH1 0x4 PUSH2 0xF37 JUMP JUMPDEST PUSH2 0xC25 JUMP JUMPDEST PUSH2 0x1B5 PUSH2 0x2E1 CALLDATASIZE PUSH1 0x4 PUSH2 0x1092 JUMP JUMPDEST PUSH2 0xC4E JUMP JUMPDEST PUSH2 0x16D PUSH1 0x0 DUP2 JUMP JUMPDEST PUSH2 0x1B5 PUSH2 0x2FC CALLDATASIZE PUSH1 0x4 PUSH2 0xF37 JUMP JUMPDEST PUSH2 0xD53 JUMP JUMPDEST PUSH2 0x16D PUSH32 0xBDB3B186091AF1EB1AE5C50FA0612C33068A4A081A418934AB31721BE7069CD9 DUP2 JUMP JUMPDEST PUSH1 0x1 SLOAD PUSH2 0x1ED SWAP1 PUSH1 0x1 PUSH1 0x1 PUSH1 0xA0 SHL SUB AND DUP2 JUMP JUMPDEST PUSH1 0x0 PUSH1 0x1 PUSH1 0x1 PUSH1 0xE0 SHL SUB NOT DUP3 AND PUSH4 0x7965DB0B PUSH1 0xE0 SHL EQ DUP1 PUSH2 0x36C JUMPI POP PUSH4 0x1FFC9A7 PUSH1 0xE0 SHL PUSH1 0x1 PUSH1 0x1 PUSH1 0xE0 SHL SUB NOT DUP4 AND EQ JUMPDEST SWAP3 SWAP2 POP POP JUMP JUMPDEST PUSH1 0x0 DUP1 MLOAD PUSH1 0x20 PUSH2 0x1490 DUP4 CODECOPY DUP2 MLOAD SWAP2 MSTORE PUSH2 0x38A DUP2 PUSH2 0xD78 JUMP JUMPDEST PUSH2 0x3B4 PUSH32 0xBDB3B186091AF1EB1AE5C50FA0612C33068A4A081A418934AB31721BE7069CD9 DUP4 PUSH2 0x3B8 JUMP JUMPDEST POP POP JUMP JUMPDEST PUSH1 0x0 DUP3 DUP2 MSTORE PUSH1 0x20 DUP2 SWAP1 MSTORE PUSH1 0x40 SWAP1 KECCAK256 PUSH1 0x1 ADD SLOAD PUSH2 0x3D3 DUP2 PUSH2 0xD78 JUMP JUMPDEST PUSH2 0x3DD DUP4 DUP4 PUSH2 0xD85 JUMP JUMPDEST POP POP POP POP JUMP JUMPDEST PUSH1 0x1 PUSH1 0x1 PUSH1 0xA0 SHL SUB DUP2 AND CALLER EQ PUSH2 0x40C JUMPI PUSH1 0x40 MLOAD PUSH4 0x334BD919 PUSH1 0xE1 SHL DUP2 MSTORE PUSH1 0x4 ADD PUSH1 0x40 MLOAD DUP1 SWAP2 SUB SWAP1 REVERT JUMPDEST PUSH2 0x416 DUP3 DUP3 PUSH2 0xE17 JUMP JUMPDEST POP POP POP JUMP JUMPDEST PUSH1 0x1 SLOAD PUSH1 0x40 MLOAD PUSH4 0x31A9108F PUSH1 0xE1 SHL DUP2 MSTORE PUSH1 0x4 DUP2 ADD DUP5 SWAP1 MSTORE PUSH1 0x0 SWAP2 PUSH1 0x1 PUSH1 0x1 PUSH1 0xA0 SHL SUB AND SWAP1 PUSH4 0x6352211E SWAP1 PUSH1 0x24 ADD PUSH1 0x20 PUSH1 0x40 MLOAD DUP1 DUP4 SUB DUP2 DUP7 GAS STATICCALL ISZERO DUP1 ISZERO PUSH2 0x465 JUMPI RETURNDATASIZE PUSH1 0x0 DUP1 RETURNDATACOPY RETURNDATASIZE PUSH1 0x0 REVERT JUMPDEST POP POP POP POP PUSH1 0x40 MLOAD RETURNDATASIZE PUSH1 0x1F NOT PUSH1 0x1F DUP3 ADD AND DUP3 ADD DUP1 PUSH1 0x40 MSTORE POP DUP2 ADD SWAP1 PUSH2 0x489 SWAP2 SWAP1 PUSH2 0x10EE JUMP JUMPDEST SWAP1 POP PUSH1 0x1 PUSH1 0x1 PUSH1 0xA0 SHL SUB DUP2 AND CALLER EQ PUSH2 0x505 JUMPI PUSH1 0x40 MLOAD PUSH3 0x461BCD PUSH1 0xE5 SHL DUP2 MSTORE PUSH1 0x20 PUSH1 0x4 DUP3 ADD MSTORE PUSH1 0x34 PUSH1 0x24 DUP3 ADD MSTORE PUSH32 0x417373657452656769737472793A2043616C6C6572206973206E6F7420746865 PUSH1 0x44 DUP3 ADD MSTORE PUSH20 0x1037BBB732B91037B3103A3432903A37B5B2B717 PUSH1 0x61 SHL PUSH1 0x64 DUP3 ADD MSTORE PUSH1 0x84 ADD JUMPDEST PUSH1 0x40 MLOAD DUP1 SWAP2 SUB SWAP1 REVERT JUMPDEST PUSH1 0x1 PUSH1 0x1 PUSH1 0xA0 SHL SUB DUP3 AND PUSH2 0x581 JUMPI PUSH1 0x40 MLOAD PUSH3 0x461BCD PUSH1 0xE5 SHL DUP2 MSTORE PUSH1 0x20 PUSH1 0x4 DUP3 ADD MSTORE PUSH1 0x3B PUSH1 0x24 DUP3 ADD MSTORE PUSH32 0x417373657452656769737472793A205472616E7366657220746F20746865207A PUSH1 0x44 DUP3 ADD MSTORE PUSH32 0x65726F2061646472657373206973206E6F7420616C6C6F7765642E0000000000 PUSH1 0x64 DUP3 ADD MSTORE PUSH1 0x84 ADD PUSH2 0x4FC JUMP JUMPDEST PUSH1 0x0 DUP4 DUP2 MSTORE PUSH1 0x6 PUSH1 0x20 MSTORE PUSH1 0x40 SWAP1 KECCAK256 PUSH1 0x1 ADD SLOAD ISZERO ISZERO DUP1 PUSH2 0x5EE JUMPI POP PUSH1 0x40 DUP1 MLOAD PUSH1 0x20 DUP1 DUP3 ADD DUP4 MSTORE PUSH1 0x0 SWAP2 DUP3 SWAP1 MSTORE DUP6 DUP3 MSTORE PUSH1 0x6 SWAP1 MSTORE DUP2 SWAP1 KECCAK256 SWAP1 MLOAD PUSH32 0xC5D2460186F7233C927E7DB2DCC703C0E500B653CA82273B7BFAD8045D85A470 SWAP2 PUSH2 0x5E3 SWAP2 PUSH2 0x1145 JUMP JUMPDEST PUSH1 0x40 MLOAD DUP1 SWAP2 SUB SWAP1 KECCAK256 EQ ISZERO JUMPDEST PUSH2 0x649 JUMPI PUSH1 0x40 MLOAD PUSH3 0x461BCD PUSH1 0xE5 SHL DUP2 MSTORE PUSH1 0x20 PUSH1 0x4 DUP3 ADD MSTORE PUSH1 0x26 PUSH1 0x24 DUP3 ADD MSTORE PUSH32 0x4173736574206E6F74207265676973746572656420696E204173736574526567 PUSH1 0x44 DUP3 ADD MSTORE PUSH6 0x34B9BA393C97 PUSH1 0xD1 SHL PUSH1 0x64 DUP3 ADD MSTORE PUSH1 0x84 ADD PUSH2 0x4FC JUMP JUMPDEST PUSH1 0x5 SLOAD PUSH1 0x0 DUP5 DUP2 MSTORE PUSH1 0x6 PUSH1 0x20 MSTORE PUSH1 0x40 DUP2 KECCAK256 PUSH1 0x1 ADD SLOAD SWAP1 SWAP2 LT ISZERO PUSH2 0x678 JUMPI POP PUSH1 0x3 SLOAD PUSH1 0x1 PUSH1 0x1 PUSH1 0xA0 SHL SUB AND PUSH2 0x686 JUMP JUMPDEST POP PUSH1 0x2 SLOAD PUSH1 0x1 PUSH1 0x1 PUSH1 0xA0 SHL SUB AND JUMPDEST PUSH1 0x1 SLOAD PUSH1 0x40 MLOAD PUSH4 0x20604BF PUSH1 0xE2 SHL DUP2 MSTORE PUSH1 0x4 DUP2 ADD DUP7 SWAP1 MSTORE PUSH1 0x1 PUSH1 0x1 PUSH1 0xA0 SHL SUB DUP4 DUP2 AND SWAP3 AND SWAP1 PUSH4 0x81812FC SWAP1 PUSH1 0x24 ADD PUSH1 0x20 PUSH1 0x40 MLOAD DUP1 DUP4 SUB DUP2 DUP7 GAS STATICCALL ISZERO DUP1 ISZERO PUSH2 0x6D1 JUMPI RETURNDATASIZE PUSH1 0x0 DUP1 RETURNDATACOPY RETURNDATASIZE PUSH1 0x0 REVERT JUMPDEST POP POP POP POP PUSH1 0x40 MLOAD RETURNDATASIZE PUSH1 0x1F NOT PUSH1 0x1F DUP3 ADD AND DUP3 ADD DUP1 PUSH1 0x40 MSTORE POP DUP2 ADD SWAP1 PUSH2 0x6F5 SWAP2 SWAP1 PUSH2 0x10EE JUMP JUMPDEST PUSH1 0x1 PUSH1 0x1 PUSH1 0xA0 SHL SUB AND EQ PUSH2 0x77B JUMPI PUSH1 0x40 MLOAD PUSH3 0x461BCD PUSH1 0xE5 SHL DUP2 MSTORE PUSH1 0x20 PUSH1 0x4 DUP3 ADD MSTORE PUSH1 0x41 PUSH1 0x24 DUP3 ADD MSTORE PUSH32 0x417373657452656769737472793A2043686F73656E204D756C74695369675761 PUSH1 0x44 DUP3 ADD MSTORE PUSH32 0x6C6C6574206E6F7420617070726F76656420666F72207468697320746F6B656E PUSH1 0x64 DUP3 ADD MSTORE PUSH1 0x17 PUSH1 0xF9 SHL PUSH1 0x84 DUP3 ADD MSTORE PUSH1 0xA4 ADD PUSH2 0x4FC JUMP JUMPDEST PUSH1 0x40 DUP1 MLOAD PUSH1 0x1 PUSH1 0x1 PUSH1 0xA0 SHL SUB DUP5 DUP2 AND PUSH1 0x24 DUP4 ADD MSTORE DUP6 DUP2 AND PUSH1 0x44 DUP4 ADD MSTORE PUSH1 0x64 DUP1 DUP4 ADD DUP9 SWAP1 MSTORE DUP4 MLOAD DUP1 DUP5 SUB SWAP1 SWAP2 ADD DUP2 MSTORE PUSH1 0x84 SWAP1 SWAP3 ADD DUP4 MSTORE PUSH1 0x20 DUP1 DUP4 ADD DUP1 MLOAD PUSH1 0x1 PUSH1 0x1 PUSH1 0xE0 SHL SUB AND PUSH4 0x21421707 PUSH1 0xE1 SHL OR SWAP1 MSTORE DUP4 MLOAD PUSH3 0x5BBDFB PUSH1 0xE9 SHL DUP2 MSTORE SWAP4 MLOAD SWAP3 SWAP4 PUSH1 0x0 SWAP4 SWAP3 DUP7 AND SWAP3 PUSH4 0xB77BF600 SWAP3 PUSH1 0x4 DUP1 DUP5 ADD SWAP4 SWAP2 SWAP3 SWAP2 DUP3 SWAP1 SUB ADD DUP2 DUP7 GAS STATICCALL ISZERO DUP1 ISZERO PUSH2 0x809 JUMPI RETURNDATASIZE PUSH1 0x0 DUP1 RETURNDATACOPY RETURNDATASIZE PUSH1 0x0 REVERT JUMPDEST POP POP POP POP PUSH1 0x40 MLOAD RETURNDATASIZE PUSH1 0x1F NOT PUSH1 0x1F DUP3 ADD AND DUP3 ADD DUP1 PUSH1 0x40 MSTORE POP DUP2 ADD SWAP1 PUSH2 0x82D SWAP2 SWAP1 PUSH2 0x11BB JUMP JUMPDEST PUSH1 0x1 SLOAD PUSH1 0x40 MLOAD PUSH4 0xA9496E75 PUSH1 0xE0 SHL DUP2 MSTORE SWAP2 SWAP3 POP PUSH1 0x1 PUSH1 0x1 PUSH1 0xA0 SHL SUB DUP1 DUP7 AND SWAP3 PUSH4 0xA9496E75 SWAP3 PUSH2 0x865 SWAP3 AND SWAP1 PUSH1 0x0 SWAP1 DUP8 SWAP1 PUSH1 0x4 ADD PUSH2 0x11D4 JUMP JUMPDEST PUSH1 0x0 PUSH1 0x40 MLOAD DUP1 DUP4 SUB DUP2 PUSH1 0x0 DUP8 DUP1 EXTCODESIZE ISZERO DUP1 ISZERO PUSH2 0x87F JUMPI PUSH1 0x0 DUP1 REVERT JUMPDEST POP GAS CALL ISZERO DUP1 ISZERO PUSH2 0x893 JUMPI RETURNDATASIZE PUSH1 0x0 DUP1 RETURNDATACOPY RETURNDATASIZE PUSH1 0x0 REVERT JUMPDEST POP POP PUSH1 0x40 DUP1 MLOAD PUSH1 0x1 PUSH1 0x1 PUSH1 0xA0 SHL SUB DUP8 DUP2 AND DUP3 MSTORE PUSH1 0x20 DUP3 ADD DUP7 SWAP1 MSTORE DUP1 DUP11 AND SWAP5 POP DUP9 AND SWAP3 POP DUP10 SWAP2 PUSH32 0xB1F1DA2409DFB599A552EDA8DA9B1E1EAC4B32365C9693EFC526FD49A09DBFD8 SWAP2 ADD PUSH1 0x40 MLOAD DUP1 SWAP2 SUB SWAP1 LOG4 POP POP POP POP POP POP JUMP JUMPDEST PUSH1 0x0 DUP1 MLOAD PUSH1 0x20 PUSH2 0x1490 DUP4 CODECOPY DUP2 MLOAD SWAP2 MSTORE PUSH2 0x903 DUP2 PUSH2 0xD78 JUMP JUMPDEST PUSH2 0x3B4 PUSH32 0x591FA5458FE051CC8C02C405479BD38E00713C98DBD3DB209D982048F1E638FA DUP4 PUSH2 0x3B8 JUMP JUMPDEST PUSH1 0x6 PUSH1 0x20 MSTORE PUSH1 0x0 SWAP1 DUP2 MSTORE PUSH1 0x40 SWAP1 KECCAK256 DUP1 SLOAD DUP2 SWAP1 PUSH2 0x948 SWAP1 PUSH2 0x110B JUMP JUMPDEST DUP1 PUSH1 0x1F ADD PUSH1 0x20 DUP1 SWAP2 DIV MUL PUSH1 0x20 ADD PUSH1 0x40 MLOAD SWAP1 DUP2 ADD PUSH1 0x40 MSTORE DUP1 SWAP3 SWAP2 SWAP1 DUP2 DUP2 MSTORE PUSH1 0x20 ADD DUP3 DUP1 SLOAD PUSH2 0x974 SWAP1 PUSH2 0x110B JUMP JUMPDEST DUP1 ISZERO PUSH2 0x9C1 JUMPI DUP1 PUSH1 0x1F LT PUSH2 0x996 JUMPI PUSH2 0x100 DUP1 DUP4 SLOAD DIV MUL DUP4 MSTORE SWAP2 PUSH1 0x20 ADD SWAP2 PUSH2 0x9C1 JUMP JUMPDEST DUP3 ADD SWAP2 SWAP1 PUSH1 0x0 MSTORE PUSH1 0x20 PUSH1 0x0 KECCAK256 SWAP1 JUMPDEST DUP2 SLOAD DUP2 MSTORE SWAP1 PUSH1 0x1 ADD SWAP1 PUSH1 0x20 ADD DUP1 DUP4 GT PUSH2 0x9A4 JUMPI DUP3 SWAP1 SUB PUSH1 0x1F AND DUP3 ADD SWAP2 JUMPDEST POP POP POP POP POP SWAP1 DUP1 PUSH1 0x1 ADD SLOAD SWAP1 POP DUP3 JUMP JUMPDEST PUSH32 0xBDB3B186091AF1EB1AE5C50FA0612C33068A4A081A418934AB31721BE7069CD9 PUSH2 0x9FB DUP2 PUSH2 0xD78 JUMP JUMPDEST PUSH1 0x0 DUP7 DUP2 MSTORE PUSH1 0x6 PUSH1 0x20 MSTORE PUSH1 0x40 SWAP1 KECCAK256 PUSH1 0x1 ADD SLOAD ISZERO ISZERO DUP1 PUSH2 0xA68 JUMPI POP PUSH1 0x40 DUP1 MLOAD PUSH1 0x20 DUP1 DUP3 ADD DUP4 MSTORE PUSH1 0x0 SWAP2 DUP3 SWAP1 MSTORE DUP9 DUP3 MSTORE PUSH1 0x6 SWAP1 MSTORE DUP2 SWAP1 KECCAK256 SWAP1 MLOAD PUSH32 0xC5D2460186F7233C927E7DB2DCC703C0E500B653CA82273B7BFAD8045D85A470 SWAP2 PUSH2 0xA5D SWAP2 PUSH2 0x1145 JUMP JUMPDEST PUSH1 0x40 MLOAD DUP1 SWAP2 SUB SWAP1 KECCAK256 EQ ISZERO JUMPDEST PUSH2 0xACA JUMPI PUSH1 0x40 MLOAD PUSH3 0x461BCD PUSH1 0xE5 SHL DUP2 MSTORE PUSH1 0x20 PUSH1 0x4 DUP3 ADD MSTORE PUSH1 0x2D PUSH1 0x24 DUP3 ADD MSTORE PUSH32 0x417373657420646F6573206E6F74206578697374206F72206E6F742066756C6C PUSH1 0x44 DUP3 ADD MSTORE PUSH13 0x3C903932B3B4B9BA32B932B217 PUSH1 0x99 SHL PUSH1 0x64 DUP3 ADD MSTORE PUSH1 0x84 ADD PUSH2 0x4FC JUMP JUMPDEST PUSH1 0x6 PUSH1 0x0 DUP8 DUP2 MSTORE PUSH1 0x20 ADD SWAP1 DUP2 MSTORE PUSH1 0x20 ADD PUSH1 0x0 KECCAK256 PUSH1 0x2 ADD PUSH1 0x40 MLOAD DUP1 PUSH1 0x80 ADD PUSH1 0x40 MSTORE DUP1 TIMESTAMP DUP2 MSTORE PUSH1 0x20 ADD DUP8 DUP8 DUP1 DUP1 PUSH1 0x1F ADD PUSH1 0x20 DUP1 SWAP2 DIV MUL PUSH1 0x20 ADD PUSH1 0x40 MLOAD SWAP1 DUP2 ADD PUSH1 0x40 MSTORE DUP1 SWAP4 SWAP3 SWAP2 SWAP1 DUP2 DUP2 MSTORE PUSH1 0x20 ADD DUP4 DUP4 DUP1 DUP3 DUP5 CALLDATACOPY PUSH1 0x0 SWAP3 ADD SWAP2 SWAP1 SWAP2 MSTORE POP POP POP SWAP1 DUP3 MSTORE POP PUSH1 0x40 DUP1 MLOAD PUSH1 0x20 PUSH1 0x1F DUP9 ADD DUP2 SWAP1 DIV DUP2 MUL DUP3 ADD DUP2 ADD SWAP1 SWAP3 MSTORE DUP7 DUP2 MSTORE SWAP2 DUP2 ADD SWAP2 SWAP1 DUP8 SWAP1 DUP8 SWAP1 DUP2 SWAP1 DUP5 ADD DUP4 DUP3 DUP1 DUP3 DUP5 CALLDATACOPY PUSH1 0x0 SWAP3 ADD DUP3 SWAP1 MSTORE POP SWAP4 DUP6 MSTORE POP POP CALLER PUSH1 0x20 SWAP4 DUP5 ADD MSTORE POP DUP4 SLOAD PUSH1 0x1 DUP2 DUP2 ADD DUP7 SSTORE SWAP5 DUP3 MSTORE SWAP1 DUP3 SWAP1 KECCAK256 DUP4 MLOAD PUSH1 0x4 SWAP1 SWAP3 MUL ADD SWAP1 DUP2 SSTORE SWAP1 DUP3 ADD MLOAD SWAP2 SWAP3 SWAP1 SWAP2 SWAP1 DUP3 ADD SWAP1 PUSH2 0xB9C SWAP1 DUP3 PUSH2 0x1268 JUMP JUMPDEST POP PUSH1 0x40 DUP3 ADD MLOAD PUSH1 0x2 DUP3 ADD SWAP1 PUSH2 0xBB1 SWAP1 DUP3 PUSH2 0x1268 JUMP JUMPDEST POP PUSH1 0x60 SWAP2 SWAP1 SWAP2 ADD MLOAD PUSH1 0x3 SWAP1 SWAP2 ADD DUP1 SLOAD PUSH1 0x1 PUSH1 0x1 PUSH1 0xA0 SHL SUB NOT AND PUSH1 0x1 PUSH1 0x1 PUSH1 0xA0 SHL SUB SWAP1 SWAP3 AND SWAP2 SWAP1 SWAP2 OR SWAP1 SSTORE PUSH1 0x40 MLOAD CALLER SWAP1 DUP8 SWAP1 PUSH32 0xDDF5168028249A8C8091DA3714CF08991EEB7792AF2F331FE75D004B555A838A SWAP1 PUSH2 0xC15 SWAP1 DUP10 SWAP1 DUP10 SWAP1 DUP10 SWAP1 DUP10 SWAP1 PUSH2 0x1351 JUMP JUMPDEST PUSH1 0x40 MLOAD DUP1 SWAP2 SUB SWAP1 LOG3 POP POP POP POP POP POP JUMP JUMPDEST PUSH1 0x0 SWAP2 DUP3 MSTORE PUSH1 0x20 DUP3 DUP2 MSTORE PUSH1 0x40 DUP1 DUP5 KECCAK256 PUSH1 0x1 PUSH1 0x1 PUSH1 0xA0 SHL SUB SWAP4 SWAP1 SWAP4 AND DUP5 MSTORE SWAP2 SWAP1 MSTORE SWAP1 KECCAK256 SLOAD PUSH1 0xFF AND SWAP1 JUMP JUMPDEST PUSH1 0x0 DUP1 MLOAD PUSH1 0x20 PUSH2 0x1490 DUP4 CODECOPY DUP2 MLOAD SWAP2 MSTORE PUSH2 0xC66 DUP2 PUSH2 0xD78 JUMP JUMPDEST PUSH1 0x7 DUP1 SLOAD PUSH1 0x0 SWAP2 DUP3 PUSH2 0xC77 DUP4 PUSH2 0x1383 JUMP JUMPDEST SWAP1 SWAP2 SSTORE POP PUSH1 0x1 SLOAD PUSH1 0x40 MLOAD PUSH4 0x28512065 PUSH1 0xE2 SHL DUP2 MSTORE PUSH1 0x1 PUSH1 0x1 PUSH1 0xA0 SHL SUB DUP10 DUP2 AND PUSH1 0x4 DUP4 ADD MSTORE PUSH1 0x24 DUP3 ADD DUP5 SWAP1 MSTORE SWAP3 SWAP4 POP SWAP2 AND SWAP1 PUSH4 0xA1448194 SWAP1 PUSH1 0x44 ADD PUSH1 0x0 PUSH1 0x40 MLOAD DUP1 DUP4 SUB DUP2 PUSH1 0x0 DUP8 DUP1 EXTCODESIZE ISZERO DUP1 ISZERO PUSH2 0xCCB JUMPI PUSH1 0x0 DUP1 REVERT JUMPDEST POP GAS CALL ISZERO DUP1 ISZERO PUSH2 0xCDF JUMPI RETURNDATASIZE PUSH1 0x0 DUP1 RETURNDATACOPY RETURNDATASIZE PUSH1 0x0 REVERT JUMPDEST POP POP POP PUSH1 0x0 DUP3 DUP2 MSTORE PUSH1 0x6 PUSH1 0x20 MSTORE PUSH1 0x40 SWAP1 KECCAK256 SWAP1 POP PUSH2 0xCFD DUP6 DUP8 DUP4 PUSH2 0x13AA JUMP JUMPDEST POP PUSH1 0x0 DUP2 DUP2 MSTORE PUSH1 0x6 PUSH1 0x20 MSTORE PUSH1 0x40 SWAP1 DUP2 SWAP1 KECCAK256 PUSH1 0x1 ADD DUP5 SWAP1 SSTORE MLOAD PUSH1 0x1 PUSH1 0x1 PUSH1 0xA0 SHL SUB DUP8 AND SWAP1 DUP3 SWAP1 PUSH32 0x17BFBB947CACA86AC77EA06397CED8C4F77A1A6C82A21B5A05A738CEDDC1F660 SWAP1 PUSH2 0xC15 SWAP1 DUP10 SWAP1 DUP10 SWAP1 DUP10 SWAP1 PUSH2 0x146B JUMP JUMPDEST PUSH1 0x0 DUP3 DUP2 MSTORE PUSH1 0x20 DUP2 SWAP1 MSTORE PUSH1 0x40 SWAP1 KECCAK256 PUSH1 0x1 ADD SLOAD PUSH2 0xD6E DUP2 PUSH2 0xD78 JUMP JUMPDEST PUSH2 0x3DD DUP4 DUP4 PUSH2 0xE17 JUMP JUMPDEST PUSH2 0xD82 DUP2 CALLER PUSH2 0xE82 JUMP JUMPDEST POP JUMP JUMPDEST PUSH1 0x0 PUSH2 0xD91 DUP4 DUP4 PUSH2 0xC25 JUMP JUMPDEST PUSH2 0xE0F JUMPI PUSH1 0x0 DUP4 DUP2 MSTORE PUSH1 0x20 DUP2 DUP2 MSTORE PUSH1 0x40 DUP1 DUP4 KECCAK256 PUSH1 0x1 PUSH1 0x1 PUSH1 0xA0 SHL SUB DUP7 AND DUP5 MSTORE SWAP1 SWAP2 MSTORE SWAP1 KECCAK256 DUP1 SLOAD PUSH1 0xFF NOT AND PUSH1 0x1 OR SWAP1 SSTORE PUSH2 0xDC7 CALLER SWAP1 JUMP JUMPDEST PUSH1 0x1 PUSH1 0x1 PUSH1 0xA0 SHL SUB AND DUP3 PUSH1 0x1 PUSH1 0x1 PUSH1 0xA0 SHL SUB AND DUP5 PUSH32 0x2F8788117E7EFF1D82E926EC794901D17C78024A50270940304540A733656F0D PUSH1 0x40 MLOAD PUSH1 0x40 MLOAD DUP1 SWAP2 SUB SWAP1 LOG4 POP PUSH1 0x1 PUSH2 0x36C JUMP JUMPDEST POP PUSH1 0x0 PUSH2 0x36C JUMP JUMPDEST PUSH1 0x0 PUSH2 0xE23 DUP4 DUP4 PUSH2 0xC25 JUMP JUMPDEST ISZERO PUSH2 0xE0F JUMPI PUSH1 0x0 DUP4 DUP2 MSTORE PUSH1 0x20 DUP2 DUP2 MSTORE PUSH1 0x40 DUP1 DUP4 KECCAK256 PUSH1 0x1 PUSH1 0x1 PUSH1 0xA0 SHL SUB DUP7 AND DUP1 DUP6 MSTORE SWAP3 MSTORE DUP1 DUP4 KECCAK256 DUP1 SLOAD PUSH1 0xFF NOT AND SWAP1 SSTORE MLOAD CALLER SWAP3 DUP7 SWAP2 PUSH32 0xF6391F5C32D9C69D2A47EA670B442974B53935D1EDC7FD64EB21E047A839171B SWAP2 SWAP1 LOG4 POP PUSH1 0x1 PUSH2 0x36C JUMP JUMPDEST PUSH2 0xE8C DUP3 DUP3 PUSH2 0xC25 JUMP JUMPDEST PUSH2 0x3B4 JUMPI PUSH1 0x40 MLOAD PUSH4 0xE2517D3F PUSH1 0xE0 SHL DUP2 MSTORE PUSH1 0x1 PUSH1 0x1 PUSH1 0xA0 SHL SUB DUP3 AND PUSH1 0x4 DUP3 ADD MSTORE PUSH1 0x24 DUP2 ADD DUP4 SWAP1 MSTORE PUSH1 0x44 ADD PUSH2 0x4FC JUMP JUMPDEST PUSH1 0x0 PUSH1 0x20 DUP3 DUP5 SUB SLT ISZERO PUSH2 0xECD JUMPI PUSH1 0x0 DUP1 REVERT JUMPDEST DUP2 CALLDATALOAD PUSH1 0x1 PUSH1 0x1 PUSH1 0xE0 SHL SUB NOT DUP2 AND DUP2 EQ PUSH2 0xEE5 JUMPI PUSH1 0x0 DUP1 REVERT JUMPDEST SWAP4 SWAP3 POP POP POP JUMP JUMPDEST PUSH1 0x1 PUSH1 0x1 PUSH1 0xA0 SHL SUB DUP2 AND DUP2 EQ PUSH2 0xD82 JUMPI PUSH1 0x0 DUP1 REVERT JUMPDEST PUSH1 0x0 PUSH1 0x20 DUP3 DUP5 SUB SLT ISZERO PUSH2 0xF13 JUMPI PUSH1 0x0 DUP1 REVERT JUMPDEST DUP2 CALLDATALOAD PUSH2 0xEE5 DUP2 PUSH2 0xEEC JUMP JUMPDEST PUSH1 0x0 PUSH1 0x20 DUP3 DUP5 SUB SLT ISZERO PUSH2 0xF30 JUMPI PUSH1 0x0 DUP1 REVERT JUMPDEST POP CALLDATALOAD SWAP2 SWAP1 POP JUMP JUMPDEST PUSH1 0x0 DUP1 PUSH1 0x40 DUP4 DUP6 SUB SLT ISZERO PUSH2 0xF4A JUMPI PUSH1 0x0 DUP1 REVERT JUMPDEST DUP3 CALLDATALOAD SWAP2 POP PUSH1 0x20 DUP4 ADD CALLDATALOAD PUSH2 0xF5C DUP2 PUSH2 0xEEC JUMP JUMPDEST DUP1 SWAP2 POP POP SWAP3 POP SWAP3 SWAP1 POP JUMP JUMPDEST PUSH1 0x0 DUP2 MLOAD DUP1 DUP5 MSTORE PUSH1 0x0 JUMPDEST DUP2 DUP2 LT ISZERO PUSH2 0xF8D JUMPI PUSH1 0x20 DUP2 DUP6 ADD DUP2 ADD MLOAD DUP7 DUP4 ADD DUP3 ADD MSTORE ADD PUSH2 0xF71 JUMP JUMPDEST POP PUSH1 0x0 PUSH1 0x20 DUP3 DUP7 ADD ADD MSTORE PUSH1 0x20 PUSH1 0x1F NOT PUSH1 0x1F DUP4 ADD AND DUP6 ADD ADD SWAP2 POP POP SWAP3 SWAP2 POP POP JUMP JUMPDEST PUSH1 0x40 DUP2 MSTORE PUSH1 0x0 PUSH2 0xFC0 PUSH1 0x40 DUP4 ADD DUP6 PUSH2 0xF67 JUMP JUMPDEST SWAP1 POP DUP3 PUSH1 0x20 DUP4 ADD MSTORE SWAP4 SWAP3 POP POP POP JUMP JUMPDEST PUSH1 0x0 DUP1 DUP4 PUSH1 0x1F DUP5 ADD SLT PUSH2 0xFE1 JUMPI PUSH1 0x0 DUP1 REVERT JUMPDEST POP DUP2 CALLDATALOAD PUSH8 0xFFFFFFFFFFFFFFFF DUP2 GT ISZERO PUSH2 0xFF9 JUMPI PUSH1 0x0 DUP1 REVERT JUMPDEST PUSH1 0x20 DUP4 ADD SWAP2 POP DUP4 PUSH1 0x20 DUP3 DUP6 ADD ADD GT ISZERO PUSH2 0x1011 JUMPI PUSH1 0x0 DUP1 REVERT JUMPDEST SWAP3 POP SWAP3 SWAP1 POP JUMP JUMPDEST PUSH1 0x0 DUP1 PUSH1 0x0 DUP1 PUSH1 0x0 PUSH1 0x60 DUP7 DUP9 SUB SLT ISZERO PUSH2 0x1030 JUMPI PUSH1 0x0 DUP1 REVERT JUMPDEST DUP6 CALLDATALOAD SWAP5 POP PUSH1 0x20 DUP7 ADD CALLDATALOAD PUSH8 0xFFFFFFFFFFFFFFFF DUP1 DUP3 GT ISZERO PUSH2 0x104F JUMPI PUSH1 0x0 DUP1 REVERT JUMPDEST PUSH2 0x105B DUP10 DUP4 DUP11 ADD PUSH2 0xFCF JUMP JUMPDEST SWAP1 SWAP7 POP SWAP5 POP PUSH1 0x40 DUP9 ADD CALLDATALOAD SWAP2 POP DUP1 DUP3 GT ISZERO PUSH2 0x1074 JUMPI PUSH1 0x0 DUP1 REVERT JUMPDEST POP PUSH2 0x1081 DUP9 DUP3 DUP10 ADD PUSH2 0xFCF JUMP JUMPDEST SWAP7 SWAP10 SWAP6 SWAP9 POP SWAP4 SWAP7 POP SWAP3 SWAP5 SWAP4 SWAP3 POP POP POP JUMP JUMPDEST PUSH1 0x0 DUP1 PUSH1 0x0 DUP1 PUSH1 0x60 DUP6 DUP8 SUB SLT ISZERO PUSH2 0x10A8 JUMPI PUSH1 0x0 DUP1 REVERT JUMPDEST DUP5 CALLDATALOAD PUSH2 0x10B3 DUP2 PUSH2 0xEEC JUMP JUMPDEST SWAP4 POP PUSH1 0x20 DUP6 ADD CALLDATALOAD PUSH8 0xFFFFFFFFFFFFFFFF DUP2 GT ISZERO PUSH2 0x10CF JUMPI PUSH1 0x0 DUP1 REVERT JUMPDEST PUSH2 0x10DB DUP8 DUP3 DUP9 ADD PUSH2 0xFCF JUMP JUMPDEST SWAP6 SWAP9 SWAP1 SWAP8 POP SWAP5 SWAP6 PUSH1 0x40 ADD CALLDATALOAD SWAP5 SWAP4 POP POP POP POP JUMP JUMPDEST PUSH1 0x0 PUSH1 0x20 DUP3 DUP5 SUB SLT ISZERO PUSH2 0x1100 JUMPI PUSH1 0x0 DUP1 REVERT JUMPDEST DUP2 MLOAD PUSH2 0xEE5 DUP2 PUSH2 0xEEC JUMP JUMPDEST PUSH1 0x1 DUP2 DUP2 SHR SWAP1 DUP3 AND DUP1 PUSH2 0x111F JUMPI PUSH1 0x7F DUP3 AND SWAP2 POP JUMPDEST PUSH1 0x20 DUP3 LT DUP2 SUB PUSH2 0x113F JUMPI PUSH4 0x4E487B71 PUSH1 0xE0 SHL PUSH1 0x0 MSTORE PUSH1 0x22 PUSH1 0x4 MSTORE PUSH1 0x24 PUSH1 0x0 REVERT JUMPDEST POP SWAP2 SWAP1 POP JUMP JUMPDEST PUSH1 0x0 DUP1 DUP4 SLOAD PUSH2 0x1153 DUP2 PUSH2 0x110B JUMP JUMPDEST PUSH1 0x1 DUP3 DUP2 AND DUP1 ISZERO PUSH2 0x116B JUMPI PUSH1 0x1 DUP2 EQ PUSH2 0x1180 JUMPI PUSH2 0x11AF JUMP JUMPDEST PUSH1 0xFF NOT DUP5 AND DUP8 MSTORE DUP3 ISZERO ISZERO DUP4 MUL DUP8 ADD SWAP5 POP PUSH2 0x11AF JUMP JUMPDEST DUP8 PUSH1 0x0 MSTORE PUSH1 0x20 DUP1 PUSH1 0x0 KECCAK256 PUSH1 0x0 JUMPDEST DUP6 DUP2 LT ISZERO PUSH2 0x11A6 JUMPI DUP2 SLOAD DUP11 DUP3 ADD MSTORE SWAP1 DUP5 ADD SWAP1 DUP3 ADD PUSH2 0x118D JUMP JUMPDEST POP POP POP DUP3 DUP8 ADD SWAP5 POP JUMPDEST POP SWAP3 SWAP7 SWAP6 POP POP POP POP POP POP JUMP JUMPDEST PUSH1 0x0 PUSH1 0x20 DUP3 DUP5 SUB SLT ISZERO PUSH2 0x11CD JUMPI PUSH1 0x0 DUP1 REVERT JUMPDEST POP MLOAD SWAP2 SWAP1 POP JUMP JUMPDEST PUSH1 0x1 DUP1 PUSH1 0xA0 SHL SUB DUP5 AND DUP2 MSTORE DUP3 PUSH1 0x20 DUP3 ADD MSTORE PUSH1 0x60 PUSH1 0x40 DUP3 ADD MSTORE PUSH1 0x0 PUSH2 0x11FB PUSH1 0x60 DUP4 ADD DUP5 PUSH2 0xF67 JUMP JUMPDEST SWAP6 SWAP5 POP POP POP POP POP JUMP JUMPDEST PUSH4 0x4E487B71 PUSH1 0xE0 SHL PUSH1 0x0 MSTORE PUSH1 0x41 PUSH1 0x4 MSTORE PUSH1 0x24 PUSH1 0x0 REVERT JUMPDEST PUSH1 0x1F DUP3 GT ISZERO PUSH2 0x416 JUMPI PUSH1 0x0 DUP2 DUP2 MSTORE PUSH1 0x20 DUP2 KECCAK256 PUSH1 0x1F DUP6 ADD PUSH1 0x5 SHR DUP2 ADD PUSH1 0x20 DUP7 LT ISZERO PUSH2 0x1241 JUMPI POP DUP1 JUMPDEST PUSH1 0x1F DUP6 ADD PUSH1 0x5 SHR DUP3 ADD SWAP2 POP JUMPDEST DUP2 DUP2 LT ISZERO PUSH2 0x1260 JUMPI DUP3 DUP2 SSTORE PUSH1 0x1 ADD PUSH2 0x124D JUMP JUMPDEST POP POP POP POP POP POP JUMP JUMPDEST DUP2 MLOAD PUSH8 0xFFFFFFFFFFFFFFFF DUP2 GT ISZERO PUSH2 0x1282 JUMPI PUSH2 0x1282 PUSH2 0x1204 JUMP JUMPDEST PUSH2 0x1296 DUP2 PUSH2 0x1290 DUP5 SLOAD PUSH2 0x110B JUMP JUMPDEST DUP5 PUSH2 0x121A JUMP JUMPDEST PUSH1 0x20 DUP1 PUSH1 0x1F DUP4 GT PUSH1 0x1 DUP2 EQ PUSH2 0x12CB JUMPI PUSH1 0x0 DUP5 ISZERO PUSH2 0x12B3 JUMPI POP DUP6 DUP4 ADD MLOAD JUMPDEST PUSH1 0x0 NOT PUSH1 0x3 DUP7 SWAP1 SHL SHR NOT AND PUSH1 0x1 DUP6 SWAP1 SHL OR DUP6 SSTORE PUSH2 0x1260 JUMP JUMPDEST PUSH1 0x0 DUP6 DUP2 MSTORE PUSH1 0x20 DUP2 KECCAK256 PUSH1 0x1F NOT DUP7 AND SWAP2 JUMPDEST DUP3 DUP2 LT ISZERO PUSH2 0x12FA JUMPI DUP9 DUP7 ADD MLOAD DUP3 SSTORE SWAP5 DUP5 ADD SWAP5 PUSH1 0x1 SWAP1 SWAP2 ADD SWAP1 DUP5 ADD PUSH2 0x12DB JUMP JUMPDEST POP DUP6 DUP3 LT ISZERO PUSH2 0x1318 JUMPI DUP8 DUP6 ADD MLOAD PUSH1 0x0 NOT PUSH1 0x3 DUP9 SWAP1 SHL PUSH1 0xF8 AND SHR NOT AND DUP2 SSTORE JUMPDEST POP POP POP POP POP PUSH1 0x1 SWAP1 DUP2 SHL ADD SWAP1 SSTORE POP JUMP JUMPDEST DUP2 DUP4 MSTORE DUP2 DUP2 PUSH1 0x20 DUP6 ADD CALLDATACOPY POP PUSH1 0x0 DUP3 DUP3 ADD PUSH1 0x20 SWAP1 DUP2 ADD SWAP2 SWAP1 SWAP2 MSTORE PUSH1 0x1F SWAP1 SWAP2 ADD PUSH1 0x1F NOT AND SWAP1 SWAP2 ADD ADD SWAP1 JUMP JUMPDEST PUSH1 0x40 DUP2 MSTORE PUSH1 0x0 PUSH2 0x1365 PUSH1 0x40 DUP4 ADD DUP7 DUP9 PUSH2 0x1328 JUMP JUMPDEST DUP3 DUP2 SUB PUSH1 0x20 DUP5 ADD MSTORE PUSH2 0x1378 DUP2 DUP6 DUP8 PUSH2 0x1328 JUMP JUMPDEST SWAP8 SWAP7 POP POP POP POP POP POP POP JUMP JUMPDEST PUSH1 0x0 PUSH1 0x1 DUP3 ADD PUSH2 0x13A3 JUMPI PUSH4 0x4E487B71 PUSH1 0xE0 SHL PUSH1 0x0 MSTORE PUSH1 0x11 PUSH1 0x4 MSTORE PUSH1 0x24 PUSH1 0x0 REVERT JUMPDEST POP PUSH1 0x1 ADD SWAP1 JUMP JUMPDEST PUSH8 0xFFFFFFFFFFFFFFFF DUP4 GT ISZERO PUSH2 0x13C2 JUMPI PUSH2 0x13C2 PUSH2 0x1204 JUMP JUMPDEST PUSH2 0x13D6 DUP4 PUSH2 0x13D0 DUP4 SLOAD PUSH2 0x110B JUMP JUMPDEST DUP4 PUSH2 0x121A JUMP JUMPDEST PUSH1 0x0 PUSH1 0x1F DUP5 GT PUSH1 0x1 DUP2 EQ PUSH2 0x140A JUMPI PUSH1 0x0 DUP6 ISZERO PUSH2 0x13F2 JUMPI POP DUP4 DUP3 ADD CALLDATALOAD JUMPDEST PUSH1 0x0 NOT PUSH1 0x3 DUP8 SWAP1 SHL SHR NOT AND PUSH1 0x1 DUP7 SWAP1 SHL OR DUP4 SSTORE PUSH2 0x1464 JUMP JUMPDEST PUSH1 0x0 DUP4 DUP2 MSTORE PUSH1 0x20 SWAP1 KECCAK256 PUSH1 0x1F NOT DUP7 AND SWAP1 DUP4 JUMPDEST DUP3 DUP2 LT ISZERO PUSH2 0x143B JUMPI DUP7 DUP6 ADD CALLDATALOAD DUP3 SSTORE PUSH1 0x20 SWAP5 DUP6 ADD SWAP5 PUSH1 0x1 SWAP1 SWAP3 ADD SWAP2 ADD PUSH2 0x141B JUMP JUMPDEST POP DUP7 DUP3 LT ISZERO PUSH2 0x1458 JUMPI PUSH1 0x0 NOT PUSH1 0xF8 DUP9 PUSH1 0x3 SHL AND SHR NOT DUP5 DUP8 ADD CALLDATALOAD AND DUP2 SSTORE JUMPDEST POP POP PUSH1 0x1 DUP6 PUSH1 0x1 SHL ADD DUP4 SSTORE JUMPDEST POP POP POP POP POP JUMP JUMPDEST PUSH1 0x40 DUP2 MSTORE PUSH1 0x0 PUSH2 0x147F PUSH1 0x40 DUP4 ADD DUP6 DUP8 PUSH2 0x1328 JUMP JUMPDEST SWAP1 POP DUP3 PUSH1 0x20 DUP4 ADD MSTORE SWAP5 SWAP4 POP POP POP POP JUMP INVALID LOG4 SWAP9 SMOD KECCAK256 0x5C 0xE4 0xD3 SSTORE MULMOD 0x2E CREATE2 0xA8 LOG1 DUP16 JUMP 0xE8 SWAP2 EXTCODECOPY DELEGATECALL LOG2 ADD 0xFB 0xE2 DUP8 DUP3 JUMPDEST MULMOD JUMP SWAP4 0xC2 OR PUSH22 0xA2646970667358221220AACAFC9EEDAE5337627429D4 0x1E PUSH32 0x7405EB98158CE7CFC5FCDBF8C112ECDC60D764736F6C63430008140033608060 BLOCKHASH MSTORE CALLVALUE DUP1 ISZERO PUSH3 0x11 JUMPI PUSH1 0x0 DUP1 REVERT JUMPDEST POP PUSH1 0x40 MLOAD PUSH3 0x13B4 CODESIZE SUB DUP1 PUSH3 0x13B4 DUP4 CODECOPY DUP2 ADD PUSH1 0x40 DUP2 SWAP1 MSTORE PUSH3 0x34 SWAP2 PUSH3 0x12F JUMP JUMPDEST DUP1 PUSH1 0x40 MLOAD DUP1 PUSH1 0x40 ADD PUSH1 0x40 MSTORE DUP1 PUSH1 0xE DUP2 MSTORE PUSH1 0x20 ADD PUSH14 0x121A59DA15985B1D59505CDCD95D PUSH1 0x92 SHL DUP2 MSTORE POP PUSH1 0x40 MLOAD DUP1 PUSH1 0x40 ADD PUSH1 0x40 MSTORE DUP1 PUSH1 0x3 DUP2 MSTORE PUSH1 0x20 ADD PUSH3 0x485641 PUSH1 0xE8 SHL DUP2 MSTORE POP DUP2 PUSH1 0x0 SWAP1 DUP2 PUSH3 0x89 SWAP2 SWAP1 PUSH3 0x206 JUMP JUMPDEST POP PUSH1 0x1 PUSH3 0x98 DUP3 DUP3 PUSH3 0x206 JUMP JUMPDEST POP POP POP PUSH1 0x1 PUSH1 0x1 PUSH1 0xA0 SHL SUB DUP2 AND PUSH3 0xCA JUMPI PUSH1 0x40 MLOAD PUSH4 0x1E4FBDF7 PUSH1 0xE0 SHL DUP2 MSTORE PUSH1 0x0 PUSH1 0x4 DUP3 ADD MSTORE PUSH1 0x24 ADD PUSH1 0x40 MLOAD DUP1 SWAP2 SUB SWAP1 REVERT JUMPDEST PUSH3 0xD5 DUP2 PUSH3 0xDD JUMP JUMPDEST POP POP PUSH3 0x2D2 JUMP JUMPDEST PUSH1 0x6 DUP1 SLOAD PUSH1 0x1 PUSH1 0x1 PUSH1 0xA0 SHL SUB DUP4 DUP2 AND PUSH1 0x1 PUSH1 0x1 PUSH1 0xA0 SHL SUB NOT DUP4 AND DUP2 OR SWAP1 SWAP4 SSTORE PUSH1 0x40 MLOAD SWAP2 AND SWAP2 SWAP1 DUP3 SWAP1 PUSH32 0x8BE0079C531659141344CD1FD0A4F28419497F9722A3DAAFE3B4186F6B6457E0 SWAP1 PUSH1 0x0 SWAP1 LOG3 POP POP JUMP JUMPDEST PUSH1 0x0 PUSH1 0x20 DUP3 DUP5 SUB SLT ISZERO PUSH3 0x142 JUMPI PUSH1 0x0 DUP1 REVERT JUMPDEST DUP2 MLOAD PUSH1 0x1 PUSH1 0x1 PUSH1 0xA0 SHL SUB DUP2 AND DUP2 EQ PUSH3 0x15A JUMPI PUSH1 0x0 DUP1 REVERT JUMPDEST SWAP4 SWAP3 POP POP POP JUMP JUMPDEST PUSH4 0x4E487B71 PUSH1 0xE0 SHL PUSH1 0x0 MSTORE PUSH1 0x41 PUSH1 0x4 MSTORE PUSH1 0x24 PUSH1 0x0 REVERT JUMPDEST PUSH1 0x1 DUP2 DUP2 SHR SWAP1 DUP3 AND DUP1 PUSH3 0x18C JUMPI PUSH1 0x7F DUP3 AND SWAP2 POP JUMPDEST PUSH1 0x20 DUP3 LT DUP2 SUB PUSH3 0x1AD JUMPI PUSH4 0x4E487B71 PUSH1 0xE0 SHL PUSH1 0x0 MSTORE PUSH1 0x22 PUSH1 0x4 MSTORE PUSH1 0x24 PUSH1 0x0 REVERT JUMPDEST POP SWAP2 SWAP1 POP JUMP JUMPDEST PUSH1 0x1F DUP3 GT ISZERO PUSH3 0x201 JUMPI PUSH1 0x0 DUP2 DUP2 MSTORE PUSH1 0x20 DUP2 KECCAK256 PUSH1 0x1F DUP6 ADD PUSH1 0x5 SHR DUP2 ADD PUSH1 0x20 DUP7 LT ISZERO PUSH3 0x1DC JUMPI POP DUP1 JUMPDEST PUSH1 0x1F DUP6 ADD PUSH1 0x5 SHR DUP3 ADD SWAP2 POP JUMPDEST DUP2 DUP2 LT ISZERO PUSH3 0x1FD JUMPI DUP3 DUP2 SSTORE PUSH1 0x1 ADD PUSH3 0x1E8 JUMP JUMPDEST POP POP POP JUMPDEST POP POP POP JUMP JUMPDEST DUP2 MLOAD PUSH1 0x1 PUSH1 0x1 PUSH1 0x40 SHL SUB DUP2 GT ISZERO PUSH3 0x222 JUMPI PUSH3 0x222 PUSH3 0x161 JUMP JUMPDEST PUSH3 0x23A DUP2 PUSH3 0x233 DUP5 SLOAD PUSH3 0x177 JUMP JUMPDEST DUP5 PUSH3 0x1B3 JUMP JUMPDEST PUSH1 0x20 DUP1 PUSH1 0x1F DUP4 GT PUSH1 0x1 DUP2 EQ PUSH3 0x272 JUMPI PUSH1 0x0 DUP5 ISZERO PUSH3 0x259 JUMPI POP DUP6 DUP4 ADD MLOAD JUMPDEST PUSH1 0x0 NOT PUSH1 0x3 DUP7 SWAP1 SHL SHR NOT AND PUSH1 0x1 DUP6 SWAP1 SHL OR DUP6 SSTORE PUSH3 0x1FD JUMP JUMPDEST PUSH1 0x0 DUP6 DUP2 MSTORE PUSH1 0x20 DUP2 KECCAK256 PUSH1 0x1F NOT DUP7 AND SWAP2 JUMPDEST DUP3 DUP2 LT ISZERO PUSH3 0x2A3 JUMPI DUP9 DUP7 ADD MLOAD DUP3 SSTORE SWAP5 DUP5 ADD SWAP5 PUSH1 0x1 SWAP1 SWAP2 ADD SWAP1 DUP5 ADD PUSH3 0x282 JUMP JUMPDEST POP DUP6 DUP3 LT ISZERO PUSH3 0x2C2 JUMPI DUP8 DUP6 ADD MLOAD PUSH1 0x0 NOT PUSH1 0x3 DUP9 SWAP1 SHL PUSH1 0xF8 AND SHR NOT AND DUP2 SSTORE JUMPDEST POP POP POP POP POP PUSH1 0x1 SWAP1 DUP2 SHL ADD SWAP1 SSTORE POP JUMP JUMPDEST PUSH2 0x10D2 DUP1 PUSH3 0x2E2 PUSH1 0x0 CODECOPY PUSH1 0x0 RETURN INVALID PUSH1 0x80 PUSH1 0x40 MSTORE CALLVALUE DUP1 ISZERO PUSH2 0x10 JUMPI PUSH1 0x0 DUP1 REVERT JUMPDEST POP PUSH1 0x4 CALLDATASIZE LT PUSH2 0x10B JUMPI PUSH1 0x0 CALLDATALOAD PUSH1 0xE0 SHR DUP1 PUSH4 0x715018A6 GT PUSH2 0xA2 JUMPI DUP1 PUSH4 0xA22CB465 GT PUSH2 0x71 JUMPI DUP1 PUSH4 0xA22CB465 EQ PUSH2 0x21B JUMPI DUP1 PUSH4 0xB88D4FDE EQ PUSH2 0x22E JUMPI DUP1 PUSH4 0xC87B56DD EQ PUSH2 0x241 JUMPI DUP1 PUSH4 0xE985E9C5 EQ PUSH2 0x254 JUMPI DUP1 PUSH4 0xF2FDE38B EQ PUSH2 0x267 JUMPI PUSH1 0x0 DUP1 REVERT JUMPDEST DUP1 PUSH4 0x715018A6 EQ PUSH2 0x1E7 JUMPI DUP1 PUSH4 0x8DA5CB5B EQ PUSH2 0x1EF JUMPI DUP1 PUSH4 0x95D89B41 EQ PUSH2 0x200 JUMPI DUP1 PUSH4 0xA1448194 EQ PUSH2 0x208 JUMPI PUSH1 0x0 DUP1 REVERT JUMPDEST DUP1 PUSH4 0x23B872DD GT PUSH2 0xDE JUMPI DUP1 PUSH4 0x23B872DD EQ PUSH2 0x18D JUMPI DUP1 PUSH4 0x42842E0E EQ PUSH2 0x1A0 JUMPI DUP1 PUSH4 0x6352211E EQ PUSH2 0x1B3 JUMPI DUP1 PUSH4 0x70A08231 EQ PUSH2 0x1C6 JUMPI PUSH1 0x0 DUP1 REVERT JUMPDEST DUP1 PUSH4 0x1FFC9A7 EQ PUSH2 0x110 JUMPI DUP1 PUSH4 0x6FDDE03 EQ PUSH2 0x138 JUMPI DUP1 PUSH4 0x81812FC EQ PUSH2 0x14D JUMPI DUP1 PUSH4 0x95EA7B3 EQ PUSH2 0x178 JUMPI JUMPDEST PUSH1 0x0 DUP1 REVERT JUMPDEST PUSH2 0x123 PUSH2 0x11E CALLDATASIZE PUSH1 0x4 PUSH2 0xD42 JUMP JUMPDEST PUSH2 0x27A JUMP JUMPDEST PUSH1 0x40 MLOAD SWAP1 ISZERO ISZERO DUP2 MSTORE PUSH1 0x20 ADD JUMPDEST PUSH1 0x40 MLOAD DUP1 SWAP2 SUB SWAP1 RETURN JUMPDEST PUSH2 0x140 PUSH2 0x2CC JUMP JUMPDEST PUSH1 0x40 MLOAD PUSH2 0x12F SWAP2 SWAP1 PUSH2 0xDAF JUMP JUMPDEST PUSH2 0x160 PUSH2 0x15B CALLDATASIZE PUSH1 0x4 PUSH2 0xDC2 JUMP JUMPDEST PUSH2 0x35E JUMP JUMPDEST PUSH1 0x40 MLOAD PUSH1 0x1 PUSH1 0x1 PUSH1 0xA0 SHL SUB SWAP1 SWAP2 AND DUP2 MSTORE PUSH1 0x20 ADD PUSH2 0x12F JUMP JUMPDEST PUSH2 0x18B PUSH2 0x186 CALLDATASIZE PUSH1 0x4 PUSH2 0xDF7 JUMP JUMPDEST PUSH2 0x387 JUMP JUMPDEST STOP JUMPDEST PUSH2 0x18B PUSH2 0x19B CALLDATASIZE PUSH1 0x4 PUSH2 0xE21 JUMP JUMPDEST PUSH2 0x396 JUMP JUMPDEST PUSH2 0x18B PUSH2 0x1AE CALLDATASIZE PUSH1 0x4 PUSH2 0xE21 JUMP JUMPDEST PUSH2 0x426 JUMP JUMPDEST PUSH2 0x160 PUSH2 0x1C1 CALLDATASIZE PUSH1 0x4 PUSH2 0xDC2 JUMP JUMPDEST PUSH2 0x446 JUMP JUMPDEST PUSH2 0x1D9 PUSH2 0x1D4 CALLDATASIZE PUSH1 0x4 PUSH2 0xE5D JUMP JUMPDEST PUSH2 0x451 JUMP JUMPDEST PUSH1 0x40 MLOAD SWAP1 DUP2 MSTORE PUSH1 0x20 ADD PUSH2 0x12F JUMP JUMPDEST PUSH2 0x18B PUSH2 0x499 JUMP JUMPDEST PUSH1 0x6 SLOAD PUSH1 0x1 PUSH1 0x1 PUSH1 0xA0 SHL SUB AND PUSH2 0x160 JUMP JUMPDEST PUSH2 0x140 PUSH2 0x4AD JUMP JUMPDEST PUSH2 0x18B PUSH2 0x216 CALLDATASIZE PUSH1 0x4 PUSH2 0xDF7 JUMP JUMPDEST PUSH2 0x4BC JUMP JUMPDEST PUSH2 0x18B PUSH2 0x229 CALLDATASIZE PUSH1 0x4 PUSH2 0xE78 JUMP JUMPDEST PUSH2 0x4CE JUMP JUMPDEST PUSH2 0x18B PUSH2 0x23C CALLDATASIZE PUSH1 0x4 PUSH2 0xECA JUMP JUMPDEST PUSH2 0x4D9 JUMP JUMPDEST PUSH2 0x140 PUSH2 0x24F CALLDATASIZE PUSH1 0x4 PUSH2 0xDC2 JUMP JUMPDEST PUSH2 0x4F1 JUMP JUMPDEST PUSH2 0x123 PUSH2 0x262 CALLDATASIZE PUSH1 0x4 PUSH2 0xFA6 JUMP JUMPDEST PUSH2 0x566 JUMP JUMPDEST PUSH2 0x18B PUSH2 0x275 CALLDATASIZE PUSH1 0x4 PUSH2 0xE5D JUMP JUMPDEST PUSH2 0x594 JUMP JUMPDEST PUSH1 0x0 PUSH1 0x1 PUSH1 0x1 PUSH1 0xE0 SHL SUB NOT DUP3 AND PUSH4 0x80AC58CD PUSH1 0xE0 SHL EQ DUP1 PUSH2 0x2AB JUMPI POP PUSH1 0x1 PUSH1 0x1 PUSH1 0xE0 SHL SUB NOT DUP3 AND PUSH4 0x5B5E139F PUSH1 0xE0 SHL EQ JUMPDEST DUP1 PUSH2 0x2C6 JUMPI POP PUSH4 0x1FFC9A7 PUSH1 0xE0 SHL PUSH1 0x1 PUSH1 0x1 PUSH1 0xE0 SHL SUB NOT DUP4 AND EQ JUMPDEST SWAP3 SWAP2 POP POP JUMP JUMPDEST PUSH1 0x60 PUSH1 0x0 DUP1 SLOAD PUSH2 0x2DB SWAP1 PUSH2 0xFD9 JUMP JUMPDEST DUP1 PUSH1 0x1F ADD PUSH1 0x20 DUP1 SWAP2 DIV MUL PUSH1 0x20 ADD PUSH1 0x40 MLOAD SWAP1 DUP2 ADD PUSH1 0x40 MSTORE DUP1 SWAP3 SWAP2 SWAP1 DUP2 DUP2 MSTORE PUSH1 0x20 ADD DUP3 DUP1 SLOAD PUSH2 0x307 SWAP1 PUSH2 0xFD9 JUMP JUMPDEST DUP1 ISZERO PUSH2 0x354 JUMPI DUP1 PUSH1 0x1F LT PUSH2 0x329 JUMPI PUSH2 0x100 DUP1 DUP4 SLOAD DIV MUL DUP4 MSTORE SWAP2 PUSH1 0x20 ADD SWAP2 PUSH2 0x354 JUMP JUMPDEST DUP3 ADD SWAP2 SWAP1 PUSH1 0x0 MSTORE PUSH1 0x20 PUSH1 0x0 KECCAK256 SWAP1 JUMPDEST DUP2 SLOAD DUP2 MSTORE SWAP1 PUSH1 0x1 ADD SWAP1 PUSH1 0x20 ADD DUP1 DUP4 GT PUSH2 0x337 JUMPI DUP3 SWAP1 SUB PUSH1 0x1F AND DUP3 ADD SWAP2 JUMPDEST POP POP POP POP POP SWAP1 POP SWAP1 JUMP JUMPDEST PUSH1 0x0 PUSH2 0x369 DUP3 PUSH2 0x5D2 JUMP JUMPDEST POP PUSH1 0x0 DUP3 DUP2 MSTORE PUSH1 0x4 PUSH1 0x20 MSTORE PUSH1 0x40 SWAP1 KECCAK256 SLOAD PUSH1 0x1 PUSH1 0x1 PUSH1 0xA0 SHL SUB AND PUSH2 0x2C6 JUMP JUMPDEST PUSH2 0x392 DUP3 DUP3 CALLER PUSH2 0x60B JUMP JUMPDEST POP POP JUMP JUMPDEST PUSH1 0x1 PUSH1 0x1 PUSH1 0xA0 SHL SUB DUP3 AND PUSH2 0x3C5 JUMPI PUSH1 0x40 MLOAD PUSH4 0x32505749 PUSH1 0xE1 SHL DUP2 MSTORE PUSH1 0x0 PUSH1 0x4 DUP3 ADD MSTORE PUSH1 0x24 ADD JUMPDEST PUSH1 0x40 MLOAD DUP1 SWAP2 SUB SWAP1 REVERT JUMPDEST PUSH1 0x0 PUSH2 0x3D2 DUP4 DUP4 CALLER PUSH2 0x618 JUMP JUMPDEST SWAP1 POP DUP4 PUSH1 0x1 PUSH1 0x1 PUSH1 0xA0 SHL SUB AND DUP2 PUSH1 0x1 PUSH1 0x1 PUSH1 0xA0 SHL SUB AND EQ PUSH2 0x420 JUMPI PUSH1 0x40 MLOAD PUSH4 0x64283D7B PUSH1 0xE0 SHL DUP2 MSTORE PUSH1 0x1 PUSH1 0x1 PUSH1 0xA0 SHL SUB DUP1 DUP7 AND PUSH1 0x4 DUP4 ADD MSTORE PUSH1 0x24 DUP3 ADD DUP5 SWAP1 MSTORE DUP3 AND PUSH1 0x44 DUP3 ADD MSTORE PUSH1 0x64 ADD PUSH2 0x3BC JUMP JUMPDEST POP POP POP POP JUMP JUMPDEST PUSH2 0x441 DUP4 DUP4 DUP4 PUSH1 0x40 MLOAD DUP1 PUSH1 0x20 ADD PUSH1 0x40 MSTORE DUP1 PUSH1 0x0 DUP2 MSTORE POP PUSH2 0x4D9 JUMP JUMPDEST POP POP POP JUMP JUMPDEST PUSH1 0x0 PUSH2 0x2C6 DUP3 PUSH2 0x5D2 JUMP JUMPDEST PUSH1 0x0 PUSH1 0x1 PUSH1 0x1 PUSH1 0xA0 SHL SUB DUP3 AND PUSH2 0x47D JUMPI PUSH1 0x40 MLOAD PUSH4 0x22718AD9 PUSH1 0xE2 SHL DUP2 MSTORE PUSH1 0x0 PUSH1 0x4 DUP3 ADD MSTORE PUSH1 0x24 ADD PUSH2 0x3BC JUMP JUMPDEST POP PUSH1 0x1 PUSH1 0x1 PUSH1 0xA0 SHL SUB AND PUSH1 0x0 SWAP1 DUP2 MSTORE PUSH1 0x3 PUSH1 0x20 MSTORE PUSH1 0x40 SWAP1 KECCAK256 SLOAD SWAP1 JUMP JUMPDEST PUSH2 0x4A1 PUSH2 0x711 JUMP JUMPDEST PUSH2 0x4AB PUSH1 0x0 PUSH2 0x73E JUMP JUMPDEST JUMP JUMPDEST PUSH1 0x60 PUSH1 0x1 DUP1 SLOAD PUSH2 0x2DB SWAP1 PUSH2 0xFD9 JUMP JUMPDEST PUSH2 0x4C4 PUSH2 0x711 JUMP JUMPDEST PUSH2 0x392 DUP3 DUP3 PUSH2 0x790 JUMP JUMPDEST PUSH2 0x392 CALLER DUP4 DUP4 PUSH2 0x7AA JUMP JUMPDEST PUSH2 0x4E4 DUP5 DUP5 DUP5 PUSH2 0x396 JUMP JUMPDEST PUSH2 0x420 CALLER DUP6 DUP6 DUP6 DUP6 PUSH2 0x849 JUMP JUMPDEST PUSH1 0x60 PUSH2 0x4FC DUP3 PUSH2 0x5D2 JUMP JUMPDEST POP PUSH1 0x0 PUSH2 0x514 PUSH1 0x40 DUP1 MLOAD PUSH1 0x20 DUP2 ADD SWAP1 SWAP2 MSTORE PUSH1 0x0 DUP2 MSTORE SWAP1 JUMP JUMPDEST SWAP1 POP PUSH1 0x0 DUP2 MLOAD GT PUSH2 0x534 JUMPI PUSH1 0x40 MLOAD DUP1 PUSH1 0x20 ADD PUSH1 0x40 MSTORE DUP1 PUSH1 0x0 DUP2 MSTORE POP PUSH2 0x55F JUMP JUMPDEST DUP1 PUSH2 0x53E DUP5 PUSH2 0x974 JUMP JUMPDEST PUSH1 0x40 MLOAD PUSH1 0x20 ADD PUSH2 0x54F SWAP3 SWAP2 SWAP1 PUSH2 0x1013 JUMP JUMPDEST PUSH1 0x40 MLOAD PUSH1 0x20 DUP2 DUP4 SUB SUB DUP2 MSTORE SWAP1 PUSH1 0x40 MSTORE JUMPDEST SWAP4 SWAP3 POP POP POP JUMP JUMPDEST PUSH1 0x1 PUSH1 0x1 PUSH1 0xA0 SHL SUB SWAP2 DUP3 AND PUSH1 0x0 SWAP1 DUP2 MSTORE PUSH1 0x5 PUSH1 0x20 SWAP1 DUP2 MSTORE PUSH1 0x40 DUP1 DUP4 KECCAK256 SWAP4 SWAP1 SWAP5 AND DUP3 MSTORE SWAP2 SWAP1 SWAP2 MSTORE KECCAK256 SLOAD PUSH1 0xFF AND SWAP1 JUMP JUMPDEST PUSH2 0x59C PUSH2 0x711 JUMP JUMPDEST PUSH1 0x1 PUSH1 0x1 PUSH1 0xA0 SHL SUB DUP2 AND PUSH2 0x5C6 JUMPI PUSH1 0x40 MLOAD PUSH4 0x1E4FBDF7 PUSH1 0xE0 SHL DUP2 MSTORE PUSH1 0x0 PUSH1 0x4 DUP3 ADD MSTORE PUSH1 0x24 ADD PUSH2 0x3BC JUMP JUMPDEST PUSH2 0x5CF DUP2 PUSH2 0x73E JUMP JUMPDEST POP JUMP JUMPDEST PUSH1 0x0 DUP2 DUP2 MSTORE PUSH1 0x2 PUSH1 0x20 MSTORE PUSH1 0x40 DUP2 KECCAK256 SLOAD PUSH1 0x1 PUSH1 0x1 PUSH1 0xA0 SHL SUB AND DUP1 PUSH2 0x2C6 JUMPI PUSH1 0x40 MLOAD PUSH4 0x7E273289 PUSH1 0xE0 SHL DUP2 MSTORE PUSH1 0x4 DUP2 ADD DUP5 SWAP1 MSTORE PUSH1 0x24 ADD PUSH2 0x3BC JUMP JUMPDEST PUSH2 0x441 DUP4 DUP4 DUP4 PUSH1 0x1 PUSH2 0xA07 JUMP JUMPDEST PUSH1 0x0 DUP3 DUP2 MSTORE PUSH1 0x2 PUSH1 0x20 MSTORE PUSH1 0x40 DUP2 KECCAK256 SLOAD PUSH1 0x1 PUSH1 0x1 PUSH1 0xA0 SHL SUB SWAP1 DUP2 AND SWAP1 DUP4 AND ISZERO PUSH2 0x645 JUMPI PUSH2 0x645 DUP2 DUP5 DUP7 PUSH2 0xB0D JUMP JUMPDEST PUSH1 0x1 PUSH1 0x1 PUSH1 0xA0 SHL SUB DUP2 AND ISZERO PUSH2 0x683 JUMPI PUSH2 0x662 PUSH1 0x0 DUP6 PUSH1 0x0 DUP1 PUSH2 0xA07 JUMP JUMPDEST PUSH1 0x1 PUSH1 0x1 PUSH1 0xA0 SHL SUB DUP2 AND PUSH1 0x0 SWAP1 DUP2 MSTORE PUSH1 0x3 PUSH1 0x20 MSTORE PUSH1 0x40 SWAP1 KECCAK256 DUP1 SLOAD PUSH1 0x0 NOT ADD SWAP1 SSTORE JUMPDEST PUSH1 0x1 PUSH1 0x1 PUSH1 0xA0 SHL SUB DUP6 AND ISZERO PUSH2 0x6B2 JUMPI PUSH1 0x1 PUSH1 0x1 PUSH1 0xA0 SHL SUB DUP6 AND PUSH1 0x0 SWAP1 DUP2 MSTORE PUSH1 0x3 PUSH1 0x20 MSTORE PUSH1 0x40 SWAP1 KECCAK256 DUP1 SLOAD PUSH1 0x1 ADD SWAP1 SSTORE JUMPDEST PUSH1 0x0 DUP5 DUP2 MSTORE PUSH1 0x2 PUSH1 0x20 MSTORE PUSH1 0x40 DUP1 DUP3 KECCAK256 DUP1 SLOAD PUSH1 0x1 PUSH1 0x1 PUSH1 0xA0 SHL SUB NOT AND PUSH1 0x1 PUSH1 0x1 PUSH1 0xA0 SHL SUB DUP10 DUP2 AND SWAP2 DUP3 OR SWAP1 SWAP3 SSTORE SWAP2 MLOAD DUP8 SWAP4 SWAP2 DUP6 AND SWAP2 PUSH32 0xDDF252AD1BE2C89B69C2B068FC378DAA952BA7F163C4A11628F55A4DF523B3EF SWAP2 LOG4 SWAP5 SWAP4 POP POP POP POP JUMP JUMPDEST PUSH1 0x6 SLOAD PUSH1 0x1 PUSH1 0x1 PUSH1 0xA0 SHL SUB AND CALLER EQ PUSH2 0x4AB JUMPI PUSH1 0x40 MLOAD PUSH4 0x118CDAA7 PUSH1 0xE0 SHL DUP2 MSTORE CALLER PUSH1 0x4 DUP3 ADD MSTORE PUSH1 0x24 ADD PUSH2 0x3BC JUMP JUMPDEST PUSH1 0x6 DUP1 SLOAD PUSH1 0x1 PUSH1 0x1 PUSH1 0xA0 SHL SUB DUP4 DUP2 AND PUSH1 0x1 PUSH1 0x1 PUSH1 0xA0 SHL SUB NOT DUP4 AND DUP2 OR SWAP1 SWAP4 SSTORE PUSH1 0x40 MLOAD SWAP2 AND SWAP2 SWAP1 DUP3 SWAP1 PUSH32 0x8BE0079C531659141344CD1FD0A4F28419497F9722A3DAAFE3B4186F6B6457E0 SWAP1 PUSH1 0x0 SWAP1 LOG3 POP POP JUMP JUMPDEST PUSH2 0x392 DUP3 DUP3 PUSH1 0x40 MLOAD DUP1 PUSH1 0x20 ADD PUSH1 0x40 MSTORE DUP1 PUSH1 0x0 DUP2 MSTORE POP PUSH2 0xB71 JUMP JUMPDEST PUSH1 0x1 PUSH1 0x1 PUSH1 0xA0 SHL SUB DUP3 AND PUSH2 0x7DC JUMPI PUSH1 0x40 MLOAD PUSH4 0xB611743 PUSH1 0xE3 SHL DUP2 MSTORE PUSH1 0x1 PUSH1 0x1 PUSH1 0xA0 SHL SUB DUP4 AND PUSH1 0x4 DUP3 ADD MSTORE PUSH1 0x24 ADD PUSH2 0x3BC JUMP JUMPDEST PUSH1 0x1 PUSH1 0x1 PUSH1 0xA0 SHL SUB DUP4 DUP2 AND PUSH1 0x0 DUP2 DUP2 MSTORE PUSH1 0x5 PUSH1 0x20 SWAP1 DUP2 MSTORE PUSH1 0x40 DUP1 DUP4 KECCAK256 SWAP5 DUP8 AND DUP1 DUP5 MSTORE SWAP5 DUP3 MSTORE SWAP2 DUP3 SWAP1 KECCAK256 DUP1 SLOAD PUSH1 0xFF NOT AND DUP7 ISZERO ISZERO SWAP1 DUP2 OR SWAP1 SWAP2 SSTORE SWAP2 MLOAD SWAP2 DUP3 MSTORE PUSH32 0x17307EAB39AB6107E8899845AD3D59BD9653F200F220920489CA2B5937696C31 SWAP2 ADD PUSH1 0x40 MLOAD DUP1 SWAP2 SUB SWAP1 LOG3 POP POP POP JUMP JUMPDEST PUSH1 0x1 PUSH1 0x1 PUSH1 0xA0 SHL SUB DUP4 AND EXTCODESIZE ISZERO PUSH2 0x96D JUMPI PUSH1 0x40 MLOAD PUSH4 0xA85BD01 PUSH1 0xE1 SHL DUP2 MSTORE PUSH1 0x1 PUSH1 0x1 PUSH1 0xA0 SHL SUB DUP5 AND SWAP1 PUSH4 0x150B7A02 SWAP1 PUSH2 0x88B SWAP1 DUP9 SWAP1 DUP9 SWAP1 DUP8 SWAP1 DUP8 SWAP1 PUSH1 0x4 ADD PUSH2 0x1042 JUMP JUMPDEST PUSH1 0x20 PUSH1 0x40 MLOAD DUP1 DUP4 SUB DUP2 PUSH1 0x0 DUP8 GAS CALL SWAP3 POP POP POP DUP1 ISZERO PUSH2 0x8C6 JUMPI POP PUSH1 0x40 DUP1 MLOAD PUSH1 0x1F RETURNDATASIZE SWAP1 DUP2 ADD PUSH1 0x1F NOT AND DUP3 ADD SWAP1 SWAP3 MSTORE PUSH2 0x8C3 SWAP2 DUP2 ADD SWAP1 PUSH2 0x107F JUMP JUMPDEST PUSH1 0x1 JUMPDEST PUSH2 0x92F JUMPI RETURNDATASIZE DUP1 DUP1 ISZERO PUSH2 0x8F4 JUMPI PUSH1 0x40 MLOAD SWAP2 POP PUSH1 0x1F NOT PUSH1 0x3F RETURNDATASIZE ADD AND DUP3 ADD PUSH1 0x40 MSTORE RETURNDATASIZE DUP3 MSTORE RETURNDATASIZE PUSH1 0x0 PUSH1 0x20 DUP5 ADD RETURNDATACOPY PUSH2 0x8F9 JUMP JUMPDEST PUSH1 0x60 SWAP2 POP JUMPDEST POP DUP1 MLOAD PUSH1 0x0 SUB PUSH2 0x927 JUMPI PUSH1 0x40 MLOAD PUSH4 0x32505749 PUSH1 0xE1 SHL DUP2 MSTORE PUSH1 0x1 PUSH1 0x1 PUSH1 0xA0 SHL SUB DUP6 AND PUSH1 0x4 DUP3 ADD MSTORE PUSH1 0x24 ADD PUSH2 0x3BC JUMP JUMPDEST DUP1 MLOAD DUP2 PUSH1 0x20 ADD REVERT JUMPDEST PUSH1 0x1 PUSH1 0x1 PUSH1 0xE0 SHL SUB NOT DUP2 AND PUSH4 0xA85BD01 PUSH1 0xE1 SHL EQ PUSH2 0x96B JUMPI PUSH1 0x40 MLOAD PUSH4 0x32505749 PUSH1 0xE1 SHL DUP2 MSTORE PUSH1 0x1 PUSH1 0x1 PUSH1 0xA0 SHL SUB DUP6 AND PUSH1 0x4 DUP3 ADD MSTORE PUSH1 0x24 ADD PUSH2 0x3BC JUMP JUMPDEST POP JUMPDEST POP POP POP POP POP JUMP JUMPDEST PUSH1 0x60 PUSH1 0x0 PUSH2 0x981 DUP4 PUSH2 0xB89 JUMP JUMPDEST PUSH1 0x1 ADD SWAP1 POP PUSH1 0x0 DUP2 PUSH8 0xFFFFFFFFFFFFFFFF DUP2 GT ISZERO PUSH2 0x9A1 JUMPI PUSH2 0x9A1 PUSH2 0xEB4 JUMP JUMPDEST PUSH1 0x40 MLOAD SWAP1 DUP1 DUP3 MSTORE DUP1 PUSH1 0x1F ADD PUSH1 0x1F NOT AND PUSH1 0x20 ADD DUP3 ADD PUSH1 0x40 MSTORE DUP1 ISZERO PUSH2 0x9CB JUMPI PUSH1 0x20 DUP3 ADD DUP2 DUP1 CALLDATASIZE DUP4 CALLDATACOPY ADD SWAP1 POP JUMPDEST POP SWAP1 POP DUP2 DUP2 ADD PUSH1 0x20 ADD JUMPDEST PUSH1 0x0 NOT ADD PUSH16 0x181899199A1A9B1B9C1CB0B131B232B3 PUSH1 0x81 SHL PUSH1 0xA DUP7 MOD BYTE DUP2 MSTORE8 PUSH1 0xA DUP6 DIV SWAP5 POP DUP5 PUSH2 0x9D5 JUMPI POP SWAP4 SWAP3 POP POP POP JUMP JUMPDEST DUP1 DUP1 PUSH2 0xA1B JUMPI POP PUSH1 0x1 PUSH1 0x1 PUSH1 0xA0 SHL SUB DUP3 AND ISZERO ISZERO JUMPDEST ISZERO PUSH2 0xADD JUMPI PUSH1 0x0 PUSH2 0xA2B DUP5 PUSH2 0x5D2 JUMP JUMPDEST SWAP1 POP PUSH1 0x1 PUSH1 0x1 PUSH1 0xA0 SHL SUB DUP4 AND ISZERO DUP1 ISZERO SWAP1 PUSH2 0xA57 JUMPI POP DUP3 PUSH1 0x1 PUSH1 0x1 PUSH1 0xA0 SHL SUB AND DUP2 PUSH1 0x1 PUSH1 0x1 PUSH1 0xA0 SHL SUB AND EQ ISZERO JUMPDEST DUP1 ISZERO PUSH2 0xA6A JUMPI POP PUSH2 0xA68 DUP2 DUP5 PUSH2 0x566 JUMP JUMPDEST ISZERO JUMPDEST ISZERO PUSH2 0xA93 JUMPI PUSH1 0x40 MLOAD PUSH4 0xA9FBF51F PUSH1 0xE0 SHL DUP2 MSTORE PUSH1 0x1 PUSH1 0x1 PUSH1 0xA0 SHL SUB DUP5 AND PUSH1 0x4 DUP3 ADD MSTORE PUSH1 0x24 ADD PUSH2 0x3BC JUMP JUMPDEST DUP2 ISZERO PUSH2 0xADB JUMPI DUP4 DUP6 PUSH1 0x1 PUSH1 0x1 PUSH1 0xA0 SHL SUB AND DUP3 PUSH1 0x1 PUSH1 0x1 PUSH1 0xA0 SHL SUB AND PUSH32 0x8C5BE1E5EBEC7D5BD14F71427D1E84F3DD0314C0F7B2291E5B200AC8C7C3B925 PUSH1 0x40 MLOAD PUSH1 0x40 MLOAD DUP1 SWAP2 SUB SWAP1 LOG4 JUMPDEST POP JUMPDEST POP POP PUSH1 0x0 SWAP1 DUP2 MSTORE PUSH1 0x4 PUSH1 0x20 MSTORE PUSH1 0x40 SWAP1 KECCAK256 DUP1 SLOAD PUSH1 0x1 PUSH1 0x1 PUSH1 0xA0 SHL SUB NOT AND PUSH1 0x1 PUSH1 0x1 PUSH1 0xA0 SHL SUB SWAP3 SWAP1 SWAP3 AND SWAP2 SWAP1 SWAP2 OR SWAP1 SSTORE JUMP JUMPDEST PUSH2 0xB18 DUP4 DUP4 DUP4 PUSH2 0xC61 JUMP JUMPDEST PUSH2 0x441 JUMPI PUSH1 0x1 PUSH1 0x1 PUSH1 0xA0 SHL SUB DUP4 AND PUSH2 0xB46 JUMPI PUSH1 0x40 MLOAD PUSH4 0x7E273289 PUSH1 0xE0 SHL DUP2 MSTORE PUSH1 0x4 DUP2 ADD DUP3 SWAP1 MSTORE PUSH1 0x24 ADD PUSH2 0x3BC JUMP JUMPDEST PUSH1 0x40 MLOAD PUSH4 0x177E802F PUSH1 0xE0 SHL DUP2 MSTORE PUSH1 0x1 PUSH1 0x1 PUSH1 0xA0 SHL SUB DUP4 AND PUSH1 0x4 DUP3 ADD MSTORE PUSH1 0x24 DUP2 ADD DUP3 SWAP1 MSTORE PUSH1 0x44 ADD PUSH2 0x3BC JUMP JUMPDEST PUSH2 0xB7B DUP4 DUP4 PUSH2 0xCC7 JUMP JUMPDEST PUSH2 0x441 CALLER PUSH1 0x0 DUP6 DUP6 DUP6 PUSH2 0x849 JUMP JUMPDEST PUSH1 0x0 DUP1 PUSH19 0x184F03E93FF9F4DAA797ED6E38ED64BF6A1F01 PUSH1 0x40 SHL DUP4 LT PUSH2 0xBC8 JUMPI PUSH19 0x184F03E93FF9F4DAA797ED6E38ED64BF6A1F01 PUSH1 0x40 SHL DUP4 DIV SWAP3 POP PUSH1 0x40 ADD JUMPDEST PUSH14 0x4EE2D6D415B85ACEF8100000000 DUP4 LT PUSH2 0xBF4 JUMPI PUSH14 0x4EE2D6D415B85ACEF8100000000 DUP4 DIV SWAP3 POP PUSH1 0x20 ADD JUMPDEST PUSH7 0x2386F26FC10000 DUP4 LT PUSH2 0xC12 JUMPI PUSH7 0x2386F26FC10000 DUP4 DIV SWAP3 POP PUSH1 0x10 ADD JUMPDEST PUSH4 0x5F5E100 DUP4 LT PUSH2 0xC2A JUMPI PUSH4 0x5F5E100 DUP4 DIV SWAP3 POP PUSH1 0x8 ADD JUMPDEST PUSH2 0x2710 DUP4 LT PUSH2 0xC3E JUMPI PUSH2 0x2710 DUP4 DIV SWAP3 POP PUSH1 0x4 ADD JUMPDEST PUSH1 0x64 DUP4 LT PUSH2 0xC50 JUMPI PUSH1 0x64 DUP4 DIV SWAP3 POP PUSH1 0x2 ADD JUMPDEST PUSH1 0xA DUP4 LT PUSH2 0x2C6 JUMPI PUSH1 0x1 ADD SWAP3 SWAP2 POP POP JUMP JUMPDEST PUSH1 0x0 PUSH1 0x1 PUSH1 0x1 PUSH1 0xA0 SHL SUB DUP4 AND ISZERO DUP1 ISZERO SWAP1 PUSH2 0xCBF JUMPI POP DUP3 PUSH1 0x1 PUSH1 0x1 PUSH1 0xA0 SHL SUB AND DUP5 PUSH1 0x1 PUSH1 0x1 PUSH1 0xA0 SHL SUB AND EQ DUP1 PUSH2 0xC9B JUMPI POP PUSH2 0xC9B DUP5 DUP5 PUSH2 0x566 JUMP JUMPDEST DUP1 PUSH2 0xCBF JUMPI POP PUSH1 0x0 DUP3 DUP2 MSTORE PUSH1 0x4 PUSH1 0x20 MSTORE PUSH1 0x40 SWAP1 KECCAK256 SLOAD PUSH1 0x1 PUSH1 0x1 PUSH1 0xA0 SHL SUB DUP5 DUP2 AND SWAP2 AND EQ JUMPDEST SWAP5 SWAP4 POP POP POP POP JUMP JUMPDEST PUSH1 0x1 PUSH1 0x1 PUSH1 0xA0 SHL SUB DUP3 AND PUSH2 0xCF1 JUMPI PUSH1 0x40 MLOAD PUSH4 0x32505749 PUSH1 0xE1 SHL DUP2 MSTORE PUSH1 0x0 PUSH1 0x4 DUP3 ADD MSTORE PUSH1 0x24 ADD PUSH2 0x3BC JUMP JUMPDEST PUSH1 0x0 PUSH2 0xCFF DUP4 DUP4 PUSH1 0x0 PUSH2 0x618 JUMP JUMPDEST SWAP1 POP PUSH1 0x1 PUSH1 0x1 PUSH1 0xA0 SHL SUB DUP2 AND ISZERO PUSH2 0x441 JUMPI PUSH1 0x40 MLOAD PUSH4 0x39E35637 PUSH1 0xE1 SHL DUP2 MSTORE PUSH1 0x0 PUSH1 0x4 DUP3 ADD MSTORE PUSH1 0x24 ADD PUSH2 0x3BC JUMP JUMPDEST PUSH1 0x1 PUSH1 0x1 PUSH1 0xE0 SHL SUB NOT DUP2 AND DUP2 EQ PUSH2 0x5CF JUMPI PUSH1 0x0 DUP1 REVERT JUMPDEST PUSH1 0x0 PUSH1 0x20 DUP3 DUP5 SUB SLT ISZERO PUSH2 0xD54 JUMPI PUSH1 0x0 DUP1 REVERT JUMPDEST DUP2 CALLDATALOAD PUSH2 0x55F DUP2 PUSH2 0xD2C JUMP JUMPDEST PUSH1 0x0 JUMPDEST DUP4 DUP2 LT ISZERO PUSH2 0xD7A JUMPI DUP2 DUP2 ADD MLOAD DUP4 DUP3 ADD MSTORE PUSH1 0x20 ADD PUSH2 0xD62 JUMP JUMPDEST POP POP PUSH1 0x0 SWAP2 ADD MSTORE JUMP JUMPDEST PUSH1 0x0 DUP2 MLOAD DUP1 DUP5 MSTORE PUSH2 0xD9B DUP2 PUSH1 0x20 DUP7 ADD PUSH1 0x20 DUP7 ADD PUSH2 0xD5F JUMP JUMPDEST PUSH1 0x1F ADD PUSH1 0x1F NOT AND SWAP3 SWAP1 SWAP3 ADD PUSH1 0x20 ADD SWAP3 SWAP2 POP POP JUMP JUMPDEST PUSH1 0x20 DUP2 MSTORE PUSH1 0x0 PUSH2 0x55F PUSH1 0x20 DUP4 ADD DUP5 PUSH2 0xD83 JUMP JUMPDEST PUSH1 0x0 PUSH1 0x20 DUP3 DUP5 SUB SLT ISZERO PUSH2 0xDD4 JUMPI PUSH1 0x0 DUP1 REVERT JUMPDEST POP CALLDATALOAD SWAP2 SWAP1 POP JUMP JUMPDEST DUP1 CALLDATALOAD PUSH1 0x1 PUSH1 0x1 PUSH1 0xA0 SHL SUB DUP2 AND DUP2 EQ PUSH2 0xDF2 JUMPI PUSH1 0x0 DUP1 REVERT JUMPDEST SWAP2 SWAP1 POP JUMP JUMPDEST PUSH1 0x0 DUP1 PUSH1 0x40 DUP4 DUP6 SUB SLT ISZERO PUSH2 0xE0A JUMPI PUSH1 0x0 DUP1 REVERT JUMPDEST PUSH2 0xE13 DUP4 PUSH2 0xDDB JUMP JUMPDEST SWAP5 PUSH1 0x20 SWAP4 SWAP1 SWAP4 ADD CALLDATALOAD SWAP4 POP POP POP JUMP JUMPDEST PUSH1 0x0 DUP1 PUSH1 0x0 PUSH1 0x60 DUP5 DUP7 SUB SLT ISZERO PUSH2 0xE36 JUMPI PUSH1 0x0 DUP1 REVERT JUMPDEST PUSH2 0xE3F DUP5 PUSH2 0xDDB JUMP JUMPDEST SWAP3 POP PUSH2 0xE4D PUSH1 0x20 DUP6 ADD PUSH2 0xDDB JUMP JUMPDEST SWAP2 POP PUSH1 0x40 DUP5 ADD CALLDATALOAD SWAP1 POP SWAP3 POP SWAP3 POP SWAP3 JUMP JUMPDEST PUSH1 0x0 PUSH1 0x20 DUP3 DUP5 SUB SLT ISZERO PUSH2 0xE6F JUMPI PUSH1 0x0 DUP1 REVERT JUMPDEST PUSH2 0x55F DUP3 PUSH2 0xDDB JUMP JUMPDEST PUSH1 0x0 DUP1 PUSH1 0x40 DUP4 DUP6 SUB SLT ISZERO PUSH2 0xE8B JUMPI PUSH1 0x0 DUP1 REVERT JUMPDEST PUSH2 0xE94 DUP4 PUSH2 0xDDB JUMP JUMPDEST SWAP2 POP PUSH1 0x20 DUP4 ADD CALLDATALOAD DUP1 ISZERO ISZERO DUP2 EQ PUSH2 0xEA9 JUMPI PUSH1 0x0 DUP1 REVERT JUMPDEST DUP1 SWAP2 POP POP SWAP3 POP SWAP3 SWAP1 POP JUMP JUMPDEST PUSH4 0x4E487B71 PUSH1 0xE0 SHL PUSH1 0x0 MSTORE PUSH1 0x41 PUSH1 0x4 MSTORE PUSH1 0x24 PUSH1 0x0 REVERT JUMPDEST PUSH1 0x0 DUP1 PUSH1 0x0 DUP1 PUSH1 0x80 DUP6 DUP8 SUB SLT ISZERO PUSH2 0xEE0 JUMPI PUSH1 0x0 DUP1 REVERT JUMPDEST PUSH2 0xEE9 DUP6 PUSH2 0xDDB JUMP JUMPDEST SWAP4 POP PUSH2 0xEF7 PUSH1 0x20 DUP7 ADD PUSH2 0xDDB JUMP JUMPDEST SWAP3 POP PUSH1 0x40 DUP6 ADD CALLDATALOAD SWAP2 POP PUSH1 0x60 DUP6 ADD CALLDATALOAD PUSH8 0xFFFFFFFFFFFFFFFF DUP1 DUP3 GT ISZERO PUSH2 0xF1B JUMPI PUSH1 0x0 DUP1 REVERT JUMPDEST DUP2 DUP8 ADD SWAP2 POP DUP8 PUSH1 0x1F DUP4 ADD SLT PUSH2 0xF2F JUMPI PUSH1 0x0 DUP1 REVERT JUMPDEST DUP2 CALLDATALOAD DUP2 DUP2 GT ISZERO PUSH2 0xF41 JUMPI PUSH2 0xF41 PUSH2 0xEB4 JUMP JUMPDEST PUSH1 0x40 MLOAD PUSH1 0x1F DUP3 ADD PUSH1 0x1F NOT SWAP1 DUP2 AND PUSH1 0x3F ADD AND DUP2 ADD SWAP1 DUP4 DUP3 GT DUP2 DUP4 LT OR ISZERO PUSH2 0xF69 JUMPI PUSH2 0xF69 PUSH2 0xEB4 JUMP JUMPDEST DUP2 PUSH1 0x40 MSTORE DUP3 DUP2 MSTORE DUP11 PUSH1 0x20 DUP5 DUP8 ADD ADD GT ISZERO PUSH2 0xF82 JUMPI PUSH1 0x0 DUP1 REVERT JUMPDEST DUP3 PUSH1 0x20 DUP7 ADD PUSH1 0x20 DUP4 ADD CALLDATACOPY PUSH1 0x0 PUSH1 0x20 DUP5 DUP4 ADD ADD MSTORE DUP1 SWAP6 POP POP POP POP POP POP SWAP3 SWAP6 SWAP2 SWAP5 POP SWAP3 POP JUMP JUMPDEST PUSH1 0x0 DUP1 PUSH1 0x40 DUP4 DUP6 SUB SLT ISZERO PUSH2 0xFB9 JUMPI PUSH1 0x0 DUP1 REVERT JUMPDEST PUSH2 0xFC2 DUP4 PUSH2 0xDDB JUMP JUMPDEST SWAP2 POP PUSH2 0xFD0 PUSH1 0x20 DUP5 ADD PUSH2 0xDDB JUMP JUMPDEST SWAP1 POP SWAP3 POP SWAP3 SWAP1 POP JUMP JUMPDEST PUSH1 0x1 DUP2 DUP2 SHR SWAP1 DUP3 AND DUP1 PUSH2 0xFED JUMPI PUSH1 0x7F DUP3 AND SWAP2 POP JUMPDEST PUSH1 0x20 DUP3 LT DUP2 SUB PUSH2 0x100D JUMPI PUSH4 0x4E487B71 PUSH1 0xE0 SHL PUSH1 0x0 MSTORE PUSH1 0x22 PUSH1 0x4 MSTORE PUSH1 0x24 PUSH1 0x0 REVERT JUMPDEST POP SWAP2 SWAP1 POP JUMP JUMPDEST PUSH1 0x0 DUP4 MLOAD PUSH2 0x1025 DUP2 DUP5 PUSH1 0x20 DUP9 ADD PUSH2 0xD5F JUMP JUMPDEST DUP4 MLOAD SWAP1 DUP4 ADD SWAP1 PUSH2 0x1039 DUP2 DUP4 PUSH1 0x20 DUP9 ADD PUSH2 0xD5F JUMP JUMPDEST ADD SWAP5 SWAP4 POP POP POP POP JUMP JUMPDEST PUSH1 0x1 PUSH1 0x1 PUSH1 0xA0 SHL SUB DUP6 DUP2 AND DUP3 MSTORE DUP5 AND PUSH1 0x20 DUP3 ADD MSTORE PUSH1 0x40 DUP2 ADD DUP4 SWAP1 MSTORE PUSH1 0x80 PUSH1 0x60 DUP3 ADD DUP2 SWAP1 MSTORE PUSH1 0x0 SWAP1 PUSH2 0x1075 SWAP1 DUP4 ADD DUP5 PUSH2 0xD83 JUMP JUMPDEST SWAP7 SWAP6 POP POP POP POP POP POP JUMP JUMPDEST PUSH1 0x0 PUSH1 0x20 DUP3 DUP5 SUB SLT ISZERO PUSH2 0x1091 JUMPI PUSH1 0x0 DUP1 REVERT JUMPDEST DUP2 MLOAD PUSH2 0x55F DUP2 PUSH2 0xD2C JUMP INVALID LOG2 PUSH5 0x6970667358 0x22 SLT KECCAK256 0xCA SSTORE NOT AND SWAP11 DUP2 SWAP14 SWAP3 0xE4 0xD6 GASPRICE 0xF6 EXTCODEHASH PUSH8 0xFD4EA157752F7601 0xDE LOG1 AND 0x4A MLOAD 0xD5 DUP4 DUP11 0xBC 0xF PUSH5 0x736F6C6343 STOP ADDMOD EQ STOP CALLER "},"methodIdentifiers":{"ADMIN_ROLE()":"75b238fc","BANK_ROLE()":"0eb71432","CERTIFIED_PROFESSIONAL_ROLE()":"f22881db","DEFAULT_ADMIN_ROLE()":"a217fddf","addLifecycleEvent(uint256,string,string)":"6733c8e0","assetDataStore(uint256)":"46a7010f","assetNft()":"fe4da505","bankMultiSigWallet()":"846675e6","getRoleAdmin(bytes32)":"248a9ca3","grantBankRole(address)":"4039694f","grantCertifiedProfessionalRole(address)":"18c7e2b6","grantRole(bytes32,address)":"2f2ff15d","hasRole(bytes32,address)":"91d14854","highValueThreshold()":"026a3ff9","initiateTransfer(uint256,address)":"3a371b8e","registerNewAsset(address,string,uint256)":"9cd82df0","renounceRole(bytes32,address)":"36568abe","revokeRole(bytes32,address)":"d547741f","standardMultiSigWallet()":"6fb6ed6c","supportsInterface(bytes4)":"01ffc9a7","verifierOracle()":"25860e9f"}}}}}