{
  "_format": "hh-sol-artifact-1",
  "contractName": "MultiSigWallet",
  "sourceName": "contracts/MultiSigWallet.sol",
  "abi": [
    {
      "inputs": [
        {
          "internalType": "address[]",
          "name": "_signers",
          "type": "address[]"
        },
        {
          "internalType": "uint256",
          "name": "_requiredConfirmations",
          "type": "uint256"
        }
      ],
      "stateMutability": "nonpayable",
      "type": "constructor"
    },
    {
      "inputs": [
        {
          "internalType": "address",
          "name": "owner",
          "type": "address"
        }
      ],
      "name": "OwnableInvalidOwner",
      "type": "error"
    },
    {
      "inputs": [
        {
          "internalType": "address",
          "name": "account",
          "type": "address"
        }
      ],
      "name": "OwnableUnauthorizedAccount",
      "type": "error"
    },
    {
      "anonymous": false,
      "inputs": [
        {
          "indexed": true,
          "internalType": "address",
          "name": "sender",
          "type": "address"
        },
        {
          "indexed": false,
          "internalType": "uint256",
          "name": "amount",
          "type": "uint256"
        }
      ],
      "name": "Deposit",
      "type": "event"
    },
    {
      "anonymous": false,
      "inputs": [
        {
          "indexed": true,
          "internalType": "address",
          "name": "previousOwner",
          "type": "address"
        },
        {
          "indexed": true,
          "internalType": "address",
          "name": "newOwner",
          "type": "address"
        }
      ],
      "name": "OwnershipTransferred",
      "type": "event"
    },
    {
      "anonymous": false,
      "inputs": [
        {
          "indexed": true,
          "internalType": "uint256",
          "name": "transactionId",
          "type": "uint256"
        },
        {
          "indexed": true,
          "internalType": "address",
          "name": "signer",
          "type": "address"
        }
      ],
      "name": "TransactionConfirmed",
      "type": "event"
    },
    {
      "anonymous": false,
      "inputs": [
        {
          "indexed": true,
          "internalType": "uint256",
          "name": "transactionId",
          "type": "uint256"
        },
        {
          "indexed": true,
          "internalType": "address",
          "name": "to",
          "type": "address"
        },
        {
          "indexed": false,
          "internalType": "uint256",
          "name": "value",
          "type": "uint256"
        },
        {
          "indexed": false,
          "internalType": "bytes",
          "name": "data",
          "type": "bytes"
        }
      ],
      "name": "TransactionCreated",
      "type": "event"
    },
    {
      "anonymous": false,
      "inputs": [
        {
          "indexed": true,
          "internalType": "uint256",
          "name": "transactionId",
          "type": "uint256"
        }
      ],
      "name": "TransactionExecuted",
      "type": "event"
    },
    {
      "anonymous": false,
      "inputs": [
        {
          "indexed": true,
          "internalType": "uint256",
          "name": "transactionId",
          "type": "uint256"
        },
        {
          "indexed": true,
          "internalType": "address",
          "name": "signer",
          "type": "address"
        }
      ],
      "name": "TransactionRevoked",
      "type": "event"
    },
    {
      "inputs": [
        {
          "internalType": "uint256",
          "name": "transactionId",
          "type": "uint256"
        }
      ],
      "name": "confirmTransaction",
      "outputs": [],
      "stateMutability": "nonpayable",
      "type": "function"
    },
    {
      "inputs": [
        {
          "internalType": "address",
          "name": "to",
          "type": "address"
        },
        {
          "internalType": "uint256",
          "name": "value",
          "type": "uint256"
        },
        {
          "internalType": "bytes",
          "name": "data",
          "type": "bytes"
        }
      ],
      "name": "createTransaction",
      "outputs": [],
      "stateMutability": "nonpayable",
      "type": "function"
    },
    {
      "inputs": [],
      "name": "deposit",
      "outputs": [],
      "stateMutability": "payable",
      "type": "function"
    },
    {
      "inputs": [],
      "name": "getSigners",
      "outputs": [
        {
          "internalType": "address[]",
          "name": "",
          "type": "address[]"
        }
      ],
      "stateMutability": "view",
      "type": "function"
    },
    {
      "inputs": [
        {
          "internalType": "uint256",
          "name": "transactionId",
          "type": "uint256"
        }
      ],
      "name": "getTransaction",
      "outputs": [
        {
          "components": [
            {
              "internalType": "address",
              "name": "to",
              "type": "address"
            },
            {
              "internalType": "uint256",
              "name": "value",
              "type": "uint256"
            },
            {
              "internalType": "bytes",
              "name": "data",
              "type": "bytes"
            },
            {
              "internalType": "bool",
              "name": "executed",
              "type": "bool"
            },
            {
              "internalType": "uint256",
              "name": "confirmations",
              "type": "uint256"
            }
          ],
          "internalType": "struct MultiSigWallet.Transaction",
          "name": "",
          "type": "tuple"
        }
      ],
      "stateMutability": "view",
      "type": "function"
    },
    {
      "inputs": [
        {
          "internalType": "uint256",
          "name": "",
          "type": "uint256"
        },
        {
          "internalType": "address",
          "name": "",
          "type": "address"
        }
      ],
      "name": "isConfirmed",
      "outputs": [
        {
          "internalType": "bool",
          "name": "",
          "type": "bool"
        }
      ],
      "stateMutability": "view",
      "type": "function"
    },
    {
      "inputs": [
        {
          "internalType": "address",
          "name": "",
          "type": "address"
        }
      ],
      "name": "isSigner",
      "outputs": [
        {
          "internalType": "bool",
          "name": "",
          "type": "bool"
        }
      ],
      "stateMutability": "view",
      "type": "function"
    },
    {
      "inputs": [],
      "name": "owner",
      "outputs": [
        {
          "internalType": "address",
          "name": "",
          "type": "address"
        }
      ],
      "stateMutability": "view",
      "type": "function"
    },
    {
      "inputs": [],
      "name": "renounceOwnership",
      "outputs": [],
      "stateMutability": "nonpayable",
      "type": "function"
    },
    {
      "inputs": [],
      "name": "requiredConfirmations",
      "outputs": [
        {
          "internalType": "uint256",
          "name": "",
          "type": "uint256"
        }
      ],
      "stateMutability": "view",
      "type": "function"
    },
    {
      "inputs": [
        {
          "internalType": "uint256",
          "name": "transactionId",
          "type": "uint256"
        }
      ],
      "name": "revokeConfirmation",
      "outputs": [],
      "stateMutability": "nonpayable",
      "type": "function"
    },
    {
      "inputs": [
        {
          "internalType": "uint256",
          "name": "",
          "type": "uint256"
        }
      ],
      "name": "signers",
      "outputs": [
        {
          "internalType": "address",
          "name": "",
          "type": "address"
        }
      ],
      "stateMutability": "view",
      "type": "function"
    },
    {
      "inputs": [],
      "name": "transactionCount",
      "outputs": [
        {
          "internalType": "uint256",
          "name": "",
          "type": "uint256"
        }
      ],
      "stateMutability": "view",
      "type": "function"
    },
    {
      "inputs": [
        {
          "internalType": "uint256",
          "name": "",
          "type": "uint256"
        }
      ],
      "name": "transactions",
      "outputs": [
        {
          "internalType": "address",
          "name": "to",
          "type": "address"
        },
        {
          "internalType": "uint256",
          "name": "value",
          "type": "uint256"
        },
        {
          "internalType": "bytes",
          "name": "data",
          "type": "bytes"
        },
        {
          "internalType": "bool",
          "name": "executed",
          "type": "bool"
        },
        {
          "internalType": "uint256",
          "name": "confirmations",
          "type": "uint256"
        }
      ],
      "stateMutability": "view",
      "type": "function"
    },
    {
      "inputs": [
        {
          "internalType": "address",
          "name": "newOwner",
          "type": "address"
        }
      ],
      "name": "transferOwnership",
      "outputs": [],
      "stateMutability": "nonpayable",
      "type": "function"
    }
  ],
  "bytecode": "0x60806040523480156200001157600080fd5b506040516200156f3803806200156f833981016040819052620000349162000308565b33806200005c57604051631e4fbdf760e01b8152600060048201526024015b60405180910390fd5b620000678162000285565b506000825111620000ae5760405162461bcd60e51b815260206004820152601060248201526f14da59db995c9cc81c995c5d5a5c995960821b604482015260640162000053565b600081118015620000c0575081518111155b6200011f5760405162461bcd60e51b815260206004820152602860248201527f496e76616c6964206e756d626572206f6620726571756972656420636f6e6669604482015267726d6174696f6e7360c01b606482015260840162000053565b60005b82518110156200027a576000838281518110620001435762000143620003e2565b6020026020010151905060006001600160a01b0316816001600160a01b031603620001a25760405162461bcd60e51b815260206004820152600e60248201526d24b73b30b634b21039b4b3b732b960911b604482015260640162000053565b6001600160a01b03811660009081526004602052604090205460ff1615620002005760405162461bcd60e51b815260206004820152601060248201526f223ab83634b1b0ba329039b4b3b732b960811b604482015260640162000053565b6003805460018181019092557fc2575a0e9e593c00f959f8c92f12db2869c3395a3b0502d05e2516446f71f85b0180546001600160a01b039093166001600160a01b031990931683179055600091825260046020526040909120805460ff19169091179055806200027181620003f8565b91505062000122565b506005555062000420565b600080546001600160a01b038381166001600160a01b0319831681178455604051919092169283917f8be0079c531659141344cd1fd0a4f28419497f9722a3daafe3b4186f6b6457e09190a35050565b634e487b7160e01b600052604160045260246000fd5b80516001600160a01b03811681146200030357600080fd5b919050565b600080604083850312156200031c57600080fd5b82516001600160401b03808211156200033457600080fd5b818501915085601f8301126200034957600080fd5b8151602082821115620003605762000360620002d5565b8160051b604051601f19603f83011681018181108682111715620003885762000388620002d5565b604052928352818301935084810182019289841115620003a757600080fd5b948201945b83861015620003d057620003c086620002eb565b85529482019493820193620003ac565b97909101519698969750505050505050565b634e487b7160e01b600052603260045260246000fd5b6000600182016200041957634e487b7160e01b600052601160045260246000fd5b5060010190565b61113f80620004306000396000f3fe6080604052600436106100e85760003560e01c80638da5cb5b1161008a578063b77bf60011610059578063b77bf600146102be578063c01a8c84146102d4578063d0e30db0146102f4578063f2fde38b146102fc57600080fd5b80638da5cb5b1461022d57806394cf795e1461024b5780639ace38c21461026d578063a9496e751461029e57600080fd5b8063715018a6116100c6578063715018a6146101795780637df73e271461018e57806380f59a65146101ce57806382e717f71461020957600080fd5b80632079fb9a146100ed57806320ea8d861461012a57806333ea3dc81461014c575b600080fd5b3480156100f957600080fd5b5061010d610108366004610c31565b61031c565b6040516001600160a01b0390911681526020015b60405180910390f35b34801561013657600080fd5b5061014a610145366004610c31565b610346565b005b34801561015857600080fd5b5061016c610167366004610c31565b610456565b6040516101219190610c90565b34801561018557600080fd5b5061014a61057e565b34801561019a57600080fd5b506101be6101a9366004610d06565b60046020526000908152604090205460ff1681565b6040519015158152602001610121565b3480156101da57600080fd5b506101be6101e9366004610d28565b600260209081526000928352604080842090915290825290205460ff1681565b34801561021557600080fd5b5061021f60055481565b604051908152602001610121565b34801561023957600080fd5b506000546001600160a01b031661010d565b34801561025757600080fd5b50610260610592565b6040516101219190610d54565b34801561027957600080fd5b5061028d610288366004610c31565b6105f4565b604051610121959493929190610da1565b3480156102aa57600080fd5b5061014a6102b9366004610df2565b6106bc565b3480156102ca57600080fd5b5061021f60065481565b3480156102e057600080fd5b5061014a6102ef366004610c31565b6107e4565b61014a610977565b34801561030857600080fd5b5061014a610317366004610d06565b6109ae565b6003818154811061032c57600080fd5b6000918252602090912001546001600160a01b0316905081565b3360009081526004602052604090205460ff1661037e5760405162461bcd60e51b815260040161037590610ebd565b60405180910390fd5b600081815260026020908152604080832033845290915290205460ff166103e75760405162461bcd60e51b815260206004820152601960248201527f5472616e73616374696f6e206e6f7420636f6e6669726d6564000000000000006044820152606401610375565b60008181526002602090815260408083203384528252808320805460ff191690558383526001909152812060040180549161042183610ef9565b9091555050604051339082907f4cd471041f6b9ff47536a54a3d3ab62d0fa9dd5e36c0418b294b1673acb3188190600090a350565b6104936040518060a0016040528060006001600160a01b031681526020016000815260200160608152602001600015158152602001600081525090565b600082815260016020818152604092839020835160a08101855281546001600160a01b03168152928101549183019190915260028101805492939192918401916104dc90610f10565b80601f016020809104026020016040519081016040528092919081815260200182805461050890610f10565b80156105555780601f1061052a57610100808354040283529160200191610555565b820191906000526020600020905b81548152906001019060200180831161053857829003601f168201915b5050509183525050600382015460ff161515602082015260049091015460409091015292915050565b6105866109e9565b6105906000610a16565b565b606060038054806020026020016040519081016040528092919081815260200182805480156105ea57602002820191906000526020600020905b81546001600160a01b031681526001909101906020018083116105cc575b5050505050905090565b60016020819052600091825260409091208054918101546002820180546001600160a01b039094169391929161062990610f10565b80601f016020809104026020016040519081016040528092919081815260200182805461065590610f10565b80156106a25780601f10610677576101008083540402835291602001916106a2565b820191906000526020600020905b81548152906001019060200180831161068557829003601f168201915b505050506003830154600490930154919260ff1691905085565b3360009081526004602052604090205460ff166106eb5760405162461bcd60e51b815260040161037590610ebd565b60068054600091826106fc83610f4a565b909155506040805160a0810182526001600160a01b03878116825260208083018881528385018881526000606086018190526080860181905287815260019384905295909520845181546001600160a01b0319169416939093178355519082015591519293509160028201906107729082610fb2565b50606082015160038201805460ff19169115159190911790556080909101516004909101556040516001600160a01b0385169082907f453e07a951b5abb44cc647534a150065e3a308fec0dc01fda6ca43a4984f835b906107d69087908790611072565b60405180910390a350505050565b3360009081526004602052604090205460ff166108135760405162461bcd60e51b815260040161037590610ebd565b6000818152600160205260409020546001600160a01b03166108775760405162461bcd60e51b815260206004820152601a60248201527f5472616e73616374696f6e20646f6573206e6f742065786973740000000000006044820152606401610375565b600081815260026020908152604080832033845290915290205460ff16156108e15760405162461bcd60e51b815260206004820152601d60248201527f5472616e73616374696f6e20616c726561647920636f6e6669726d65640000006044820152606401610375565b60008181526002602090815260408083203384528252808320805460ff19166001908117909155848452909152812060040180549161091f83610f4a565b9091555050604051339082907f15c2f311c9e0f53b50388279894aeff029a3457884a6601e924fca879e12adcc90600090a3600554600082815260016020526040902060040154106109745761097481610a66565b50565b60405134815233907fe1fffcc4923d04b559f4d29a8bfc6cda04eb5b0d3c460751c2402c5c5cc9109c9060200160405180910390a2565b6109b66109e9565b6001600160a01b0381166109e057604051631e4fbdf760e01b815260006004820152602401610375565b61097481610a16565b6000546001600160a01b031633146105905760405163118cdaa760e01b8152336004820152602401610375565b600080546001600160a01b038381166001600160a01b0319831681178455604051919092169283917f8be0079c531659141344cd1fd0a4f28419497f9722a3daafe3b4186f6b6457e09190a35050565b6005546000828152600160205260409020600401541015610ac95760405162461bcd60e51b815260206004820152601860248201527f4e6f7420656e6f75676820636f6e6669726d6174696f6e7300000000000000006044820152606401610375565b60008181526001602052604090206003015460ff1615610b2b5760405162461bcd60e51b815260206004820152601c60248201527f5472616e73616374696f6e20616c7265616479206578656375746564000000006044820152606401610375565b600081815260016020819052604080832060038101805460ff19168417905580549281015491519093926001600160a01b03169190610b6e906002860190611093565b60006040518083038185875af1925050503d8060008114610bab576040519150601f19603f3d011682016040523d82523d6000602084013e610bb0565b606091505b5050905080610c015760405162461bcd60e51b815260206004820152601c60248201527f5472616e73616374696f6e20657865637574696f6e206661696c6564000000006044820152606401610375565b60405183907f15ed165a284872ea7017f03df402a0cadfbfab588320ffaf83f160c2f82781c790600090a2505050565b600060208284031215610c4357600080fd5b5035919050565b6000815180845260005b81811015610c7057602081850181015186830182015201610c54565b506000602082860101526020601f19601f83011685010191505092915050565b6020815260018060a01b038251166020820152602082015160408201526000604083015160a06060840152610cc860c0840182610c4a565b9050606084015115156080840152608084015160a08401528091505092915050565b80356001600160a01b0381168114610d0157600080fd5b919050565b600060208284031215610d1857600080fd5b610d2182610cea565b9392505050565b60008060408385031215610d3b57600080fd5b82359150610d4b60208401610cea565b90509250929050565b6020808252825182820181905260009190848201906040850190845b81811015610d955783516001600160a01b031683529284019291840191600101610d70565b50909695505050505050565b60018060a01b038616815284602082015260a060408201526000610dc860a0830186610c4a565b931515606083015250608001529392505050565b634e487b7160e01b600052604160045260246000fd5b600080600060608486031215610e0757600080fd5b610e1084610cea565b925060208401359150604084013567ffffffffffffffff80821115610e3457600080fd5b818601915086601f830112610e4857600080fd5b813581811115610e5a57610e5a610ddc565b604051601f8201601f19908116603f01168101908382118183101715610e8257610e82610ddc565b81604052828152896020848701011115610e9b57600080fd5b8260208601602083013760006020848301015280955050505050509250925092565b6020808252600c908201526b2737ba10309039b4b3b732b960a11b604082015260600190565b634e487b7160e01b600052601160045260246000fd5b600081610f0857610f08610ee3565b506000190190565b600181811c90821680610f2457607f821691505b602082108103610f4457634e487b7160e01b600052602260045260246000fd5b50919050565b600060018201610f5c57610f5c610ee3565b5060010190565b601f821115610fad57600081815260208120601f850160051c81016020861015610f8a5750805b601f850160051c820191505b81811015610fa957828155600101610f96565b5050505b505050565b815167ffffffffffffffff811115610fcc57610fcc610ddc565b610fe081610fda8454610f10565b84610f63565b602080601f8311600181146110155760008415610ffd5750858301515b600019600386901b1c1916600185901b178555610fa9565b600085815260208120601f198616915b8281101561104457888601518255948401946001909101908401611025565b50858210156110625787850151600019600388901b60f8161c191681555b5050505050600190811b01905550565b82815260406020820152600061108b6040830184610c4a565b949350505050565b60008083546110a181610f10565b600182811680156110b957600181146110ce576110fd565b60ff19841687528215158302870194506110fd565b8760005260208060002060005b858110156110f45781548a8201529084019082016110db565b50505082870194505b5092969550505050505056fea2646970667358221220302e5d02aba5e4dc8dbd61ef93428a89e5e59ee1a33001a889c72a05e0f03b6264736f6c63430008140033",
  "linkReferences": {},
  "deployedLinkReferences": {}
}