{
  "_format": "hh-sol-artifact-1",
  "contractName": "VerifierOracle",
  "sourceName": "contracts/VerifierOracle.sol",
  "abi": [
    {
      "anonymous": false,
      "inputs": [
        {
          "indexed": true,
          "internalType": "uint256",
          "name": "assetId",
          "type": "uint256"
        },
        {
          "indexed": false,
          "internalType": "uint256",
          "name": "valuation",
          "type": "uint256"
        },
        {
          "indexed": true,
          "internalType": "address",
          "name": "verifier",
          "type": "address"
        }
      ],
      "name": "ValuationSubmitted",
      "type": "event"
    },
    {
      "inputs": [
        {
          "internalType": "uint256",
          "name": "assetId",
          "type": "uint256"
        }
      ],
      "name": "getValuation",
      "outputs": [
        {
          "components": [
            {
              "internalType": "uint256",
              "name": "assetId",
              "type": "uint256"
            },
            {
              "internalType": "uint256",
              "name": "valuation",
              "type": "uint256"
            },
            {
              "internalType": "address",
              "name": "verifier",
              "type": "address"
            },
            {
              "internalType": "uint256",
              "name": "timestamp",
              "type": "uint256"
            }
          ],
          "internalType": "struct VerifierOracle.AssetValuation",
          "name": "",
          "type": "tuple"
        }
      ],
      "stateMutability": "view",
      "type": "function"
    },
    {
      "inputs": [
        {
          "internalType": "uint256",
          "name": "assetId",
          "type": "uint256"
        },
        {
          "internalType": "uint256",
          "name": "valuation",
          "type": "uint256"
        }
      ],
      "name": "submitValuation",
      "outputs": [],
      "stateMutability": "nonpayable",
      "type": "function"
    },
    {
      "inputs": [
        {
          "internalType": "uint256",
          "name": "",
          "type": "uint256"
        }
      ],
      "name": "valuations",
      "outputs": [
        {
          "internalType": "uint256",
          "name": "assetId",
          "type": "uint256"
        },
        {
          "internalType": "uint256",
          "name": "valuation",
          "type": "uint256"
        },
        {
          "internalType": "address",
          "name": "verifier",
          "type": "address"
        },
        {
          "internalType": "uint256",
          "name": "timestamp",
          "type": "uint256"
        }
      ],
      "stateMutability": "view",
      "type": "function"
    }
  ],
  "bytecode": "0x608060405234801561001057600080fd5b50610307806100206000396000f3fe608060405234801561001057600080fd5b50600436106100415760003560e01c8063370336b4146100465780633bd18a3b1461005b5780635d03d83e146100b3575b600080fd5b610059610054366004610296565b610123565b005b61006e6100693660046102b8565b610216565b6040516100aa919081518152602080830151908201526040808301516001600160a01b0316908201526060918201519181019190915260800190565b60405180910390f35b6100f46100c13660046102b8565b6000602081905290815260409020805460018201546002830154600390930154919290916001600160a01b039091169084565b6040516100aa949392919093845260208401929092526001600160a01b03166040830152606082015260800190565b600081116101775760405162461bcd60e51b815260206004820152601b60248201527f56616c756174696f6e206d75737420626520706f7369746976652e0000000000604482015260640160405180910390fd5b60408051608081018252838152602080820184815233838501818152426060860190815260008981528086528790209551865592516001860155516002850180546001600160a01b0319166001600160a01b0390921691909117905590516003909301929092559151838152909184917fd5353fa3ef94edce12f242792ba11c2031e4c4609965b830a9d193437b63f342910160405180910390a35050565b61024a6040518060800160405280600081526020016000815260200160006001600160a01b03168152602001600081525090565b506000908152602081815260409182902082516080810184528154815260018201549281019290925260028101546001600160a01b031692820192909252600390910154606082015290565b600080604083850312156102a957600080fd5b50508035926020909101359150565b6000602082840312156102ca57600080fd5b503591905056fea2646970667358221220efb5cc8b1f6a798695522dcc321f08c0ce24d9e6028092dd50abf5860ed1075664736f6c63430008140033",
  "linkReferences": {},
  "deployedLinkReferences": {}
}