{
  "_format": "hh-sol-artifact-1",
  "contractName": "AssetRegistry",
  "sourceName": "contracts/AssetRegistry.sol",
  "abi": [
    {
      "inputs": [
        {
          "internalType": "address",
          "name": "_standardMultiSigWalletAddress",
          "type": "address"
        },
        {
          "internalType": "address",
          "name": "_bankMultiSigWalletAddress",
          "type": "address"
        },
        {
          "internalType": "address",
          "name": "_verifierOracleAddress",
          "type": "address"
        },
        {
          "internalType": "uint256",
          "name": "_highValueThreshold",
          "type": "uint256"
        }
      ],
      "stateMutability": "nonpayable",
      "type": "constructor"
    },
    {
      "inputs": [],
      "name": "AccessControlBadConfirmation",
      "type": "error"
    },
    {
      "inputs": [
        {
          "internalType": "address",
          "name": "account",
          "type": "address"
        },
        {
          "internalType": "bytes32",
          "name": "neededRole",
          "type": "bytes32"
        }
      ],
      "name": "AccessControlUnauthorizedAccount",
      "type": "error"
    },
    {
      "anonymous": false,
      "inputs": [
        {
          "indexed": true,
          "internalType": "uint256",
          "name": "tokenId",
          "type": "uint256"
        },
        {
          "indexed": true,
          "internalType": "address",
          "name": "owner",
          "type": "address"
        },
        {
          "indexed": false,
          "internalType": "string",
          "name": "assetDetails",
          "type": "string"
        },
        {
          "indexed": false,
          "internalType": "uint256",
          "name": "value",
          "type": "uint256"
        }
      ],
      "name": "AssetRegistered",
      "type": "event"
    },
    {
      "anonymous": false,
      "inputs": [
        {
          "indexed": true,
          "internalType": "uint256",
          "name": "tokenId",
          "type": "uint256"
        },
        {
          "indexed": false,
          "internalType": "uint256",
          "name": "newValue",
          "type": "uint256"
        },
        {
          "indexed": true,
          "internalType": "address",
          "name": "updatedBy",
          "type": "address"
        }
      ],
      "name": "AssetValueUpdated",
      "type": "event"
    },
    {
      "anonymous": false,
      "inputs": [
        {
          "indexed": true,
          "internalType": "uint256",
          "name": "tokenId",
          "type": "uint256"
        },
        {
          "indexed": false,
          "internalType": "string",
          "name": "eventType",
          "type": "string"
        },
        {
          "indexed": false,
          "internalType": "string",
          "name": "description",
          "type": "string"
        },
        {
          "indexed": true,
          "internalType": "address",
          "name": "recordedBy",
          "type": "address"
        }
      ],
      "name": "LifecycleEventAdded",
      "type": "event"
    },
    {
      "anonymous": false,
      "inputs": [
        {
          "indexed": true,
          "internalType": "bytes32",
          "name": "role",
          "type": "bytes32"
        },
        {
          "indexed": true,
          "internalType": "bytes32",
          "name": "previousAdminRole",
          "type": "bytes32"
        },
        {
          "indexed": true,
          "internalType": "bytes32",
          "name": "newAdminRole",
          "type": "bytes32"
        }
      ],
      "name": "RoleAdminChanged",
      "type": "event"
    },
    {
      "anonymous": false,
      "inputs": [
        {
          "indexed": true,
          "internalType": "bytes32",
          "name": "role",
          "type": "bytes32"
        },
        {
          "indexed": true,
          "internalType": "address",
          "name": "account",
          "type": "address"
        },
        {
          "indexed": true,
          "internalType": "address",
          "name": "sender",
          "type": "address"
        }
      ],
      "name": "RoleGranted",
      "type": "event"
    },
    {
      "anonymous": false,
      "inputs": [
        {
          "indexed": true,
          "internalType": "bytes32",
          "name": "role",
          "type": "bytes32"
        },
        {
          "indexed": true,
          "internalType": "address",
          "name": "account",
          "type": "address"
        },
        {
          "indexed": true,
          "internalType": "address",
          "name": "sender",
          "type": "address"
        }
      ],
      "name": "RoleRevoked",
      "type": "event"
    },
    {
      "anonymous": false,
      "inputs": [
        {
          "indexed": true,
          "internalType": "uint256",
          "name": "tokenId",
          "type": "uint256"
        },
        {
          "indexed": true,
          "internalType": "address",
          "name": "from",
          "type": "address"
        },
        {
          "indexed": true,
          "internalType": "address",
          "name": "to",
          "type": "address"
        },
        {
          "indexed": false,
          "internalType": "address",
          "name": "multiSigWalletUsed",
          "type": "address"
        },
        {
          "indexed": false,
          "internalType": "uint256",
          "name": "multiSigTxId",
          "type": "uint256"
        }
      ],
      "name": "TransferInitiated",
      "type": "event"
    },
    {
      "inputs": [],
      "name": "ADMIN_ROLE",
      "outputs": [
        {
          "internalType": "bytes32",
          "name": "",
          "type": "bytes32"
        }
      ],
      "stateMutability": "view",
      "type": "function"
    },
    {
      "inputs": [],
      "name": "BANK_ROLE",
      "outputs": [
        {
          "internalType": "bytes32",
          "name": "",
          "type": "bytes32"
        }
      ],
      "stateMutability": "view",
      "type": "function"
    },
    {
      "inputs": [],
      "name": "CERTIFIED_PROFESSIONAL_ROLE",
      "outputs": [
        {
          "internalType": "bytes32",
          "name": "",
          "type": "bytes32"
        }
      ],
      "stateMutability": "view",
      "type": "function"
    },
    {
      "inputs": [],
      "name": "DEFAULT_ADMIN_ROLE",
      "outputs": [
        {
          "internalType": "bytes32",
          "name": "",
          "type": "bytes32"
        }
      ],
      "stateMutability": "view",
      "type": "function"
    },
    {
      "inputs": [
        {
          "internalType": "uint256",
          "name": "tokenId",
          "type": "uint256"
        },
        {
          "internalType": "string",
          "name": "eventType",
          "type": "string"
        },
        {
          "internalType": "string",
          "name": "description",
          "type": "string"
        }
      ],
      "name": "addLifecycleEvent",
      "outputs": [],
      "stateMutability": "nonpayable",
      "type": "function"
    },
    {
      "inputs": [
        {
          "internalType": "uint256",
          "name": "",
          "type": "uint256"
        }
      ],
      "name": "assetDataStore",
      "outputs": [
        {
          "internalType": "string",
          "name": "assetDetails",
          "type": "string"
        },
        {
          "internalType": "uint256",
          "name": "value",
          "type": "uint256"
        },
        {
          "internalType": "address",
          "name": "owner",
          "type": "address"
        },
        {
          "internalType": "bool",
          "name": "exists",
          "type": "bool"
        }
      ],
      "stateMutability": "view",
      "type": "function"
    },
    {
      "inputs": [],
      "name": "assetNft",
      "outputs": [
        {
          "internalType": "contract AssetNFT",
          "name": "",
          "type": "address"
        }
      ],
      "stateMutability": "view",
      "type": "function"
    },
    {
      "inputs": [],
      "name": "bankMultiSigWallet",
      "outputs": [
        {
          "internalType": "contract MultiSigWallet",
          "name": "",
          "type": "address"
        }
      ],
      "stateMutability": "view",
      "type": "function"
    },
    {
      "inputs": [
        {
          "internalType": "uint256",
          "name": "tokenId",
          "type": "uint256"
        }
      ],
      "name": "getAssetDataDebug",
      "outputs": [
        {
          "internalType": "string",
          "name": "assetDetails",
          "type": "string"
        },
        {
          "internalType": "uint256",
          "name": "value",
          "type": "uint256"
        },
        {
          "internalType": "address",
          "name": "owner",
          "type": "address"
        },
        {
          "internalType": "bool",
          "name": "exists",
          "type": "bool"
        },
        {
          "internalType": "uint256",
          "name": "eventsCount",
          "type": "uint256"
        }
      ],
      "stateMutability": "view",
      "type": "function"
    },
    {
      "inputs": [
        {
          "internalType": "uint256",
          "name": "tokenId",
          "type": "uint256"
        }
      ],
      "name": "getLifecycleEventCount",
      "outputs": [
        {
          "internalType": "uint256",
          "name": "",
          "type": "uint256"
        }
      ],
      "stateMutability": "view",
      "type": "function"
    },
    {
      "inputs": [
        {
          "internalType": "uint256",
          "name": "tokenId",
          "type": "uint256"
        }
      ],
      "name": "getLifecycleHistory",
      "outputs": [
        {
          "components": [
            {
              "internalType": "uint256",
              "name": "timestamp",
              "type": "uint256"
            },
            {
              "internalType": "string",
              "name": "eventType",
              "type": "string"
            },
            {
              "internalType": "string",
              "name": "description",
              "type": "string"
            },
            {
              "internalType": "address",
              "name": "recordedBy",
              "type": "address"
            }
          ],
          "internalType": "struct AssetRegistry.LifecycleEvent[]",
          "name": "",
          "type": "tuple[]"
        }
      ],
      "stateMutability": "view",
      "type": "function"
    },
    {
      "inputs": [
        {
          "internalType": "bytes32",
          "name": "role",
          "type": "bytes32"
        }
      ],
      "name": "getRoleAdmin",
      "outputs": [
        {
          "internalType": "bytes32",
          "name": "",
          "type": "bytes32"
        }
      ],
      "stateMutability": "view",
      "type": "function"
    },
    {
      "inputs": [
        {
          "internalType": "address",
          "name": "user",
          "type": "address"
        }
      ],
      "name": "grantBankRole",
      "outputs": [],
      "stateMutability": "nonpayable",
      "type": "function"
    },
    {
      "inputs": [
        {
          "internalType": "address",
          "name": "user",
          "type": "address"
        }
      ],
      "name": "grantCertifiedProfessionalRole",
      "outputs": [],
      "stateMutability": "nonpayable",
      "type": "function"
    },
    {
      "inputs": [
        {
          "internalType": "bytes32",
          "name": "role",
          "type": "bytes32"
        },
        {
          "internalType": "address",
          "name": "account",
          "type": "address"
        }
      ],
      "name": "grantRole",
      "outputs": [],
      "stateMutability": "nonpayable",
      "type": "function"
    },
    {
      "inputs": [
        {
          "internalType": "bytes32",
          "name": "role",
          "type": "bytes32"
        },
        {
          "internalType": "address",
          "name": "account",
          "type": "address"
        }
      ],
      "name": "hasRole",
      "outputs": [
        {
          "internalType": "bool",
          "name": "",
          "type": "bool"
        }
      ],
      "stateMutability": "view",
      "type": "function"
    },
    {
      "inputs": [],
      "name": "highValueThreshold",
      "outputs": [
        {
          "internalType": "uint256",
          "name": "",
          "type": "uint256"
        }
      ],
      "stateMutability": "view",
      "type": "function"
    },
    {
      "inputs": [
        {
          "internalType": "uint256",
          "name": "tokenId",
          "type": "uint256"
        },
        {
          "internalType": "address",
          "name": "to",
          "type": "address"
        }
      ],
      "name": "initiateTransfer",
      "outputs": [],
      "stateMutability": "nonpayable",
      "type": "function"
    },
    {
      "inputs": [
        {
          "internalType": "address",
          "name": "owner",
          "type": "address"
        },
        {
          "internalType": "string",
          "name": "assetDetails",
          "type": "string"
        },
        {
          "internalType": "uint256",
          "name": "value",
          "type": "uint256"
        }
      ],
      "name": "registerNewAsset",
      "outputs": [],
      "stateMutability": "nonpayable",
      "type": "function"
    },
    {
      "inputs": [
        {
          "internalType": "bytes32",
          "name": "role",
          "type": "bytes32"
        },
        {
          "internalType": "address",
          "name": "callerConfirmation",
          "type": "address"
        }
      ],
      "name": "renounceRole",
      "outputs": [],
      "stateMutability": "nonpayable",
      "type": "function"
    },
    {
      "inputs": [
        {
          "internalType": "bytes32",
          "name": "role",
          "type": "bytes32"
        },
        {
          "internalType": "address",
          "name": "account",
          "type": "address"
        }
      ],
      "name": "revokeRole",
      "outputs": [],
      "stateMutability": "nonpayable",
      "type": "function"
    },
    {
      "inputs": [],
      "name": "standardMultiSigWallet",
      "outputs": [
        {
          "internalType": "contract MultiSigWallet",
          "name": "",
          "type": "address"
        }
      ],
      "stateMutability": "view",
      "type": "function"
    },
    {
      "inputs": [
        {
          "internalType": "bytes4",
          "name": "interfaceId",
          "type": "bytes4"
        }
      ],
      "name": "supportsInterface",
      "outputs": [
        {
          "internalType": "bool",
          "name": "",
          "type": "bool"
        }
      ],
      "stateMutability": "view",
      "type": "function"
    },
    {
      "inputs": [
        {
          "internalType": "uint256",
          "name": "tokenId",
          "type": "uint256"
        },
        {
          "internalType": "uint256",
          "name": "newValue",
          "type": "uint256"
        }
      ],
      "name": "updateAssetValue",
      "outputs": [],
      "stateMutability": "nonpayable",
      "type": "function"
    },
    {
      "inputs": [],
      "name": "verifierOracle",
      "outputs": [
        {
          "internalType": "contract VerifierOracle",
          "name": "",
          "type": "address"
        }
      ],
      "stateMutability": "view",
      "type": "function"
    }
  ],
  "bytecode": "0x60806040523480156200001157600080fd5b5060405162003612380380620036128339810160408190526200003491620001dd565b6200004160003362000103565b506200006e7fa49807205ce4d355092ef5a8a18f56e8913cf4a201fbe287825b095693c217753362000103565b50306040516200007e90620001b2565b6001600160a01b039091168152602001604051809103906000f080158015620000ab573d6000803e3d6000fd5b50600180546001600160a01b03199081166001600160a01b039384161790915560028054821696831696909617909555600380548616948216949094179093556004805490941691909216179091556005556200022f565b6000828152602081815260408083206001600160a01b038516845290915281205460ff16620001a8576000838152602081815260408083206001600160a01b03861684529091529020805460ff191660011790556200015f3390565b6001600160a01b0316826001600160a01b0316847f2f8788117e7eff1d82e926ec794901d17c78024a50270940304540a733656f0d60405160405180910390a4506001620001ac565b5060005b92915050565b611a188062001bfa83390190565b80516001600160a01b0381168114620001d857600080fd5b919050565b60008060008060808587031215620001f457600080fd5b620001ff85620001c0565b93506200020f60208601620001c0565b92506200021f60408601620001c0565b6060959095015193969295505050565b6119bb806200023f6000396000f3fe608060405234801561001057600080fd5b50600436106101735760003560e01c806344fdd841116100de578063846675e611610097578063a217fddf11610071578063a217fddf1461038e578063d547741f14610396578063f22881db146103a9578063fe4da505146103be57600080fd5b8063846675e61461035557806391d14854146103685780639cd82df01461037b57600080fd5b806344fdd841146102c057806346a7010f146102e457806360c4dce3146103075780636733c8e01461031a5780636fb6ed6c1461032d57806375b238fc1461034057600080fd5b80632f2ff15d116101305780632f2ff15d14610241578063351cf1571461025457806336568abe146102745780633a371b8e146102875780634039694f1461029a57806341d4ae72146102ad57600080fd5b806301ffc9a714610178578063026a3ff9146101a05780630eb71432146101b757806318c7e2b6146101de578063248a9ca3146101f357806325860e9f14610216575b600080fd5b61018b6101863660046112c8565b6103d1565b60405190151581526020015b60405180910390f35b6101a960055481565b604051908152602001610197565b6101a97f591fa5458fe051cc8c02c405479bd38e00713c98dbd3db209d982048f1e638fa81565b6101f16101ec36600461130e565b610408565b005b6101a961020136600461132b565b60009081526020819052604090206001015490565b600454610229906001600160a01b031681565b6040516001600160a01b039091168152602001610197565b6101f161024f366004611344565b61043c565b61026761026236600461132b565b610467565b60405161019791906113ba565b6101f1610282366004611344565b610674565b6101f1610295366004611344565b6106ac565b6101f16102a836600461130e565b610b1f565b6101a96102bb36600461132b565b610b61565b6102d36102ce36600461132b565b610bcf565b60405161019795949392919061145f565b6102f76102f236600461132b565b610cb4565b604051610197949392919061149f565b6101f16103153660046114d9565b610d73565b6101f1610328366004611544565b610e3b565b600254610229906001600160a01b031681565b6101a960008051602061196683398151915281565b600354610229906001600160a01b031681565b61018b610376366004611344565b611007565b6101f16103893660046115be565b611030565b6101a9600081565b6101f16103a4366004611344565b611160565b6101a960008051602061194683398151915281565b600154610229906001600160a01b031681565b60006001600160e01b03198216637965db0b60e01b148061040257506301ffc9a760e01b6001600160e01b03198316145b92915050565b60008051602061196683398151915261042081611185565b6104386000805160206119468339815191528361043c565b5050565b60008281526020819052604090206001015461045781611185565b6104618383611192565b50505050565b60008181526006602052604090206004015460609060ff166104c75760405162461bcd60e51b8152602060048201526014602482015273105cdcd95d08191bd95cc81b9bdd08195e1a5cdd60621b60448201526064015b60405180910390fd5b600082815260066020908152604080832060030180548251818502810185019093528083529193909284015b828210156106695783829060005260206000209060040201604051806080016040529081600082015481526020016001820180546105309061161a565b80601f016020809104026020016040519081016040528092919081815260200182805461055c9061161a565b80156105a95780601f1061057e576101008083540402835291602001916105a9565b820191906000526020600020905b81548152906001019060200180831161058c57829003601f168201915b505050505081526020016002820180546105c29061161a565b80601f01602080910402602001604051908101604052809291908181526020018280546105ee9061161a565b801561063b5780601f106106105761010080835404028352916020019161063b565b820191906000526020600020905b81548152906001019060200180831161061e57829003601f168201915b5050509183525050600391909101546001600160a01b031660209182015290825260019290920191016104f3565b505050509050919050565b6001600160a01b038116331461069d5760405163334bd91960e11b815260040160405180910390fd5b6106a78282611224565b505050565b6001546040516331a9108f60e11b8152600481018490526000916001600160a01b031690636352211e90602401602060405180830381865afa1580156106f6573d6000803e3d6000fd5b505050506040513d601f19601f8201168201806040525081019061071a9190611654565b90506001600160a01b03811633146107915760405162461bcd60e51b815260206004820152603460248201527f417373657452656769737472793a2043616c6c6572206973206e6f74207468656044820152731037bbb732b91037b3103a3432903a37b5b2b71760611b60648201526084016104be565b6001600160a01b03821661080d5760405162461bcd60e51b815260206004820152603b60248201527f417373657452656769737472793a205472616e7366657220746f20746865207a60448201527f65726f2061646472657373206973206e6f7420616c6c6f7765642e000000000060648201526084016104be565b60008381526006602052604090206004015460ff1661087d5760405162461bcd60e51b815260206004820152602660248201527f4173736574206e6f74207265676973746572656420696e20417373657452656760448201526534b9ba393c9760d11b60648201526084016104be565b600554600084815260066020526040812060010154909110156108ac57506003546001600160a01b03166108ba565b506002546001600160a01b03165b60015460405163020604bf60e21b8152600481018690526001600160a01b0383811692169063081812fc90602401602060405180830381865afa158015610905573d6000803e3d6000fd5b505050506040513d601f19601f820116820180604052508101906109299190611654565b6001600160a01b0316146109af5760405162461bcd60e51b815260206004820152604160248201527f417373657452656769737472793a2043686f73656e204d756c7469536967576160448201527f6c6c6574206e6f7420617070726f76656420666f72207468697320746f6b656e6064820152601760f91b608482015260a4016104be565b604080516001600160a01b038481166024830152858116604483015260648083018890528351808403909101815260849092018352602080830180516001600160e01b0316632142170760e11b1790528351625bbdfb60e91b8152935192936000939286169263b77bf600926004808401939192918290030181865afa158015610a3d573d6000803e3d6000fd5b505050506040513d601f19601f82011682018060405250810190610a619190611671565b60015460405163a9496e7560e01b81529192506001600160a01b038086169263a9496e7592610a99921690600090879060040161168a565b600060405180830381600087803b158015610ab357600080fd5b505af1158015610ac7573d6000803e3d6000fd5b5050604080516001600160a01b03878116825260208201869052808a1694508816925089917fb1f1da2409dfb599a552eda8da9b1e1eac4b32365c9693efc526fd49a09dbfd8910160405180910390a4505050505050565b600080516020611966833981519152610b3781611185565b6104387f591fa5458fe051cc8c02c405479bd38e00713c98dbd3db209d982048f1e638fa8361043c565b60008181526006602052604081206004015460ff16610bb95760405162461bcd60e51b8152602060048201526014602482015273105cdcd95d08191bd95cc81b9bdd08195e1a5cdd60621b60448201526064016104be565b5060009081526006602052604090206003015490565b600081815260066020526040812060018101546002820154600483015460038401548454606096958695869586959294859492936001600160a01b039092169260ff909216918590610c209061161a565b80601f0160208091040260200160405190810160405280929190818152602001828054610c4c9061161a565b8015610c995780601f10610c6e57610100808354040283529160200191610c99565b820191906000526020600020905b815481529060010190602001808311610c7c57829003601f168201915b50505050509450955095509550955095505091939590929450565b600660205260009081526040902080548190610ccf9061161a565b80601f0160208091040260200160405190810160405280929190818152602001828054610cfb9061161a565b8015610d485780601f10610d1d57610100808354040283529160200191610d48565b820191906000526020600020905b815481529060010190602001808311610d2b57829003601f168201915b5050505060018301546002840154600490940154929390926001600160a01b03909116915060ff1684565b600080516020611946833981519152610d8b81611185565b60008381526006602052604090206004015460ff16610de45760405162461bcd60e51b815260206004820152601560248201527420b9b9b2ba103237b2b9903737ba1032bc34b9ba1760591b60448201526064016104be565b6000838152600660205260409081902060010183905551339084907f82b6df3291f9080d2207b3ac66e27fa5585a89223742610bef7d8da58fc590b790610e2e9086815260200190565b60405180910390a3505050565b600080516020611946833981519152610e5381611185565b60008681526006602052604090206004015460ff16610eac5760405162461bcd60e51b815260206004820152601560248201527420b9b9b2ba103237b2b9903737ba1032bc34b9ba1760591b60448201526064016104be565b60066000878152602001908152602001600020600301604051806080016040528042815260200187878080601f016020809104026020016040519081016040528093929190818152602001838380828437600092019190915250505090825250604080516020601f880181900481028201810190925286815291810191908790879081908401838280828437600092018290525093855250503360209384015250835460018181018655948252908290208351600490920201908155908201519192909190820190610f7e908261171e565b5060408201516002820190610f93908261171e565b5060609190910151600390910180546001600160a01b0319166001600160a01b03909216919091179055604051339087907fddf5168028249a8c8091da3714cf08991eeb7792af2f331fe75d004b555a838a90610ff7908990899089908990611807565b60405180910390a3505050505050565b6000918252602082815260408084206001600160a01b0393909316845291905290205460ff1690565b60008051602061196683398151915261104881611185565b600780546000918261105983611839565b90915550600154604051632851206560e21b81526001600160a01b0389811660048301526024820184905292935091169063a144819490604401600060405180830381600087803b1580156110ad57600080fd5b505af11580156110c1573d6000803e3d6000fd5b50505060008281526006602052604090209050806110e0868883611860565b5060018181018590556002820180546001600160a01b0319166001600160a01b038a1690811790915560048301805460ff191690921790915560405183907f17bfbb947caca86ac77ea06397ced8c4f77a1a6c82a21b5a05a738ceddc1f6609061114f908a908a908a90611921565b60405180910390a350505050505050565b60008281526020819052604090206001015461117b81611185565b6104618383611224565b61118f813361128f565b50565b600061119e8383611007565b61121c576000838152602081815260408083206001600160a01b03861684529091529020805460ff191660011790556111d43390565b6001600160a01b0316826001600160a01b0316847f2f8788117e7eff1d82e926ec794901d17c78024a50270940304540a733656f0d60405160405180910390a4506001610402565b506000610402565b60006112308383611007565b1561121c576000838152602081815260408083206001600160a01b0386168085529252808320805460ff1916905551339286917ff6391f5c32d9c69d2a47ea670b442974b53935d1edc7fd64eb21e047a839171b9190a4506001610402565b6112998282611007565b6104385760405163e2517d3f60e01b81526001600160a01b0382166004820152602481018390526044016104be565b6000602082840312156112da57600080fd5b81356001600160e01b0319811681146112f257600080fd5b9392505050565b6001600160a01b038116811461118f57600080fd5b60006020828403121561132057600080fd5b81356112f2816112f9565b60006020828403121561133d57600080fd5b5035919050565b6000806040838503121561135757600080fd5b823591506020830135611369816112f9565b809150509250929050565b6000815180845260005b8181101561139a5760208185018101518683018201520161137e565b506000602082860101526020601f19601f83011685010191505092915050565b60006020808301818452808551808352604092508286019150828160051b87010184880160005b8381101561145157603f19898403018552815160808151855288820151818a87015261140f82870182611374565b91505087820151858203898701526114278282611374565b6060938401516001600160a01b0316969093019590955250948701949250908601906001016113e1565b509098975050505050505050565b60a08152600061147260a0830188611374565b6020830196909652506001600160a01b039390931660408401529015156060830152608090910152919050565b6080815260006114b26080830187611374565b6020830195909552506001600160a01b039290921660408301521515606090910152919050565b600080604083850312156114ec57600080fd5b50508035926020909101359150565b60008083601f84011261150d57600080fd5b50813567ffffffffffffffff81111561152557600080fd5b60208301915083602082850101111561153d57600080fd5b9250929050565b60008060008060006060868803121561155c57600080fd5b85359450602086013567ffffffffffffffff8082111561157b57600080fd5b61158789838a016114fb565b909650945060408801359150808211156115a057600080fd5b506115ad888289016114fb565b969995985093965092949392505050565b600080600080606085870312156115d457600080fd5b84356115df816112f9565b9350602085013567ffffffffffffffff8111156115fb57600080fd5b611607878288016114fb565b9598909750949560400135949350505050565b600181811c9082168061162e57607f821691505b60208210810361164e57634e487b7160e01b600052602260045260246000fd5b50919050565b60006020828403121561166657600080fd5b81516112f2816112f9565b60006020828403121561168357600080fd5b5051919050565b60018060a01b03841681528260208201526060604082015260006116b16060830184611374565b95945050505050565b634e487b7160e01b600052604160045260246000fd5b601f8211156106a757600081815260208120601f850160051c810160208610156116f75750805b601f850160051c820191505b8181101561171657828155600101611703565b505050505050565b815167ffffffffffffffff811115611738576117386116ba565b61174c81611746845461161a565b846116d0565b602080601f83116001811461178157600084156117695750858301515b600019600386901b1c1916600185901b178555611716565b600085815260208120601f198616915b828110156117b057888601518255948401946001909101908401611791565b50858210156117ce5787850151600019600388901b60f8161c191681555b5050505050600190811b01905550565b81835281816020850137506000828201602090810191909152601f909101601f19169091010190565b60408152600061181b6040830186886117de565b828103602084015261182e8185876117de565b979650505050505050565b60006001820161185957634e487b7160e01b600052601160045260246000fd5b5060010190565b67ffffffffffffffff831115611878576118786116ba565b61188c83611886835461161a565b836116d0565b6000601f8411600181146118c057600085156118a85750838201355b600019600387901b1c1916600186901b17835561191a565b600083815260209020601f19861690835b828110156118f157868501358255602094850194600190920191016118d1565b508682101561190e5760001960f88860031b161c19848701351681555b505060018560011b0183555b5050505050565b6040815260006119356040830185876117de565b905082602083015294935050505056febdb3b186091af1eb1ae5c50fa0612c33068a4a081a418934ab31721be7069cd9a49807205ce4d355092ef5a8a18f56e8913cf4a201fbe287825b095693c21775a2646970667358221220ffedaeecfd0bea910275323e2328ad99a027c86d4b5b972921ff690a976e51f664736f6c6343000814003360806040523480156200001157600080fd5b5060405162001a1838038062001a18833981016040819052620000349162000191565b6040518060400160405280600e81526020016d121a59da15985b1d59505cdcd95d60921b8152506040518060400160405280600381526020016248564160e81b815250816000908162000088919062000268565b50600162000097828262000268565b50620000a991506000905082620000de565b50620000d67f9f2df0fed2c77648de5860a4cc508cd0818c85b8b8a1ab4ceeef8d981c8956a682620000de565b505062000334565b6000828152600a602090815260408083206001600160a01b038516845290915281205460ff1662000187576000838152600a602090815260408083206001600160a01b03861684529091529020805460ff191660011790556200013e3390565b6001600160a01b0316826001600160a01b0316847f2f8788117e7eff1d82e926ec794901d17c78024a50270940304540a733656f0d60405160405180910390a45060016200018b565b5060005b92915050565b600060208284031215620001a457600080fd5b81516001600160a01b0381168114620001bc57600080fd5b9392505050565b634e487b7160e01b600052604160045260246000fd5b600181811c90821680620001ee57607f821691505b6020821081036200020f57634e487b7160e01b600052602260045260246000fd5b50919050565b601f8211156200026357600081815260208120601f850160051c810160208610156200023e5750805b601f850160051c820191505b818110156200025f578281556001016200024a565b5050505b505050565b81516001600160401b03811115620002845762000284620001c3565b6200029c81620002958454620001d9565b8462000215565b602080601f831160018114620002d45760008415620002bb5750858301515b600019600386901b1c1916600185901b1785556200025f565b600085815260208120601f198616915b828110156200030557888601518255948401946001909101908401620002e4565b5085821015620003245787850151600019600388901b60f8161c191681555b5050505050600190811b01905550565b6116d480620003446000396000f3fe608060405234801561001057600080fd5b50600436106101585760003560e01c80636352211e116100c3578063a22cb4651161007c578063a22cb465146102dd578063b88d4fde146102f0578063c87b56dd14610303578063d539139314610316578063d547741f1461033d578063e985e9c51461035057600080fd5b80636352211e1461028157806370a082311461029457806391d14854146102a757806395d89b41146102ba578063a1448194146102c2578063a217fddf146102d557600080fd5b8063248a9ca311610115578063248a9ca3146101ff5780632f2ff15d146102225780632f745c591461023557806336568abe1461024857806342842e0e1461025b5780634f6ccce71461026e57600080fd5b806301ffc9a71461015d57806306fdde0314610185578063081812fc1461019a578063095ea7b3146101c557806318160ddd146101da57806323b872dd146101ec575b600080fd5b61017061016b3660046112d4565b610363565b60405190151581526020015b60405180910390f35b61018d610374565b60405161017c9190611341565b6101ad6101a8366004611354565b610406565b6040516001600160a01b03909116815260200161017c565b6101d86101d3366004611389565b61042f565b005b6008545b60405190815260200161017c565b6101d86101fa3660046113b3565b61043e565b6101de61020d366004611354565b6000908152600a602052604090206001015490565b6101d86102303660046113ef565b6104ce565b6101de610243366004611389565b6104f3565b6101d86102563660046113ef565b610558565b6101d86102693660046113b3565b610590565b6101de61027c366004611354565b6105ab565b6101ad61028f366004611354565b610604565b6101de6102a236600461141b565b61060f565b6101706102b53660046113ef565b610657565b61018d610682565b6101d86102d0366004611389565b610691565b6101de600081565b6101d86102eb366004611436565b6106c5565b6101d86102fe366004611488565b6106d0565b61018d610311366004611354565b6106e8565b6101de7f9f2df0fed2c77648de5860a4cc508cd0818c85b8b8a1ab4ceeef8d981c8956a681565b6101d861034b3660046113ef565b61075d565b61017061035e366004611564565b610782565b600061036e826107b0565b92915050565b6060600080546103839061158e565b80601f01602080910402602001604051908101604052809291908181526020018280546103af9061158e565b80156103fc5780601f106103d1576101008083540402835291602001916103fc565b820191906000526020600020905b8154815290600101906020018083116103df57829003601f168201915b5050505050905090565b6000610411826107d5565b506000828152600460205260409020546001600160a01b031661036e565b61043a82823361080e565b5050565b6001600160a01b03821661046d57604051633250574960e11b8152600060048201526024015b60405180910390fd5b600061047a83833361081b565b9050836001600160a01b0316816001600160a01b0316146104c8576040516364283d7b60e01b81526001600160a01b0380861660048301526024820184905282166044820152606401610464565b50505050565b6000828152600a60205260409020600101546104e9816108f0565b6104c883836108fd565b60006104fe8361060f565b821061052f5760405163295f44f760e21b81526001600160a01b038416600482015260248101839052604401610464565b506001600160a01b03919091166000908152600660209081526040808320938352929052205490565b6001600160a01b03811633146105815760405163334bd91960e11b815260040160405180910390fd5b61058b8282610991565b505050565b61058b838383604051806020016040528060008152506106d0565b60006105b660085490565b82106105df5760405163295f44f760e21b81526000600482015260248101839052604401610464565b600882815481106105f2576105f26115c8565b90600052602060002001549050919050565b600061036e826107d5565b60006001600160a01b03821661063b576040516322718ad960e21b815260006004820152602401610464565b506001600160a01b031660009081526003602052604090205490565b6000918252600a602090815260408084206001600160a01b0393909316845291905290205460ff1690565b6060600180546103839061158e565b7f9f2df0fed2c77648de5860a4cc508cd0818c85b8b8a1ab4ceeef8d981c8956a66106bb816108f0565b61058b83836109fe565b61043a338383610a18565b6106db84848461043e565b6104c83385858585610ab7565b60606106f3826107d5565b50600061070b60408051602081019091526000815290565b9050600081511161072b5760405180602001604052806000815250610756565b8061073584610be2565b6040516020016107469291906115de565b6040516020818303038152906040525b9392505050565b6000828152600a6020526040902060010154610778816108f0565b6104c88383610991565b6001600160a01b03918216600090815260056020908152604080832093909416825291909152205460ff1690565b60006001600160e01b03198216637965db0b60e01b148061036e575061036e82610c75565b6000818152600260205260408120546001600160a01b03168061036e57604051637e27328960e01b815260048101849052602401610464565b61058b8383836001610c9a565b600080610829858585610da0565b90506001600160a01b0381166108865761088184600880546000838152600960205260408120829055600182018355919091527ff3f7a9fe364faab93b216da50a3214154f22a0a2b415b23a84c8169e8b636ee30155565b6108a9565b846001600160a01b0316816001600160a01b0316146108a9576108a98185610e99565b6001600160a01b0385166108c5576108c084610f1a565b6108e8565b846001600160a01b0316816001600160a01b0316146108e8576108e88585610fc9565b949350505050565b6108fa8133611019565b50565b60006109098383610657565b610989576000838152600a602090815260408083206001600160a01b03861684529091529020805460ff191660011790556109413390565b6001600160a01b0316826001600160a01b0316847f2f8788117e7eff1d82e926ec794901d17c78024a50270940304540a733656f0d60405160405180910390a450600161036e565b50600061036e565b600061099d8383610657565b15610989576000838152600a602090815260408083206001600160a01b0386168085529252808320805460ff1916905551339286917ff6391f5c32d9c69d2a47ea670b442974b53935d1edc7fd64eb21e047a839171b9190a450600161036e565b61043a828260405180602001604052806000815250611052565b6001600160a01b038216610a4a57604051630b61174360e31b81526001600160a01b0383166004820152602401610464565b6001600160a01b03838116600081815260056020908152604080832094871680845294825291829020805460ff191686151590811790915591519182527f17307eab39ab6107e8899845ad3d59bd9653f200f220920489ca2b5937696c31910160405180910390a3505050565b6001600160a01b0383163b15610bdb57604051630a85bd0160e11b81526001600160a01b0384169063150b7a0290610af990889088908790879060040161160d565b6020604051808303816000875af1925050508015610b34575060408051601f3d908101601f19168201909252610b319181019061164a565b60015b610b9d573d808015610b62576040519150601f19603f3d011682016040523d82523d6000602084013e610b67565b606091505b508051600003610b9557604051633250574960e11b81526001600160a01b0385166004820152602401610464565b805181602001fd5b6001600160e01b03198116630a85bd0160e11b14610bd957604051633250574960e11b81526001600160a01b0385166004820152602401610464565b505b5050505050565b60606000610bef8361106a565b600101905060008167ffffffffffffffff811115610c0f57610c0f611472565b6040519080825280601f01601f191660200182016040528015610c39576020820181803683370190505b5090508181016020015b600019016f181899199a1a9b1b9c1cb0b131b232b360811b600a86061a8153600a8504945084610c4357509392505050565b60006001600160e01b0319821663780e9d6360e01b148061036e575061036e82611142565b8080610cae57506001600160a01b03821615155b15610d70576000610cbe846107d5565b90506001600160a01b03831615801590610cea5750826001600160a01b0316816001600160a01b031614155b8015610cfd5750610cfb8184610782565b155b15610d265760405163a9fbf51f60e01b81526001600160a01b0384166004820152602401610464565b8115610d6e5783856001600160a01b0316826001600160a01b03167f8c5be1e5ebec7d5bd14f71427d1e84f3dd0314c0f7b2291e5b200ac8c7c3b92560405160405180910390a45b505b5050600090815260046020526040902080546001600160a01b0319166001600160a01b0392909216919091179055565b6000828152600260205260408120546001600160a01b0390811690831615610dcd57610dcd818486611192565b6001600160a01b03811615610e0b57610dea600085600080610c9a565b6001600160a01b038116600090815260036020526040902080546000190190555b6001600160a01b03851615610e3a576001600160a01b0385166000908152600360205260409020805460010190555b60008481526002602052604080822080546001600160a01b0319166001600160a01b0389811691821790925591518793918516917fddf252ad1be2c89b69c2b068fc378daa952ba7f163c4a11628f55a4df523b3ef91a4949350505050565b6000610ea48361060f565b6000838152600760209081526040808320546001600160a01b0388168452600690925290912091925090818314610efb57600083815260208281526040808320548584528184208190558352600790915290208290555b6000938452600760209081526040808620869055938552525081205550565b600854600090610f2c90600190611667565b60008381526009602052604081205460088054939450909284908110610f5457610f546115c8565b906000526020600020015490508060088381548110610f7557610f756115c8565b6000918252602080832090910192909255828152600990915260408082208490558582528120556008805480610fad57610fad611688565b6001900381819060005260206000200160009055905550505050565b60006001610fd68461060f565b610fe09190611667565b6001600160a01b039093166000908152600660209081526040808320868452825280832085905593825260079052919091209190915550565b6110238282610657565b61043a5760405163e2517d3f60e01b81526001600160a01b038216600482015260248101839052604401610464565b61105c83836111f6565b61058b336000858585610ab7565b60008072184f03e93ff9f4daa797ed6e38ed64bf6a1f0160401b83106110a95772184f03e93ff9f4daa797ed6e38ed64bf6a1f0160401b830492506040015b6d04ee2d6d415b85acef810000000083106110d5576d04ee2d6d415b85acef8100000000830492506020015b662386f26fc1000083106110f357662386f26fc10000830492506010015b6305f5e100831061110b576305f5e100830492506008015b612710831061111f57612710830492506004015b60648310611131576064830492506002015b600a831061036e5760010192915050565b60006001600160e01b031982166380ac58cd60e01b148061117357506001600160e01b03198216635b5e139f60e01b145b8061036e57506301ffc9a760e01b6001600160e01b031983161461036e565b61119d83838361125b565b61058b576001600160a01b0383166111cb57604051637e27328960e01b815260048101829052602401610464565b60405163177e802f60e01b81526001600160a01b038316600482015260248101829052604401610464565b6001600160a01b03821661122057604051633250574960e11b815260006004820152602401610464565b600061122e8383600061081b565b90506001600160a01b0381161561058b576040516339e3563760e11b815260006004820152602401610464565b60006001600160a01b038316158015906108e85750826001600160a01b0316846001600160a01b0316148061129557506112958484610782565b806108e85750506000908152600460205260409020546001600160a01b03908116911614919050565b6001600160e01b0319811681146108fa57600080fd5b6000602082840312156112e657600080fd5b8135610756816112be565b60005b8381101561130c5781810151838201526020016112f4565b50506000910152565b6000815180845261132d8160208601602086016112f1565b601f01601f19169290920160200192915050565b6020815260006107566020830184611315565b60006020828403121561136657600080fd5b5035919050565b80356001600160a01b038116811461138457600080fd5b919050565b6000806040838503121561139c57600080fd5b6113a58361136d565b946020939093013593505050565b6000806000606084860312156113c857600080fd5b6113d18461136d565b92506113df6020850161136d565b9150604084013590509250925092565b6000806040838503121561140257600080fd5b823591506114126020840161136d565b90509250929050565b60006020828403121561142d57600080fd5b6107568261136d565b6000806040838503121561144957600080fd5b6114528361136d565b91506020830135801515811461146757600080fd5b809150509250929050565b634e487b7160e01b600052604160045260246000fd5b6000806000806080858703121561149e57600080fd5b6114a78561136d565b93506114b56020860161136d565b925060408501359150606085013567ffffffffffffffff808211156114d957600080fd5b818701915087601f8301126114ed57600080fd5b8135818111156114ff576114ff611472565b604051601f8201601f19908116603f0116810190838211818310171561152757611527611472565b816040528281528a602084870101111561154057600080fd5b82602086016020830137600060208483010152809550505050505092959194509250565b6000806040838503121561157757600080fd5b6115808361136d565b91506114126020840161136d565b600181811c908216806115a257607f821691505b6020821081036115c257634e487b7160e01b600052602260045260246000fd5b50919050565b634e487b7160e01b600052603260045260246000fd5b600083516115f08184602088016112f1565b8351908301906116048183602088016112f1565b01949350505050565b6001600160a01b038581168252841660208201526040810183905260806060820181905260009061164090830184611315565b9695505050505050565b60006020828403121561165c57600080fd5b8151610756816112be565b8181038181111561036e57634e487b7160e01b600052601160045260246000fd5b634e487b7160e01b600052603160045260246000fdfea2646970667358221220df13cae52a22da101b9947fd0d0395a47f391dc6f8b942ec7de0ea61f27566a264736f6c63430008140033",
  "linkReferences": {},
  "deployedLinkReferences": {}
}