{
  "_format": "hh-sol-artifact-1",
  "contractName": "AssetNFT",
  "sourceName": "contracts/AssetNFT.sol",
  "abi": [
    {
      "inputs": [
        {
          "internalType": "address",
          "name": "assetRegistry",
          "type": "address"
        }
      ],
      "stateMutability": "nonpayable",
      "type": "constructor"
    },
    {
      "inputs": [],
      "name": "AccessControlBadConfirmation",
      "type": "error"
    },
    {
      "inputs": [
        {
          "internalType": "address",
          "name": "account",
          "type": "address"
        },
        {
          "internalType": "bytes32",
          "name": "neededRole",
          "type": "bytes32"
        }
      ],
      "name": "AccessControlUnauthorizedAccount",
      "type": "error"
    },
    {
      "inputs": [],
      "name": "ERC721EnumerableForbiddenBatchMint",
      "type": "error"
    },
    {
      "inputs": [
        {
          "internalType": "address",
          "name": "sender",
          "type": "address"
        },
        {
          "internalType": "uint256",
          "name": "tokenId",
          "type": "uint256"
        },
        {
          "internalType": "address",
          "name": "owner",
          "type": "address"
        }
      ],
      "name": "ERC721IncorrectOwner",
      "type": "error"
    },
    {
      "inputs": [
        {
          "internalType": "address",
          "name": "operator",
          "type": "address"
        },
        {
          "internalType": "uint256",
          "name": "tokenId",
          "type": "uint256"
        }
      ],
      "name": "ERC721InsufficientApproval",
      "type": "error"
    },
    {
      "inputs": [
        {
          "internalType": "address",
          "name": "approver",
          "type": "address"
        }
      ],
      "name": "ERC721InvalidApprover",
      "type": "error"
    },
    {
      "inputs": [
        {
          "internalType": "address",
          "name": "operator",
          "type": "address"
        }
      ],
      "name": "ERC721InvalidOperator",
      "type": "error"
    },
    {
      "inputs": [
        {
          "internalType": "address",
          "name": "owner",
          "type": "address"
        }
      ],
      "name": "ERC721InvalidOwner",
      "type": "error"
    },
    {
      "inputs": [
        {
          "internalType": "address",
          "name": "receiver",
          "type": "address"
        }
      ],
      "name": "ERC721InvalidReceiver",
      "type": "error"
    },
    {
      "inputs": [
        {
          "internalType": "address",
          "name": "sender",
          "type": "address"
        }
      ],
      "name": "ERC721InvalidSender",
      "type": "error"
    },
    {
      "inputs": [
        {
          "internalType": "uint256",
          "name": "tokenId",
          "type": "uint256"
        }
      ],
      "name": "ERC721NonexistentToken",
      "type": "error"
    },
    {
      "inputs": [
        {
          "internalType": "address",
          "name": "owner",
          "type": "address"
        },
        {
          "internalType": "uint256",
          "name": "index",
          "type": "uint256"
        }
      ],
      "name": "ERC721OutOfBoundsIndex",
      "type": "error"
    },
    {
      "anonymous": false,
      "inputs": [
        {
          "indexed": true,
          "internalType": "address",
          "name": "owner",
          "type": "address"
        },
        {
          "indexed": true,
          "internalType": "address",
          "name": "approved",
          "type": "address"
        },
        {
          "indexed": true,
          "internalType": "uint256",
          "name": "tokenId",
          "type": "uint256"
        }
      ],
      "name": "Approval",
      "type": "event"
    },
    {
      "anonymous": false,
      "inputs": [
        {
          "indexed": true,
          "internalType": "address",
          "name": "owner",
          "type": "address"
        },
        {
          "indexed": true,
          "internalType": "address",
          "name": "operator",
          "type": "address"
        },
        {
          "indexed": false,
          "internalType": "bool",
          "name": "approved",
          "type": "bool"
        }
      ],
      "name": "ApprovalForAll",
      "type": "event"
    },
    {
      "anonymous": false,
      "inputs": [
        {
          "indexed": true,
          "internalType": "bytes32",
          "name": "role",
          "type": "bytes32"
        },
        {
          "indexed": true,
          "internalType": "bytes32",
          "name": "previousAdminRole",
          "type": "bytes32"
        },
        {
          "indexed": true,
          "internalType": "bytes32",
          "name": "newAdminRole",
          "type": "bytes32"
        }
      ],
      "name": "RoleAdminChanged",
      "type": "event"
    },
    {
      "anonymous": false,
      "inputs": [
        {
          "indexed": true,
          "internalType": "bytes32",
          "name": "role",
          "type": "bytes32"
        },
        {
          "indexed": true,
          "internalType": "address",
          "name": "account",
          "type": "address"
        },
        {
          "indexed": true,
          "internalType": "address",
          "name": "sender",
          "type": "address"
        }
      ],
      "name": "RoleGranted",
      "type": "event"
    },
    {
      "anonymous": false,
      "inputs": [
        {
          "indexed": true,
          "internalType": "bytes32",
          "name": "role",
          "type": "bytes32"
        },
        {
          "indexed": true,
          "internalType": "address",
          "name": "account",
          "type": "address"
        },
        {
          "indexed": true,
          "internalType": "address",
          "name": "sender",
          "type": "address"
        }
      ],
      "name": "RoleRevoked",
      "type": "event"
    },
    {
      "anonymous": false,
      "inputs": [
        {
          "indexed": true,
          "internalType": "address",
          "name": "from",
          "type": "address"
        },
        {
          "indexed": true,
          "internalType": "address",
          "name": "to",
          "type": "address"
        },
        {
          "indexed": true,
          "internalType": "uint256",
          "name": "tokenId",
          "type": "uint256"
        }
      ],
      "name": "Transfer",
      "type": "event"
    },
    {
      "inputs": [],
      "name": "DEFAULT_ADMIN_ROLE",
      "outputs": [
        {
          "internalType": "bytes32",
          "name": "",
          "type": "bytes32"
        }
      ],
      "stateMutability": "view",
      "type": "function"
    },
    {
      "inputs": [],
      "name": "MINTER_ROLE",
      "outputs": [
        {
          "internalType": "bytes32",
          "name": "",
          "type": "bytes32"
        }
      ],
      "stateMutability": "view",
      "type": "function"
    },
    {
      "inputs": [
        {
          "internalType": "address",
          "name": "to",
          "type": "address"
        },
        {
          "internalType": "uint256",
          "name": "tokenId",
          "type": "uint256"
        }
      ],
      "name": "approve",
      "outputs": [],
      "stateMutability": "nonpayable",
      "type": "function"
    },
    {
      "inputs": [
        {
          "internalType": "address",
          "name": "owner",
          "type": "address"
        }
      ],
      "name": "balanceOf",
      "outputs": [
        {
          "internalType": "uint256",
          "name": "",
          "type": "uint256"
        }
      ],
      "stateMutability": "view",
      "type": "function"
    },
    {
      "inputs": [
        {
          "internalType": "uint256",
          "name": "tokenId",
          "type": "uint256"
        }
      ],
      "name": "getApproved",
      "outputs": [
        {
          "internalType": "address",
          "name": "",
          "type": "address"
        }
      ],
      "stateMutability": "view",
      "type": "function"
    },
    {
      "inputs": [
        {
          "internalType": "bytes32",
          "name": "role",
          "type": "bytes32"
        }
      ],
      "name": "getRoleAdmin",
      "outputs": [
        {
          "internalType": "bytes32",
          "name": "",
          "type": "bytes32"
        }
      ],
      "stateMutability": "view",
      "type": "function"
    },
    {
      "inputs": [
        {
          "internalType": "bytes32",
          "name": "role",
          "type": "bytes32"
        },
        {
          "internalType": "address",
          "name": "account",
          "type": "address"
        }
      ],
      "name": "grantRole",
      "outputs": [],
      "stateMutability": "nonpayable",
      "type": "function"
    },
    {
      "inputs": [
        {
          "internalType": "bytes32",
          "name": "role",
          "type": "bytes32"
        },
        {
          "internalType": "address",
          "name": "account",
          "type": "address"
        }
      ],
      "name": "hasRole",
      "outputs": [
        {
          "internalType": "bool",
          "name": "",
          "type": "bool"
        }
      ],
      "stateMutability": "view",
      "type": "function"
    },
    {
      "inputs": [
        {
          "internalType": "address",
          "name": "owner",
          "type": "address"
        },
        {
          "internalType": "address",
          "name": "operator",
          "type": "address"
        }
      ],
      "name": "isApprovedForAll",
      "outputs": [
        {
          "internalType": "bool",
          "name": "",
          "type": "bool"
        }
      ],
      "stateMutability": "view",
      "type": "function"
    },
    {
      "inputs": [],
      "name": "name",
      "outputs": [
        {
          "internalType": "string",
          "name": "",
          "type": "string"
        }
      ],
      "stateMutability": "view",
      "type": "function"
    },
    {
      "inputs": [
        {
          "internalType": "uint256",
          "name": "tokenId",
          "type": "uint256"
        }
      ],
      "name": "ownerOf",
      "outputs": [
        {
          "internalType": "address",
          "name": "",
          "type": "address"
        }
      ],
      "stateMutability": "view",
      "type": "function"
    },
    {
      "inputs": [
        {
          "internalType": "bytes32",
          "name": "role",
          "type": "bytes32"
        },
        {
          "internalType": "address",
          "name": "callerConfirmation",
          "type": "address"
        }
      ],
      "name": "renounceRole",
      "outputs": [],
      "stateMutability": "nonpayable",
      "type": "function"
    },
    {
      "inputs": [
        {
          "internalType": "bytes32",
          "name": "role",
          "type": "bytes32"
        },
        {
          "internalType": "address",
          "name": "account",
          "type": "address"
        }
      ],
      "name": "revokeRole",
      "outputs": [],
      "stateMutability": "nonpayable",
      "type": "function"
    },
    {
      "inputs": [
        {
          "internalType": "address",
          "name": "to",
          "type": "address"
        },
        {
          "internalType": "uint256",
          "name": "tokenId",
          "type": "uint256"
        }
      ],
      "name": "safeMint",
      "outputs": [],
      "stateMutability": "nonpayable",
      "type": "function"
    },
    {
      "inputs": [
        {
          "internalType": "address",
          "name": "from",
          "type": "address"
        },
        {
          "internalType": "address",
          "name": "to",
          "type": "address"
        },
        {
          "internalType": "uint256",
          "name": "tokenId",
          "type": "uint256"
        }
      ],
      "name": "safeTransferFrom",
      "outputs": [],
      "stateMutability": "nonpayable",
      "type": "function"
    },
    {
      "inputs": [
        {
          "internalType": "address",
          "name": "from",
          "type": "address"
        },
        {
          "internalType": "address",
          "name": "to",
          "type": "address"
        },
        {
          "internalType": "uint256",
          "name": "tokenId",
          "type": "uint256"
        },
        {
          "internalType": "bytes",
          "name": "data",
          "type": "bytes"
        }
      ],
      "name": "safeTransferFrom",
      "outputs": [],
      "stateMutability": "nonpayable",
      "type": "function"
    },
    {
      "inputs": [
        {
          "internalType": "address",
          "name": "operator",
          "type": "address"
        },
        {
          "internalType": "bool",
          "name": "approved",
          "type": "bool"
        }
      ],
      "name": "setApprovalForAll",
      "outputs": [],
      "stateMutability": "nonpayable",
      "type": "function"
    },
    {
      "inputs": [
        {
          "internalType": "bytes4",
          "name": "interfaceId",
          "type": "bytes4"
        }
      ],
      "name": "supportsInterface",
      "outputs": [
        {
          "internalType": "bool",
          "name": "",
          "type": "bool"
        }
      ],
      "stateMutability": "view",
      "type": "function"
    },
    {
      "inputs": [],
      "name": "symbol",
      "outputs": [
        {
          "internalType": "string",
          "name": "",
          "type": "string"
        }
      ],
      "stateMutability": "view",
      "type": "function"
    },
    {
      "inputs": [
        {
          "internalType": "uint256",
          "name": "index",
          "type": "uint256"
        }
      ],
      "name": "tokenByIndex",
      "outputs": [
        {
          "internalType": "uint256",
          "name": "",
          "type": "uint256"
        }
      ],
      "stateMutability": "view",
      "type": "function"
    },
    {
      "inputs": [
        {
          "internalType": "address",
          "name": "owner",
          "type": "address"
        },
        {
          "internalType": "uint256",
          "name": "index",
          "type": "uint256"
        }
      ],
      "name": "tokenOfOwnerByIndex",
      "outputs": [
        {
          "internalType": "uint256",
          "name": "",
          "type": "uint256"
        }
      ],
      "stateMutability": "view",
      "type": "function"
    },
    {
      "inputs": [
        {
          "internalType": "uint256",
          "name": "tokenId",
          "type": "uint256"
        }
      ],
      "name": "tokenURI",
      "outputs": [
        {
          "internalType": "string",
          "name": "",
          "type": "string"
        }
      ],
      "stateMutability": "view",
      "type": "function"
    },
    {
      "inputs": [],
      "name": "totalSupply",
      "outputs": [
        {
          "internalType": "uint256",
          "name": "",
          "type": "uint256"
        }
      ],
      "stateMutability": "view",
      "type": "function"
    },
    {
      "inputs": [
        {
          "internalType": "address",
          "name": "from",
          "type": "address"
        },
        {
          "internalType": "address",
          "name": "to",
          "type": "address"
        },
        {
          "internalType": "uint256",
          "name": "tokenId",
          "type": "uint256"
        }
      ],
      "name": "transferFrom",
      "outputs": [],
      "stateMutability": "nonpayable",
      "type": "function"
    }
  ],
  "bytecode": "0x60806040523480156200001157600080fd5b5060405162001a1838038062001a18833981016040819052620000349162000191565b6040518060400160405280600e81526020016d121a59da15985b1d59505cdcd95d60921b8152506040518060400160405280600381526020016248564160e81b815250816000908162000088919062000268565b50600162000097828262000268565b50620000a991506000905082620000de565b50620000d67f9f2df0fed2c77648de5860a4cc508cd0818c85b8b8a1ab4ceeef8d981c8956a682620000de565b505062000334565b6000828152600a602090815260408083206001600160a01b038516845290915281205460ff1662000187576000838152600a602090815260408083206001600160a01b03861684529091529020805460ff191660011790556200013e3390565b6001600160a01b0316826001600160a01b0316847f2f8788117e7eff1d82e926ec794901d17c78024a50270940304540a733656f0d60405160405180910390a45060016200018b565b5060005b92915050565b600060208284031215620001a457600080fd5b81516001600160a01b0381168114620001bc57600080fd5b9392505050565b634e487b7160e01b600052604160045260246000fd5b600181811c90821680620001ee57607f821691505b6020821081036200020f57634e487b7160e01b600052602260045260246000fd5b50919050565b601f8211156200026357600081815260208120601f850160051c810160208610156200023e5750805b601f850160051c820191505b818110156200025f578281556001016200024a565b5050505b505050565b81516001600160401b03811115620002845762000284620001c3565b6200029c81620002958454620001d9565b8462000215565b602080601f831160018114620002d45760008415620002bb5750858301515b600019600386901b1c1916600185901b1785556200025f565b600085815260208120601f198616915b828110156200030557888601518255948401946001909101908401620002e4565b5085821015620003245787850151600019600388901b60f8161c191681555b5050505050600190811b01905550565b6116d480620003446000396000f3fe608060405234801561001057600080fd5b50600436106101585760003560e01c80636352211e116100c3578063a22cb4651161007c578063a22cb465146102dd578063b88d4fde146102f0578063c87b56dd14610303578063d539139314610316578063d547741f1461033d578063e985e9c51461035057600080fd5b80636352211e1461028157806370a082311461029457806391d14854146102a757806395d89b41146102ba578063a1448194146102c2578063a217fddf146102d557600080fd5b8063248a9ca311610115578063248a9ca3146101ff5780632f2ff15d146102225780632f745c591461023557806336568abe1461024857806342842e0e1461025b5780634f6ccce71461026e57600080fd5b806301ffc9a71461015d57806306fdde0314610185578063081812fc1461019a578063095ea7b3146101c557806318160ddd146101da57806323b872dd146101ec575b600080fd5b61017061016b3660046112d4565b610363565b60405190151581526020015b60405180910390f35b61018d610374565b60405161017c9190611341565b6101ad6101a8366004611354565b610406565b6040516001600160a01b03909116815260200161017c565b6101d86101d3366004611389565b61042f565b005b6008545b60405190815260200161017c565b6101d86101fa3660046113b3565b61043e565b6101de61020d366004611354565b6000908152600a602052604090206001015490565b6101d86102303660046113ef565b6104ce565b6101de610243366004611389565b6104f3565b6101d86102563660046113ef565b610558565b6101d86102693660046113b3565b610590565b6101de61027c366004611354565b6105ab565b6101ad61028f366004611354565b610604565b6101de6102a236600461141b565b61060f565b6101706102b53660046113ef565b610657565b61018d610682565b6101d86102d0366004611389565b610691565b6101de600081565b6101d86102eb366004611436565b6106c5565b6101d86102fe366004611488565b6106d0565b61018d610311366004611354565b6106e8565b6101de7f9f2df0fed2c77648de5860a4cc508cd0818c85b8b8a1ab4ceeef8d981c8956a681565b6101d861034b3660046113ef565b61075d565b61017061035e366004611564565b610782565b600061036e826107b0565b92915050565b6060600080546103839061158e565b80601f01602080910402602001604051908101604052809291908181526020018280546103af9061158e565b80156103fc5780601f106103d1576101008083540402835291602001916103fc565b820191906000526020600020905b8154815290600101906020018083116103df57829003601f168201915b5050505050905090565b6000610411826107d5565b506000828152600460205260409020546001600160a01b031661036e565b61043a82823361080e565b5050565b6001600160a01b03821661046d57604051633250574960e11b8152600060048201526024015b60405180910390fd5b600061047a83833361081b565b9050836001600160a01b0316816001600160a01b0316146104c8576040516364283d7b60e01b81526001600160a01b0380861660048301526024820184905282166044820152606401610464565b50505050565b6000828152600a60205260409020600101546104e9816108f0565b6104c883836108fd565b60006104fe8361060f565b821061052f5760405163295f44f760e21b81526001600160a01b038416600482015260248101839052604401610464565b506001600160a01b03919091166000908152600660209081526040808320938352929052205490565b6001600160a01b03811633146105815760405163334bd91960e11b815260040160405180910390fd5b61058b8282610991565b505050565b61058b838383604051806020016040528060008152506106d0565b60006105b660085490565b82106105df5760405163295f44f760e21b81526000600482015260248101839052604401610464565b600882815481106105f2576105f26115c8565b90600052602060002001549050919050565b600061036e826107d5565b60006001600160a01b03821661063b576040516322718ad960e21b815260006004820152602401610464565b506001600160a01b031660009081526003602052604090205490565b6000918252600a602090815260408084206001600160a01b0393909316845291905290205460ff1690565b6060600180546103839061158e565b7f9f2df0fed2c77648de5860a4cc508cd0818c85b8b8a1ab4ceeef8d981c8956a66106bb816108f0565b61058b83836109fe565b61043a338383610a18565b6106db84848461043e565b6104c83385858585610ab7565b60606106f3826107d5565b50600061070b60408051602081019091526000815290565b9050600081511161072b5760405180602001604052806000815250610756565b8061073584610be2565b6040516020016107469291906115de565b6040516020818303038152906040525b9392505050565b6000828152600a6020526040902060010154610778816108f0565b6104c88383610991565b6001600160a01b03918216600090815260056020908152604080832093909416825291909152205460ff1690565b60006001600160e01b03198216637965db0b60e01b148061036e575061036e82610c75565b6000818152600260205260408120546001600160a01b03168061036e57604051637e27328960e01b815260048101849052602401610464565b61058b8383836001610c9a565b600080610829858585610da0565b90506001600160a01b0381166108865761088184600880546000838152600960205260408120829055600182018355919091527ff3f7a9fe364faab93b216da50a3214154f22a0a2b415b23a84c8169e8b636ee30155565b6108a9565b846001600160a01b0316816001600160a01b0316146108a9576108a98185610e99565b6001600160a01b0385166108c5576108c084610f1a565b6108e8565b846001600160a01b0316816001600160a01b0316146108e8576108e88585610fc9565b949350505050565b6108fa8133611019565b50565b60006109098383610657565b610989576000838152600a602090815260408083206001600160a01b03861684529091529020805460ff191660011790556109413390565b6001600160a01b0316826001600160a01b0316847f2f8788117e7eff1d82e926ec794901d17c78024a50270940304540a733656f0d60405160405180910390a450600161036e565b50600061036e565b600061099d8383610657565b15610989576000838152600a602090815260408083206001600160a01b0386168085529252808320805460ff1916905551339286917ff6391f5c32d9c69d2a47ea670b442974b53935d1edc7fd64eb21e047a839171b9190a450600161036e565b61043a828260405180602001604052806000815250611052565b6001600160a01b038216610a4a57604051630b61174360e31b81526001600160a01b0383166004820152602401610464565b6001600160a01b03838116600081815260056020908152604080832094871680845294825291829020805460ff191686151590811790915591519182527f17307eab39ab6107e8899845ad3d59bd9653f200f220920489ca2b5937696c31910160405180910390a3505050565b6001600160a01b0383163b15610bdb57604051630a85bd0160e11b81526001600160a01b0384169063150b7a0290610af990889088908790879060040161160d565b6020604051808303816000875af1925050508015610b34575060408051601f3d908101601f19168201909252610b319181019061164a565b60015b610b9d573d808015610b62576040519150601f19603f3d011682016040523d82523d6000602084013e610b67565b606091505b508051600003610b9557604051633250574960e11b81526001600160a01b0385166004820152602401610464565b805181602001fd5b6001600160e01b03198116630a85bd0160e11b14610bd957604051633250574960e11b81526001600160a01b0385166004820152602401610464565b505b5050505050565b60606000610bef8361106a565b600101905060008167ffffffffffffffff811115610c0f57610c0f611472565b6040519080825280601f01601f191660200182016040528015610c39576020820181803683370190505b5090508181016020015b600019016f181899199a1a9b1b9c1cb0b131b232b360811b600a86061a8153600a8504945084610c4357509392505050565b60006001600160e01b0319821663780e9d6360e01b148061036e575061036e82611142565b8080610cae57506001600160a01b03821615155b15610d70576000610cbe846107d5565b90506001600160a01b03831615801590610cea5750826001600160a01b0316816001600160a01b031614155b8015610cfd5750610cfb8184610782565b155b15610d265760405163a9fbf51f60e01b81526001600160a01b0384166004820152602401610464565b8115610d6e5783856001600160a01b0316826001600160a01b03167f8c5be1e5ebec7d5bd14f71427d1e84f3dd0314c0f7b2291e5b200ac8c7c3b92560405160405180910390a45b505b5050600090815260046020526040902080546001600160a01b0319166001600160a01b0392909216919091179055565b6000828152600260205260408120546001600160a01b0390811690831615610dcd57610dcd818486611192565b6001600160a01b03811615610e0b57610dea600085600080610c9a565b6001600160a01b038116600090815260036020526040902080546000190190555b6001600160a01b03851615610e3a576001600160a01b0385166000908152600360205260409020805460010190555b60008481526002602052604080822080546001600160a01b0319166001600160a01b0389811691821790925591518793918516917fddf252ad1be2c89b69c2b068fc378daa952ba7f163c4a11628f55a4df523b3ef91a4949350505050565b6000610ea48361060f565b6000838152600760209081526040808320546001600160a01b0388168452600690925290912091925090818314610efb57600083815260208281526040808320548584528184208190558352600790915290208290555b6000938452600760209081526040808620869055938552525081205550565b600854600090610f2c90600190611667565b60008381526009602052604081205460088054939450909284908110610f5457610f546115c8565b906000526020600020015490508060088381548110610f7557610f756115c8565b6000918252602080832090910192909255828152600990915260408082208490558582528120556008805480610fad57610fad611688565b6001900381819060005260206000200160009055905550505050565b60006001610fd68461060f565b610fe09190611667565b6001600160a01b039093166000908152600660209081526040808320868452825280832085905593825260079052919091209190915550565b6110238282610657565b61043a5760405163e2517d3f60e01b81526001600160a01b038216600482015260248101839052604401610464565b61105c83836111f6565b61058b336000858585610ab7565b60008072184f03e93ff9f4daa797ed6e38ed64bf6a1f0160401b83106110a95772184f03e93ff9f4daa797ed6e38ed64bf6a1f0160401b830492506040015b6d04ee2d6d415b85acef810000000083106110d5576d04ee2d6d415b85acef8100000000830492506020015b662386f26fc1000083106110f357662386f26fc10000830492506010015b6305f5e100831061110b576305f5e100830492506008015b612710831061111f57612710830492506004015b60648310611131576064830492506002015b600a831061036e5760010192915050565b60006001600160e01b031982166380ac58cd60e01b148061117357506001600160e01b03198216635b5e139f60e01b145b8061036e57506301ffc9a760e01b6001600160e01b031983161461036e565b61119d83838361125b565b61058b576001600160a01b0383166111cb57604051637e27328960e01b815260048101829052602401610464565b60405163177e802f60e01b81526001600160a01b038316600482015260248101829052604401610464565b6001600160a01b03821661122057604051633250574960e11b815260006004820152602401610464565b600061122e8383600061081b565b90506001600160a01b0381161561058b576040516339e3563760e11b815260006004820152602401610464565b60006001600160a01b038316158015906108e85750826001600160a01b0316846001600160a01b0316148061129557506112958484610782565b806108e85750506000908152600460205260409020546001600160a01b03908116911614919050565b6001600160e01b0319811681146108fa57600080fd5b6000602082840312156112e657600080fd5b8135610756816112be565b60005b8381101561130c5781810151838201526020016112f4565b50506000910152565b6000815180845261132d8160208601602086016112f1565b601f01601f19169290920160200192915050565b6020815260006107566020830184611315565b60006020828403121561136657600080fd5b5035919050565b80356001600160a01b038116811461138457600080fd5b919050565b6000806040838503121561139c57600080fd5b6113a58361136d565b946020939093013593505050565b6000806000606084860312156113c857600080fd5b6113d18461136d565b92506113df6020850161136d565b9150604084013590509250925092565b6000806040838503121561140257600080fd5b823591506114126020840161136d565b90509250929050565b60006020828403121561142d57600080fd5b6107568261136d565b6000806040838503121561144957600080fd5b6114528361136d565b91506020830135801515811461146757600080fd5b809150509250929050565b634e487b7160e01b600052604160045260246000fd5b6000806000806080858703121561149e57600080fd5b6114a78561136d565b93506114b56020860161136d565b925060408501359150606085013567ffffffffffffffff808211156114d957600080fd5b818701915087601f8301126114ed57600080fd5b8135818111156114ff576114ff611472565b604051601f8201601f19908116603f0116810190838211818310171561152757611527611472565b816040528281528a602084870101111561154057600080fd5b82602086016020830137600060208483010152809550505050505092959194509250565b6000806040838503121561157757600080fd5b6115808361136d565b91506114126020840161136d565b600181811c908216806115a257607f821691505b6020821081036115c257634e487b7160e01b600052602260045260246000fd5b50919050565b634e487b7160e01b600052603260045260246000fd5b600083516115f08184602088016112f1565b8351908301906116048183602088016112f1565b01949350505050565b6001600160a01b038581168252841660208201526040810183905260806060820181905260009061164090830184611315565b9695505050505050565b60006020828403121561165c57600080fd5b8151610756816112be565b8181038181111561036e57634e487b7160e01b600052601160045260246000fd5b634e487b7160e01b600052603160045260246000fdfea2646970667358221220ac49a5c253ab2e5731e7094e20d63206fee1646caaf19c030ab303606a95503b64736f6c63430008140033",
  "linkReferences": {},
  "deployedLinkReferences": {}
}