{
  "_format": "hh-sol-artifact-1",
  "contractName": "AssetContract",
  "sourceName": "contracts/AssetContract.sol",
  "abi": [
    {
      "anonymous": false,
      "inputs": [
        {
          "indexed": false,
          "internalType": "uint256",
          "name": "id",
          "type": "uint256"
        },
        {
          "indexed": false,
          "internalType": "string",
          "name": "name",
          "type": "string"
        },
        {
          "indexed": false,
          "internalType": "address",
          "name": "owner",
          "type": "address"
        }
      ],
      "name": "AssetCreated",
      "type": "event"
    },
    {
      "anonymous": false,
      "inputs": [
        {
          "indexed": false,
          "internalType": "uint256",
          "name": "id",
          "type": "uint256"
        },
        {
          "indexed": false,
          "internalType": "address",
          "name": "from",
          "type": "address"
        },
        {
          "indexed": false,
          "internalType": "address",
          "name": "to",
          "type": "address"
        }
      ],
      "name": "AssetTransferred",
      "type": "event"
    },
    {
      "inputs": [],
      "name": "assetCount",
      "outputs": [
        {
          "internalType": "uint256",
          "name": "",
          "type": "uint256"
        }
      ],
      "stateMutability": "view",
      "type": "function"
    },
    {
      "inputs": [
        {
          "internalType": "uint256",
          "name": "",
          "type": "uint256"
        }
      ],
      "name": "assets",
      "outputs": [
        {
          "internalType": "uint256",
          "name": "id",
          "type": "uint256"
        },
        {
          "internalType": "string",
          "name": "name",
          "type": "string"
        },
        {
          "internalType": "address",
          "name": "owner",
          "type": "address"
        }
      ],
      "stateMutability": "view",
      "type": "function"
    },
    {
      "inputs": [
        {
          "internalType": "string",
          "name": "_name",
          "type": "string"
        }
      ],
      "name": "createAsset",
      "outputs": [],
      "stateMutability": "nonpayable",
      "type": "function"
    },
    {
      "inputs": [
        {
          "internalType": "uint256",
          "name": "_id",
          "type": "uint256"
        },
        {
          "internalType": "address",
          "name": "_to",
          "type": "address"
        }
      ],
      "name": "transferAsset",
      "outputs": [],
      "stateMutability": "nonpayable",
      "type": "function"
    }
  ],
  "bytecode": "0x608060405234801561001057600080fd5b5061062f806100206000396000f3fe608060405234801561001057600080fd5b506004361061004c5760003560e01c806355b1f24e14610051578063cf35bdd014610066578063eafe7a7414610091578063fa62ee8d146100a8575b600080fd5b61006461005f36600461031a565b6100bb565b005b6100796100743660046103cb565b61017a565b604051610088939291906103e4565b60405180910390f35b61009a60015481565b604051908152602001610088565b6100646100b636600461044d565b61022e565b600180549060006100cb83610489565b9091555050604080516060810182526001805480835260208084018681523385870152600092835290829052939020825181559251919291908201906101119082610539565b5060409182015160029190910180546001600160a01b0319166001600160a01b0390921691909117905560015490517f40ac6d0abd196f71067fd5f01713f04a69e6b1e602e26ebca127dc6793afd7b39161016f91849033906103e4565b60405180910390a150565b6000602081905290815260409020805460018201805491929161019c906104b0565b80601f01602080910402602001604051908101604052809291908181526020018280546101c8906104b0565b80156102155780601f106101ea57610100808354040283529160200191610215565b820191906000526020600020905b8154815290600101906020018083116101f857829003601f168201915b505050600290930154919250506001600160a01b031683565b6000828152602081905260409020600201546001600160a01b031633146102935760405162461bcd60e51b81526020600482015260156024820152742cb7ba9030b932903737ba103a34329037bbb732b960591b604482015260640160405180910390fd5b6000828152602081815260409182902060020180546001600160a01b0385166001600160a01b03199091168117909155825185815233928101929092528183015290517fa993eb3a10693085bc7afc1de0202310fbd5992b9e51edd263b198f62f20cdae9181900360600190a15050565b634e487b7160e01b600052604160045260246000fd5b60006020828403121561032c57600080fd5b813567ffffffffffffffff8082111561034457600080fd5b818401915084601f83011261035857600080fd5b81358181111561036a5761036a610304565b604051601f8201601f19908116603f0116810190838211818310171561039257610392610304565b816040528281528760208487010111156103ab57600080fd5b826020860160208301376000928101602001929092525095945050505050565b6000602082840312156103dd57600080fd5b5035919050565b83815260006020606081840152845180606085015260005b81811015610418578681018301518582016080015282016103fc565b5060008482016080908101919091526001600160a01b03959095166040850152601f01601f1916909201909201949350505050565b6000806040838503121561046057600080fd5b8235915060208301356001600160a01b038116811461047e57600080fd5b809150509250929050565b6000600182016104a957634e487b7160e01b600052601160045260246000fd5b5060010190565b600181811c908216806104c457607f821691505b6020821081036104e457634e487b7160e01b600052602260045260246000fd5b50919050565b601f82111561053457600081815260208120601f850160051c810160208610156105115750805b601f850160051c820191505b818110156105305782815560010161051d565b5050505b505050565b815167ffffffffffffffff81111561055357610553610304565b6105678161056184546104b0565b846104ea565b602080601f83116001811461059c57600084156105845750858301515b600019600386901b1c1916600185901b178555610530565b600085815260208120601f198616915b828110156105cb578886015182559484019460019091019084016105ac565b50858210156105e95787850151600019600388901b60f8161c191681555b5050505050600190811b0190555056fea26469706673582212202c5ea6b6b2e8a8a5e7bc6d1f8c6bc8589fd0bd054e9d1fc4ba64ea38cc9e344e64736f6c63430008140033",
  "linkReferences": {},
  "deployedLinkReferences": {}
}