{
  "_format": "hh-sol-artifact-1",
  "contractName": "AssetRegistry",
  "sourceName": "contracts/AssetRegistry.sol",
  "abi": [
    {
      "inputs": [
        {
          "internalType": "address",
          "name": "_standardMultiSigWalletAddress",
          "type": "address"
        },
        {
          "internalType": "address",
          "name": "_bankMultiSigWalletAddress",
          "type": "address"
        },
        {
          "internalType": "address",
          "name": "_verifierOracleAddress",
          "type": "address"
        },
        {
          "internalType": "uint256",
          "name": "_highValueThreshold",
          "type": "uint256"
        }
      ],
      "stateMutability": "nonpayable",
      "type": "constructor"
    },
    {
      "inputs": [],
      "name": "AccessControlBadConfirmation",
      "type": "error"
    },
    {
      "inputs": [
        {
          "internalType": "address",
          "name": "account",
          "type": "address"
        },
        {
          "internalType": "bytes32",
          "name": "neededRole",
          "type": "bytes32"
        }
      ],
      "name": "AccessControlUnauthorizedAccount",
      "type": "error"
    },
    {
      "anonymous": false,
      "inputs": [
        {
          "indexed": true,
          "internalType": "uint256",
          "name": "tokenId",
          "type": "uint256"
        },
        {
          "indexed": true,
          "internalType": "address",
          "name": "owner",
          "type": "address"
        },
        {
          "indexed": false,
          "internalType": "string",
          "name": "assetDetails",
          "type": "string"
        },
        {
          "indexed": false,
          "internalType": "uint256",
          "name": "value",
          "type": "uint256"
        }
      ],
      "name": "AssetRegistered",
      "type": "event"
    },
    {
      "anonymous": false,
      "inputs": [
        {
          "indexed": true,
          "internalType": "uint256",
          "name": "tokenId",
          "type": "uint256"
        },
        {
          "indexed": false,
          "internalType": "uint256",
          "name": "newValue",
          "type": "uint256"
        },
        {
          "indexed": true,
          "internalType": "address",
          "name": "updatedBy",
          "type": "address"
        }
      ],
      "name": "AssetValueUpdated",
      "type": "event"
    },
    {
      "anonymous": false,
      "inputs": [
        {
          "indexed": true,
          "internalType": "uint256",
          "name": "tokenId",
          "type": "uint256"
        },
        {
          "indexed": false,
          "internalType": "string",
          "name": "eventType",
          "type": "string"
        },
        {
          "indexed": false,
          "internalType": "string",
          "name": "description",
          "type": "string"
        },
        {
          "indexed": true,
          "internalType": "address",
          "name": "recordedBy",
          "type": "address"
        }
      ],
      "name": "LifecycleEventAdded",
      "type": "event"
    },
    {
      "anonymous": false,
      "inputs": [
        {
          "indexed": true,
          "internalType": "bytes32",
          "name": "role",
          "type": "bytes32"
        },
        {
          "indexed": true,
          "internalType": "bytes32",
          "name": "previousAdminRole",
          "type": "bytes32"
        },
        {
          "indexed": true,
          "internalType": "bytes32",
          "name": "newAdminRole",
          "type": "bytes32"
        }
      ],
      "name": "RoleAdminChanged",
      "type": "event"
    },
    {
      "anonymous": false,
      "inputs": [
        {
          "indexed": true,
          "internalType": "bytes32",
          "name": "role",
          "type": "bytes32"
        },
        {
          "indexed": true,
          "internalType": "address",
          "name": "account",
          "type": "address"
        },
        {
          "indexed": true,
          "internalType": "address",
          "name": "sender",
          "type": "address"
        }
      ],
      "name": "RoleGranted",
      "type": "event"
    },
    {
      "anonymous": false,
      "inputs": [
        {
          "indexed": true,
          "internalType": "bytes32",
          "name": "role",
          "type": "bytes32"
        },
        {
          "indexed": true,
          "internalType": "address",
          "name": "account",
          "type": "address"
        },
        {
          "indexed": true,
          "internalType": "address",
          "name": "sender",
          "type": "address"
        }
      ],
      "name": "RoleRevoked",
      "type": "event"
    },
    {
      "anonymous": false,
      "inputs": [
        {
          "indexed": true,
          "internalType": "uint256",
          "name": "tokenId",
          "type": "uint256"
        },
        {
          "indexed": true,
          "internalType": "address",
          "name": "from",
          "type": "address"
        },
        {
          "indexed": true,
          "internalType": "address",
          "name": "to",
          "type": "address"
        },
        {
          "indexed": false,
          "internalType": "address",
          "name": "multiSigWalletUsed",
          "type": "address"
        },
        {
          "indexed": false,
          "internalType": "uint256",
          "name": "multiSigTxId",
          "type": "uint256"
        }
      ],
      "name": "TransferInitiated",
      "type": "event"
    },
    {
      "inputs": [],
      "name": "ADMIN_ROLE",
      "outputs": [
        {
          "internalType": "bytes32",
          "name": "",
          "type": "bytes32"
        }
      ],
      "stateMutability": "view",
      "type": "function"
    },
    {
      "inputs": [],
      "name": "BANK_ROLE",
      "outputs": [
        {
          "internalType": "bytes32",
          "name": "",
          "type": "bytes32"
        }
      ],
      "stateMutability": "view",
      "type": "function"
    },
    {
      "inputs": [],
      "name": "CERTIFIED_PROFESSIONAL_ROLE",
      "outputs": [
        {
          "internalType": "bytes32",
          "name": "",
          "type": "bytes32"
        }
      ],
      "stateMutability": "view",
      "type": "function"
    },
    {
      "inputs": [],
      "name": "DEFAULT_ADMIN_ROLE",
      "outputs": [
        {
          "internalType": "bytes32",
          "name": "",
          "type": "bytes32"
        }
      ],
      "stateMutability": "view",
      "type": "function"
    },
    {
      "inputs": [
        {
          "internalType": "uint256",
          "name": "tokenId",
          "type": "uint256"
        },
        {
          "internalType": "string",
          "name": "eventType",
          "type": "string"
        },
        {
          "internalType": "string",
          "name": "description",
          "type": "string"
        }
      ],
      "name": "addLifecycleEvent",
      "outputs": [],
      "stateMutability": "nonpayable",
      "type": "function"
    },
    {
      "inputs": [
        {
          "internalType": "uint256",
          "name": "",
          "type": "uint256"
        }
      ],
      "name": "assetDataStore",
      "outputs": [
        {
          "internalType": "string",
          "name": "assetDetails",
          "type": "string"
        },
        {
          "internalType": "uint256",
          "name": "value",
          "type": "uint256"
        }
      ],
      "stateMutability": "view",
      "type": "function"
    },
    {
      "inputs": [],
      "name": "assetNft",
      "outputs": [
        {
          "internalType": "contract AssetNFT",
          "name": "",
          "type": "address"
        }
      ],
      "stateMutability": "view",
      "type": "function"
    },
    {
      "inputs": [],
      "name": "bankMultiSigWallet",
      "outputs": [
        {
          "internalType": "contract MultiSigWallet",
          "name": "",
          "type": "address"
        }
      ],
      "stateMutability": "view",
      "type": "function"
    },
    {
      "inputs": [
        {
          "internalType": "bytes32",
          "name": "role",
          "type": "bytes32"
        }
      ],
      "name": "getRoleAdmin",
      "outputs": [
        {
          "internalType": "bytes32",
          "name": "",
          "type": "bytes32"
        }
      ],
      "stateMutability": "view",
      "type": "function"
    },
    {
      "inputs": [
        {
          "internalType": "address",
          "name": "user",
          "type": "address"
        }
      ],
      "name": "grantBankRole",
      "outputs": [],
      "stateMutability": "nonpayable",
      "type": "function"
    },
    {
      "inputs": [
        {
          "internalType": "address",
          "name": "user",
          "type": "address"
        }
      ],
      "name": "grantCertifiedProfessionalRole",
      "outputs": [],
      "stateMutability": "nonpayable",
      "type": "function"
    },
    {
      "inputs": [
        {
          "internalType": "bytes32",
          "name": "role",
          "type": "bytes32"
        },
        {
          "internalType": "address",
          "name": "account",
          "type": "address"
        }
      ],
      "name": "grantRole",
      "outputs": [],
      "stateMutability": "nonpayable",
      "type": "function"
    },
    {
      "inputs": [
        {
          "internalType": "bytes32",
          "name": "role",
          "type": "bytes32"
        },
        {
          "internalType": "address",
          "name": "account",
          "type": "address"
        }
      ],
      "name": "hasRole",
      "outputs": [
        {
          "internalType": "bool",
          "name": "",
          "type": "bool"
        }
      ],
      "stateMutability": "view",
      "type": "function"
    },
    {
      "inputs": [],
      "name": "highValueThreshold",
      "outputs": [
        {
          "internalType": "uint256",
          "name": "",
          "type": "uint256"
        }
      ],
      "stateMutability": "view",
      "type": "function"
    },
    {
      "inputs": [
        {
          "internalType": "uint256",
          "name": "tokenId",
          "type": "uint256"
        },
        {
          "internalType": "address",
          "name": "to",
          "type": "address"
        }
      ],
      "name": "initiateTransfer",
      "outputs": [],
      "stateMutability": "nonpayable",
      "type": "function"
    },
    {
      "inputs": [
        {
          "internalType": "address",
          "name": "owner",
          "type": "address"
        },
        {
          "internalType": "string",
          "name": "assetDetails",
          "type": "string"
        },
        {
          "internalType": "uint256",
          "name": "value",
          "type": "uint256"
        }
      ],
      "name": "registerNewAsset",
      "outputs": [],
      "stateMutability": "nonpayable",
      "type": "function"
    },
    {
      "inputs": [
        {
          "internalType": "bytes32",
          "name": "role",
          "type": "bytes32"
        },
        {
          "internalType": "address",
          "name": "callerConfirmation",
          "type": "address"
        }
      ],
      "name": "renounceRole",
      "outputs": [],
      "stateMutability": "nonpayable",
      "type": "function"
    },
    {
      "inputs": [
        {
          "internalType": "bytes32",
          "name": "role",
          "type": "bytes32"
        },
        {
          "internalType": "address",
          "name": "account",
          "type": "address"
        }
      ],
      "name": "revokeRole",
      "outputs": [],
      "stateMutability": "nonpayable",
      "type": "function"
    },
    {
      "inputs": [],
      "name": "standardMultiSigWallet",
      "outputs": [
        {
          "internalType": "contract MultiSigWallet",
          "name": "",
          "type": "address"
        }
      ],
      "stateMutability": "view",
      "type": "function"
    },
    {
      "inputs": [
        {
          "internalType": "bytes4",
          "name": "interfaceId",
          "type": "bytes4"
        }
      ],
      "name": "supportsInterface",
      "outputs": [
        {
          "internalType": "bool",
          "name": "",
          "type": "bool"
        }
      ],
      "stateMutability": "view",
      "type": "function"
    },
    {
      "inputs": [
        {
          "internalType": "uint256",
          "name": "tokenId",
          "type": "uint256"
        },
        {
          "internalType": "uint256",
          "name": "newValue",
          "type": "uint256"
        }
      ],
      "name": "updateAssetValue",
      "outputs": [],
      "stateMutability": "nonpayable",
      "type": "function"
    },
    {
      "inputs": [],
      "name": "verifierOracle",
      "outputs": [
        {
          "internalType": "contract VerifierOracle",
          "name": "",
          "type": "address"
        }
      ],
      "stateMutability": "view",
      "type": "function"
    }
  ],
  "bytecode": "0x60806040523480156200001157600080fd5b5060405162002c0138038062002c018339810160408190526200003491620001dd565b6200004160003362000103565b506200006e7fa49807205ce4d355092ef5a8a18f56e8913cf4a201fbe287825b095693c217753362000103565b50306040516200007e90620001b2565b6001600160a01b039091168152602001604051809103906000f080158015620000ab573d6000803e3d6000fd5b50600180546001600160a01b03199081166001600160a01b039384161790915560028054821696831696909617909555600380548616948216949094179093556004805490941691909216179091556005556200022f565b6000828152602081815260408083206001600160a01b038516845290915281205460ff16620001a8576000838152602081815260408083206001600160a01b03861684529091529020805460ff191660011790556200015f3390565b6001600160a01b0316826001600160a01b0316847f2f8788117e7eff1d82e926ec794901d17c78024a50270940304540a733656f0d60405160405180910390a4506001620001ac565b5060005b92915050565b6113b4806200184d83390190565b80516001600160a01b0381168114620001d857600080fd5b919050565b60008060008060808587031215620001f457600080fd5b620001ff85620001c0565b93506200020f60208601620001c0565b92506200021f60408601620001c0565b6060959095015193969295505050565b61160e806200023f6000396000f3fe608060405234801561001057600080fd5b50600436106101425760003560e01c806360c4dce3116100b857806391d148541161007c57806391d14854146102de5780639cd82df0146102f1578063a217fddf14610304578063d547741f1461030c578063f22881db1461031f578063fe4da5051461033457600080fd5b806360c4dce31461027d5780636733c8e0146102905780636fb6ed6c146102a357806375b238fc146102b6578063846675e6146102cb57600080fd5b806325860e9f1161010a57806325860e9f146101e55780632f2ff15d1461021057806336568abe146102235780633a371b8e146102365780634039694f1461024957806346a7010f1461025c57600080fd5b806301ffc9a714610147578063026a3ff91461016f5780630eb714321461018657806318c7e2b6146101ad578063248a9ca3146101c2575b600080fd5b61015a610155366004610f55565b610347565b60405190151581526020015b60405180910390f35b61017860055481565b604051908152602001610166565b6101787f591fa5458fe051cc8c02c405479bd38e00713c98dbd3db209d982048f1e638fa81565b6101c06101bb366004610f9b565b61037e565b005b6101786101d0366004610fb8565b60009081526020819052604090206001015490565b6004546101f8906001600160a01b031681565b6040516001600160a01b039091168152602001610166565b6101c061021e366004610fd1565b6103b2565b6101c0610231366004610fd1565b6103dd565b6101c0610244366004610fd1565b610415565b6101c0610257366004610f9b565b6108e5565b61026f61026a366004610fb8565b610927565b604051610166929190611047565b6101c061028b366004611069565b6109cb565b6101c061029e3660046110d4565b610ac3565b6002546101f8906001600160a01b031681565b6101786000805160206115b983398151915281565b6003546101f8906001600160a01b031681565b61015a6102ec366004610fd1565b610cbf565b6101c06102ff36600461114e565b610ce8565b610178600081565b6101c061031a366004610fd1565b610ded565b61017860008051602061159983398151915281565b6001546101f8906001600160a01b031681565b60006001600160e01b03198216637965db0b60e01b148061037857506301ffc9a760e01b6001600160e01b03198316145b92915050565b6000805160206115b983398151915261039681610e12565b6103ae600080516020611599833981519152836103b2565b5050565b6000828152602081905260409020600101546103cd81610e12565b6103d78383610e1f565b50505050565b6001600160a01b03811633146104065760405163334bd91960e11b815260040160405180910390fd5b6104108282610eb1565b505050565b6001546040516331a9108f60e11b8152600481018490526000916001600160a01b031690636352211e90602401602060405180830381865afa15801561045f573d6000803e3d6000fd5b505050506040513d601f19601f8201168201806040525081019061048391906111aa565b90506001600160a01b03811633146104ff5760405162461bcd60e51b815260206004820152603460248201527f417373657452656769737472793a2043616c6c6572206973206e6f74207468656044820152731037bbb732b91037b3103a3432903a37b5b2b71760611b60648201526084015b60405180910390fd5b6001600160a01b03821661057b5760405162461bcd60e51b815260206004820152603b60248201527f417373657452656769737472793a205472616e7366657220746f20746865207a60448201527f65726f2061646472657373206973206e6f7420616c6c6f7765642e000000000060648201526084016104f6565b6000838152600660205260409020600101541515806105e8575060408051602080820183526000918290528582526006905281902090517fc5d2460186f7233c927e7db2dcc703c0e500b653ca82273b7bfad8045d85a470916105dd91611201565b604051809103902014155b6106435760405162461bcd60e51b815260206004820152602660248201527f4173736574206e6f74207265676973746572656420696e20417373657452656760448201526534b9ba393c9760d11b60648201526084016104f6565b6005546000848152600660205260408120600101549091101561067257506003546001600160a01b0316610680565b506002546001600160a01b03165b60015460405163020604bf60e21b8152600481018690526001600160a01b0383811692169063081812fc90602401602060405180830381865afa1580156106cb573d6000803e3d6000fd5b505050506040513d601f19601f820116820180604052508101906106ef91906111aa565b6001600160a01b0316146107755760405162461bcd60e51b815260206004820152604160248201527f417373657452656769737472793a2043686f73656e204d756c7469536967576160448201527f6c6c6574206e6f7420617070726f76656420666f72207468697320746f6b656e6064820152601760f91b608482015260a4016104f6565b604080516001600160a01b038481166024830152858116604483015260648083018890528351808403909101815260849092018352602080830180516001600160e01b0316632142170760e11b1790528351625bbdfb60e91b8152935192936000939286169263b77bf600926004808401939192918290030181865afa158015610803573d6000803e3d6000fd5b505050506040513d601f19601f820116820180604052508101906108279190611277565b60015460405163a9496e7560e01b81529192506001600160a01b038086169263a9496e759261085f9216906000908790600401611290565b600060405180830381600087803b15801561087957600080fd5b505af115801561088d573d6000803e3d6000fd5b5050604080516001600160a01b03878116825260208201869052808a1694508816925089917fb1f1da2409dfb599a552eda8da9b1e1eac4b32365c9693efc526fd49a09dbfd8910160405180910390a4505050505050565b6000805160206115b98339815191526108fd81610e12565b6103ae7f591fa5458fe051cc8c02c405479bd38e00713c98dbd3db209d982048f1e638fa836103b2565b600660205260009081526040902080548190610942906111c7565b80601f016020809104026020016040519081016040528092919081815260200182805461096e906111c7565b80156109bb5780601f10610990576101008083540402835291602001916109bb565b820191906000526020600020905b81548152906001019060200180831161099e57829003601f168201915b5050505050908060010154905082565b6000805160206115998339815191526109e381610e12565b600083815260066020526040902060010154151580610a50575060408051602080820183526000918290528582526006905281902090517fc5d2460186f7233c927e7db2dcc703c0e500b653ca82273b7bfad8045d85a47091610a4591611201565b604051809103902014155b610a6c5760405162461bcd60e51b81526004016104f6906112c0565b6000838152600660205260409081902060010183905551339084907f82b6df3291f9080d2207b3ac66e27fa5585a89223742610bef7d8da58fc590b790610ab69086815260200190565b60405180910390a3505050565b600080516020611599833981519152610adb81610e12565b600086815260066020526040902060010154151580610b48575060408051602080820183526000918290528882526006905281902090517fc5d2460186f7233c927e7db2dcc703c0e500b653ca82273b7bfad8045d85a47091610b3d91611201565b604051809103902014155b610b645760405162461bcd60e51b81526004016104f6906112c0565b60066000878152602001908152602001600020600201604051806080016040528042815260200187878080601f016020809104026020016040519081016040528093929190818152602001838380828437600092019190915250505090825250604080516020601f880181900481028201810190925286815291810191908790879081908401838280828437600092018290525093855250503360209384015250835460018181018655948252908290208351600490920201908155908201519192909190820190610c369082611371565b5060408201516002820190610c4b9082611371565b5060609190910151600390910180546001600160a01b0319166001600160a01b03909216919091179055604051339087907fddf5168028249a8c8091da3714cf08991eeb7792af2f331fe75d004b555a838a90610caf90899089908990899061145a565b60405180910390a3505050505050565b6000918252602082815260408084206001600160a01b0393909316845291905290205460ff1690565b6000805160206115b9833981519152610d0081610e12565b6007805460009182610d118361148c565b90915550600154604051632851206560e21b81526001600160a01b0389811660048301526024820184905292935091169063a144819490604401600060405180830381600087803b158015610d6557600080fd5b505af1158015610d79573d6000803e3d6000fd5b50505060008281526006602052604090209050610d978587836114b3565b5060008181526006602052604090819020600101849055516001600160a01b0387169082907f17bfbb947caca86ac77ea06397ced8c4f77a1a6c82a21b5a05a738ceddc1f66090610caf90899089908990611574565b600082815260208190526040902060010154610e0881610e12565b6103d78383610eb1565b610e1c8133610f1c565b50565b6000610e2b8383610cbf565b610ea9576000838152602081815260408083206001600160a01b03861684529091529020805460ff19166001179055610e613390565b6001600160a01b0316826001600160a01b0316847f2f8788117e7eff1d82e926ec794901d17c78024a50270940304540a733656f0d60405160405180910390a4506001610378565b506000610378565b6000610ebd8383610cbf565b15610ea9576000838152602081815260408083206001600160a01b0386168085529252808320805460ff1916905551339286917ff6391f5c32d9c69d2a47ea670b442974b53935d1edc7fd64eb21e047a839171b9190a4506001610378565b610f268282610cbf565b6103ae5760405163e2517d3f60e01b81526001600160a01b0382166004820152602481018390526044016104f6565b600060208284031215610f6757600080fd5b81356001600160e01b031981168114610f7f57600080fd5b9392505050565b6001600160a01b0381168114610e1c57600080fd5b600060208284031215610fad57600080fd5b8135610f7f81610f86565b600060208284031215610fca57600080fd5b5035919050565b60008060408385031215610fe457600080fd5b823591506020830135610ff681610f86565b809150509250929050565b6000815180845260005b818110156110275760208185018101518683018201520161100b565b506000602082860101526020601f19601f83011685010191505092915050565b60408152600061105a6040830185611001565b90508260208301529392505050565b6000806040838503121561107c57600080fd5b50508035926020909101359150565b60008083601f84011261109d57600080fd5b50813567ffffffffffffffff8111156110b557600080fd5b6020830191508360208285010111156110cd57600080fd5b9250929050565b6000806000806000606086880312156110ec57600080fd5b85359450602086013567ffffffffffffffff8082111561110b57600080fd5b61111789838a0161108b565b9096509450604088013591508082111561113057600080fd5b5061113d8882890161108b565b969995985093965092949392505050565b6000806000806060858703121561116457600080fd5b843561116f81610f86565b9350602085013567ffffffffffffffff81111561118b57600080fd5b6111978782880161108b565b9598909750949560400135949350505050565b6000602082840312156111bc57600080fd5b8151610f7f81610f86565b600181811c908216806111db57607f821691505b6020821081036111fb57634e487b7160e01b600052602260045260246000fd5b50919050565b600080835461120f816111c7565b60018281168015611227576001811461123c5761126b565b60ff198416875282151583028701945061126b565b8760005260208060002060005b858110156112625781548a820152908401908201611249565b50505082870194505b50929695505050505050565b60006020828403121561128957600080fd5b5051919050565b60018060a01b03841681528260208201526060604082015260006112b76060830184611001565b95945050505050565b6020808252602d908201527f417373657420646f6573206e6f74206578697374206f72206e6f742066756c6c60408201526c3c903932b3b4b9ba32b932b21760991b606082015260800190565b634e487b7160e01b600052604160045260246000fd5b601f82111561041057600081815260208120601f850160051c8101602086101561134a5750805b601f850160051c820191505b8181101561136957828155600101611356565b505050505050565b815167ffffffffffffffff81111561138b5761138b61130d565b61139f8161139984546111c7565b84611323565b602080601f8311600181146113d457600084156113bc5750858301515b600019600386901b1c1916600185901b178555611369565b600085815260208120601f198616915b82811015611403578886015182559484019460019091019084016113e4565b50858210156114215787850151600019600388901b60f8161c191681555b5050505050600190811b01905550565b81835281816020850137506000828201602090810191909152601f909101601f19169091010190565b60408152600061146e604083018688611431565b8281036020840152611481818587611431565b979650505050505050565b6000600182016114ac57634e487b7160e01b600052601160045260246000fd5b5060010190565b67ffffffffffffffff8311156114cb576114cb61130d565b6114df836114d983546111c7565b83611323565b6000601f84116001811461151357600085156114fb5750838201355b600019600387901b1c1916600186901b17835561156d565b600083815260209020601f19861690835b828110156115445786850135825560209485019460019092019101611524565b50868210156115615760001960f88860031b161c19848701351681555b505060018560011b0183555b5050505050565b604081526000611588604083018587611431565b905082602083015294935050505056febdb3b186091af1eb1ae5c50fa0612c33068a4a081a418934ab31721be7069cd9a49807205ce4d355092ef5a8a18f56e8913cf4a201fbe287825b095693c21775a2646970667358221220fe30f83ceabf0d34e14f00c9c95560b857b9eee1c9b213f5e935e344d093196a64736f6c6343000814003360806040523480156200001157600080fd5b50604051620013b4380380620013b483398101604081905262000034916200012f565b806040518060400160405280600e81526020016d121a59da15985b1d59505cdcd95d60921b8152506040518060400160405280600381526020016248564160e81b815250816000908162000089919062000206565b50600162000098828262000206565b5050506001600160a01b038116620000ca57604051631e4fbdf760e01b81526000600482015260240160405180910390fd5b620000d581620000dd565b5050620002d2565b600680546001600160a01b038381166001600160a01b0319831681179093556040519116919082907f8be0079c531659141344cd1fd0a4f28419497f9722a3daafe3b4186f6b6457e090600090a35050565b6000602082840312156200014257600080fd5b81516001600160a01b03811681146200015a57600080fd5b9392505050565b634e487b7160e01b600052604160045260246000fd5b600181811c908216806200018c57607f821691505b602082108103620001ad57634e487b7160e01b600052602260045260246000fd5b50919050565b601f8211156200020157600081815260208120601f850160051c81016020861015620001dc5750805b601f850160051c820191505b81811015620001fd57828155600101620001e8565b5050505b505050565b81516001600160401b0381111562000222576200022262000161565b6200023a8162000233845462000177565b84620001b3565b602080601f831160018114620002725760008415620002595750858301515b600019600386901b1c1916600185901b178555620001fd565b600085815260208120601f198616915b82811015620002a35788860151825594840194600190910190840162000282565b5085821015620002c25787850151600019600388901b60f8161c191681555b5050505050600190811b01905550565b6110d280620002e26000396000f3fe608060405234801561001057600080fd5b506004361061010b5760003560e01c8063715018a6116100a2578063a22cb46511610071578063a22cb4651461021b578063b88d4fde1461022e578063c87b56dd14610241578063e985e9c514610254578063f2fde38b1461026757600080fd5b8063715018a6146101e75780638da5cb5b146101ef57806395d89b4114610200578063a14481941461020857600080fd5b806323b872dd116100de57806323b872dd1461018d57806342842e0e146101a05780636352211e146101b357806370a08231146101c657600080fd5b806301ffc9a71461011057806306fdde0314610138578063081812fc1461014d578063095ea7b314610178575b600080fd5b61012361011e366004610d42565b61027a565b60405190151581526020015b60405180910390f35b6101406102cc565b60405161012f9190610daf565b61016061015b366004610dc2565b61035e565b6040516001600160a01b03909116815260200161012f565b61018b610186366004610df7565b610387565b005b61018b61019b366004610e21565b610396565b61018b6101ae366004610e21565b610426565b6101606101c1366004610dc2565b610446565b6101d96101d4366004610e5d565b610451565b60405190815260200161012f565b61018b610499565b6006546001600160a01b0316610160565b6101406104ad565b61018b610216366004610df7565b6104bc565b61018b610229366004610e78565b6104ce565b61018b61023c366004610eca565b6104d9565b61014061024f366004610dc2565b6104f1565b610123610262366004610fa6565b610566565b61018b610275366004610e5d565b610594565b60006001600160e01b031982166380ac58cd60e01b14806102ab57506001600160e01b03198216635b5e139f60e01b145b806102c657506301ffc9a760e01b6001600160e01b03198316145b92915050565b6060600080546102db90610fd9565b80601f016020809104026020016040519081016040528092919081815260200182805461030790610fd9565b80156103545780601f1061032957610100808354040283529160200191610354565b820191906000526020600020905b81548152906001019060200180831161033757829003601f168201915b5050505050905090565b6000610369826105d2565b506000828152600460205260409020546001600160a01b03166102c6565b61039282823361060b565b5050565b6001600160a01b0382166103c557604051633250574960e11b8152600060048201526024015b60405180910390fd5b60006103d2838333610618565b9050836001600160a01b0316816001600160a01b031614610420576040516364283d7b60e01b81526001600160a01b03808616600483015260248201849052821660448201526064016103bc565b50505050565b610441838383604051806020016040528060008152506104d9565b505050565b60006102c6826105d2565b60006001600160a01b03821661047d576040516322718ad960e21b8152600060048201526024016103bc565b506001600160a01b031660009081526003602052604090205490565b6104a1610711565b6104ab600061073e565b565b6060600180546102db90610fd9565b6104c4610711565b6103928282610790565b6103923383836107aa565b6104e4848484610396565b6104203385858585610849565b60606104fc826105d2565b50600061051460408051602081019091526000815290565b90506000815111610534576040518060200160405280600081525061055f565b8061053e84610974565b60405160200161054f929190611013565b6040516020818303038152906040525b9392505050565b6001600160a01b03918216600090815260056020908152604080832093909416825291909152205460ff1690565b61059c610711565b6001600160a01b0381166105c657604051631e4fbdf760e01b8152600060048201526024016103bc565b6105cf8161073e565b50565b6000818152600260205260408120546001600160a01b0316806102c657604051637e27328960e01b8152600481018490526024016103bc565b6104418383836001610a07565b6000828152600260205260408120546001600160a01b039081169083161561064557610645818486610b0d565b6001600160a01b0381161561068357610662600085600080610a07565b6001600160a01b038116600090815260036020526040902080546000190190555b6001600160a01b038516156106b2576001600160a01b0385166000908152600360205260409020805460010190555b60008481526002602052604080822080546001600160a01b0319166001600160a01b0389811691821790925591518793918516917fddf252ad1be2c89b69c2b068fc378daa952ba7f163c4a11628f55a4df523b3ef91a4949350505050565b6006546001600160a01b031633146104ab5760405163118cdaa760e01b81523360048201526024016103bc565b600680546001600160a01b038381166001600160a01b0319831681179093556040519116919082907f8be0079c531659141344cd1fd0a4f28419497f9722a3daafe3b4186f6b6457e090600090a35050565b610392828260405180602001604052806000815250610b71565b6001600160a01b0382166107dc57604051630b61174360e31b81526001600160a01b03831660048201526024016103bc565b6001600160a01b03838116600081815260056020908152604080832094871680845294825291829020805460ff191686151590811790915591519182527f17307eab39ab6107e8899845ad3d59bd9653f200f220920489ca2b5937696c31910160405180910390a3505050565b6001600160a01b0383163b1561096d57604051630a85bd0160e11b81526001600160a01b0384169063150b7a029061088b908890889087908790600401611042565b6020604051808303816000875af19250505080156108c6575060408051601f3d908101601f191682019092526108c39181019061107f565b60015b61092f573d8080156108f4576040519150601f19603f3d011682016040523d82523d6000602084013e6108f9565b606091505b50805160000361092757604051633250574960e11b81526001600160a01b03851660048201526024016103bc565b805181602001fd5b6001600160e01b03198116630a85bd0160e11b1461096b57604051633250574960e11b81526001600160a01b03851660048201526024016103bc565b505b5050505050565b6060600061098183610b89565b600101905060008167ffffffffffffffff8111156109a1576109a1610eb4565b6040519080825280601f01601f1916602001820160405280156109cb576020820181803683370190505b5090508181016020015b600019016f181899199a1a9b1b9c1cb0b131b232b360811b600a86061a8153600a85049450846109d557509392505050565b8080610a1b57506001600160a01b03821615155b15610add576000610a2b846105d2565b90506001600160a01b03831615801590610a575750826001600160a01b0316816001600160a01b031614155b8015610a6a5750610a688184610566565b155b15610a935760405163a9fbf51f60e01b81526001600160a01b03841660048201526024016103bc565b8115610adb5783856001600160a01b0316826001600160a01b03167f8c5be1e5ebec7d5bd14f71427d1e84f3dd0314c0f7b2291e5b200ac8c7c3b92560405160405180910390a45b505b5050600090815260046020526040902080546001600160a01b0319166001600160a01b0392909216919091179055565b610b18838383610c61565b610441576001600160a01b038316610b4657604051637e27328960e01b8152600481018290526024016103bc565b60405163177e802f60e01b81526001600160a01b0383166004820152602481018290526044016103bc565b610b7b8383610cc7565b610441336000858585610849565b60008072184f03e93ff9f4daa797ed6e38ed64bf6a1f0160401b8310610bc85772184f03e93ff9f4daa797ed6e38ed64bf6a1f0160401b830492506040015b6d04ee2d6d415b85acef81000000008310610bf4576d04ee2d6d415b85acef8100000000830492506020015b662386f26fc100008310610c1257662386f26fc10000830492506010015b6305f5e1008310610c2a576305f5e100830492506008015b6127108310610c3e57612710830492506004015b60648310610c50576064830492506002015b600a83106102c65760010192915050565b60006001600160a01b03831615801590610cbf5750826001600160a01b0316846001600160a01b03161480610c9b5750610c9b8484610566565b80610cbf57506000828152600460205260409020546001600160a01b038481169116145b949350505050565b6001600160a01b038216610cf157604051633250574960e11b8152600060048201526024016103bc565b6000610cff83836000610618565b90506001600160a01b03811615610441576040516339e3563760e11b8152600060048201526024016103bc565b6001600160e01b0319811681146105cf57600080fd5b600060208284031215610d5457600080fd5b813561055f81610d2c565b60005b83811015610d7a578181015183820152602001610d62565b50506000910152565b60008151808452610d9b816020860160208601610d5f565b601f01601f19169290920160200192915050565b60208152600061055f6020830184610d83565b600060208284031215610dd457600080fd5b5035919050565b80356001600160a01b0381168114610df257600080fd5b919050565b60008060408385031215610e0a57600080fd5b610e1383610ddb565b946020939093013593505050565b600080600060608486031215610e3657600080fd5b610e3f84610ddb565b9250610e4d60208501610ddb565b9150604084013590509250925092565b600060208284031215610e6f57600080fd5b61055f82610ddb565b60008060408385031215610e8b57600080fd5b610e9483610ddb565b915060208301358015158114610ea957600080fd5b809150509250929050565b634e487b7160e01b600052604160045260246000fd5b60008060008060808587031215610ee057600080fd5b610ee985610ddb565b9350610ef760208601610ddb565b925060408501359150606085013567ffffffffffffffff80821115610f1b57600080fd5b818701915087601f830112610f2f57600080fd5b813581811115610f4157610f41610eb4565b604051601f8201601f19908116603f01168101908382118183101715610f6957610f69610eb4565b816040528281528a6020848701011115610f8257600080fd5b82602086016020830137600060208483010152809550505050505092959194509250565b60008060408385031215610fb957600080fd5b610fc283610ddb565b9150610fd060208401610ddb565b90509250929050565b600181811c90821680610fed57607f821691505b60208210810361100d57634e487b7160e01b600052602260045260246000fd5b50919050565b60008351611025818460208801610d5f565b835190830190611039818360208801610d5f565b01949350505050565b6001600160a01b038581168252841660208201526040810183905260806060820181905260009061107590830184610d83565b9695505050505050565b60006020828403121561109157600080fd5b815161055f81610d2c56fea2646970667358221220ca5519169a819d92e4d63af63f67fd4ea157752f7601dea1164a51d5838abc0f64736f6c63430008140033",
  "linkReferences": {},
  "deployedLinkReferences": {}
}