{
  "_format": "hh-sol-artifact-1",
  "contractName": "AssetRegistry",
  "sourceName": "contracts/AssetRegistry.sol",
  "abi": [
    {
      "inputs": [
        {
          "internalType": "address",
          "name": "multiSigWalletAddress",
          "type": "address"
        },
        {
          "internalType": "address",
          "name": "verifierOracleAddress",
          "type": "address"
        }
      ],
      "stateMutability": "nonpayable",
      "type": "constructor"
    },
    {
      "inputs": [],
      "name": "AccessControlBadConfirmation",
      "type": "error"
    },
    {
      "inputs": [
        {
          "internalType": "address",
          "name": "account",
          "type": "address"
        },
        {
          "internalType": "bytes32",
          "name": "neededRole",
          "type": "bytes32"
        }
      ],
      "name": "AccessControlUnauthorizedAccount",
      "type": "error"
    },
    {
      "anonymous": false,
      "inputs": [
        {
          "indexed": true,
          "internalType": "uint256",
          "name": "tokenId",
          "type": "uint256"
        },
        {
          "indexed": true,
          "internalType": "address",
          "name": "owner",
          "type": "address"
        },
        {
          "indexed": false,
          "internalType": "string",
          "name": "assetDetails",
          "type": "string"
        }
      ],
      "name": "AssetRegistered",
      "type": "event"
    },
    {
      "anonymous": false,
      "inputs": [
        {
          "indexed": true,
          "internalType": "uint256",
          "name": "tokenId",
          "type": "uint256"
        },
        {
          "indexed": false,
          "internalType": "string",
          "name": "eventType",
          "type": "string"
        },
        {
          "indexed": false,
          "internalType": "string",
          "name": "description",
          "type": "string"
        },
        {
          "indexed": true,
          "internalType": "address",
          "name": "recordedBy",
          "type": "address"
        }
      ],
      "name": "LifecycleEventAdded",
      "type": "event"
    },
    {
      "anonymous": false,
      "inputs": [
        {
          "indexed": true,
          "internalType": "bytes32",
          "name": "role",
          "type": "bytes32"
        },
        {
          "indexed": true,
          "internalType": "bytes32",
          "name": "previousAdminRole",
          "type": "bytes32"
        },
        {
          "indexed": true,
          "internalType": "bytes32",
          "name": "newAdminRole",
          "type": "bytes32"
        }
      ],
      "name": "RoleAdminChanged",
      "type": "event"
    },
    {
      "anonymous": false,
      "inputs": [
        {
          "indexed": true,
          "internalType": "bytes32",
          "name": "role",
          "type": "bytes32"
        },
        {
          "indexed": true,
          "internalType": "address",
          "name": "account",
          "type": "address"
        },
        {
          "indexed": true,
          "internalType": "address",
          "name": "sender",
          "type": "address"
        }
      ],
      "name": "RoleGranted",
      "type": "event"
    },
    {
      "anonymous": false,
      "inputs": [
        {
          "indexed": true,
          "internalType": "bytes32",
          "name": "role",
          "type": "bytes32"
        },
        {
          "indexed": true,
          "internalType": "address",
          "name": "account",
          "type": "address"
        },
        {
          "indexed": true,
          "internalType": "address",
          "name": "sender",
          "type": "address"
        }
      ],
      "name": "RoleRevoked",
      "type": "event"
    },
    {
      "inputs": [],
      "name": "ADMIN_ROLE",
      "outputs": [
        {
          "internalType": "bytes32",
          "name": "",
          "type": "bytes32"
        }
      ],
      "stateMutability": "view",
      "type": "function"
    },
    {
      "inputs": [],
      "name": "BANK_ROLE",
      "outputs": [
        {
          "internalType": "bytes32",
          "name": "",
          "type": "bytes32"
        }
      ],
      "stateMutability": "view",
      "type": "function"
    },
    {
      "inputs": [],
      "name": "CERTIFIED_PROFESSIONAL_ROLE",
      "outputs": [
        {
          "internalType": "bytes32",
          "name": "",
          "type": "bytes32"
        }
      ],
      "stateMutability": "view",
      "type": "function"
    },
    {
      "inputs": [],
      "name": "DEFAULT_ADMIN_ROLE",
      "outputs": [
        {
          "internalType": "bytes32",
          "name": "",
          "type": "bytes32"
        }
      ],
      "stateMutability": "view",
      "type": "function"
    },
    {
      "inputs": [
        {
          "internalType": "uint256",
          "name": "tokenId",
          "type": "uint256"
        },
        {
          "internalType": "string",
          "name": "eventType",
          "type": "string"
        },
        {
          "internalType": "string",
          "name": "description",
          "type": "string"
        }
      ],
      "name": "addLifecycleEvent",
      "outputs": [],
      "stateMutability": "nonpayable",
      "type": "function"
    },
    {
      "inputs": [
        {
          "internalType": "uint256",
          "name": "",
          "type": "uint256"
        }
      ],
      "name": "assetDataStore",
      "outputs": [
        {
          "internalType": "string",
          "name": "assetDetails",
          "type": "string"
        }
      ],
      "stateMutability": "view",
      "type": "function"
    },
    {
      "inputs": [],
      "name": "assetNft",
      "outputs": [
        {
          "internalType": "contract AssetNFT",
          "name": "",
          "type": "address"
        }
      ],
      "stateMutability": "view",
      "type": "function"
    },
    {
      "inputs": [
        {
          "internalType": "bytes32",
          "name": "role",
          "type": "bytes32"
        }
      ],
      "name": "getRoleAdmin",
      "outputs": [
        {
          "internalType": "bytes32",
          "name": "",
          "type": "bytes32"
        }
      ],
      "stateMutability": "view",
      "type": "function"
    },
    {
      "inputs": [
        {
          "internalType": "address",
          "name": "user",
          "type": "address"
        }
      ],
      "name": "grantBankRole",
      "outputs": [],
      "stateMutability": "nonpayable",
      "type": "function"
    },
    {
      "inputs": [
        {
          "internalType": "address",
          "name": "user",
          "type": "address"
        }
      ],
      "name": "grantCertifiedProfessionalRole",
      "outputs": [],
      "stateMutability": "nonpayable",
      "type": "function"
    },
    {
      "inputs": [
        {
          "internalType": "bytes32",
          "name": "role",
          "type": "bytes32"
        },
        {
          "internalType": "address",
          "name": "account",
          "type": "address"
        }
      ],
      "name": "grantRole",
      "outputs": [],
      "stateMutability": "nonpayable",
      "type": "function"
    },
    {
      "inputs": [
        {
          "internalType": "bytes32",
          "name": "role",
          "type": "bytes32"
        },
        {
          "internalType": "address",
          "name": "account",
          "type": "address"
        }
      ],
      "name": "hasRole",
      "outputs": [
        {
          "internalType": "bool",
          "name": "",
          "type": "bool"
        }
      ],
      "stateMutability": "view",
      "type": "function"
    },
    {
      "inputs": [],
      "name": "multiSigWallet",
      "outputs": [
        {
          "internalType": "contract MultiSigWallet",
          "name": "",
          "type": "address"
        }
      ],
      "stateMutability": "view",
      "type": "function"
    },
    {
      "inputs": [
        {
          "internalType": "address",
          "name": "owner",
          "type": "address"
        },
        {
          "internalType": "string",
          "name": "assetDetails",
          "type": "string"
        }
      ],
      "name": "registerNewAsset",
      "outputs": [],
      "stateMutability": "nonpayable",
      "type": "function"
    },
    {
      "inputs": [
        {
          "internalType": "bytes32",
          "name": "role",
          "type": "bytes32"
        },
        {
          "internalType": "address",
          "name": "callerConfirmation",
          "type": "address"
        }
      ],
      "name": "renounceRole",
      "outputs": [],
      "stateMutability": "nonpayable",
      "type": "function"
    },
    {
      "inputs": [
        {
          "internalType": "bytes32",
          "name": "role",
          "type": "bytes32"
        },
        {
          "internalType": "address",
          "name": "account",
          "type": "address"
        }
      ],
      "name": "revokeRole",
      "outputs": [],
      "stateMutability": "nonpayable",
      "type": "function"
    },
    {
      "inputs": [
        {
          "internalType": "bytes4",
          "name": "interfaceId",
          "type": "bytes4"
        }
      ],
      "name": "supportsInterface",
      "outputs": [
        {
          "internalType": "bool",
          "name": "",
          "type": "bool"
        }
      ],
      "stateMutability": "view",
      "type": "function"
    },
    {
      "inputs": [],
      "name": "verifierOracle",
      "outputs": [
        {
          "internalType": "contract VerifierOracle",
          "name": "",
          "type": "address"
        }
      ],
      "stateMutability": "view",
      "type": "function"
    }
  ],
  "bytecode": "0x60806040523480156200001157600080fd5b5060405162002481380380620024818339810160408190526200003491620001c7565b62000041600033620000ed565b506200006e7fa49807205ce4d355092ef5a8a18f56e8913cf4a201fbe287825b095693c2177533620000ed565b50306040516200007e906200019c565b6001600160a01b039091168152602001604051809103906000f080158015620000ab573d6000803e3d6000fd5b50600180546001600160a01b03199081166001600160a01b039384161790915560028054821694831694909417909355600380549093169116179055620001ff565b6000828152602081815260408083206001600160a01b038516845290915281205460ff1662000192576000838152602081815260408083206001600160a01b03861684529091529020805460ff19166001179055620001493390565b6001600160a01b0316826001600160a01b0316847f2f8788117e7eff1d82e926ec794901d17c78024a50270940304540a733656f0d60405160405180910390a450600162000196565b5060005b92915050565b6113b480620010cd83390190565b80516001600160a01b0381168114620001c257600080fd5b919050565b60008060408385031215620001db57600080fd5b620001e683620001aa565b9150620001f660208401620001aa565b90509250929050565b610ebe806200020f6000396000f3fe608060405234801561001057600080fd5b50600436106101165760003560e01c806347befd5d116100a257806391d148541161007157806391d1485414610282578063a217fddf14610295578063d547741f1461029d578063f22881db146102b0578063fe4da505146102d757600080fd5b806347befd5d146102345780634b8feb4f146102475780636733c8e01461025a57806375b238fc1461026d57600080fd5b806325860e9f116100e957806325860e9f146101b05780632f2ff15d146101db57806336568abe146101ee5780634039694f1461020157806346a7010f1461021457600080fd5b806301ffc9a71461011b5780630eb714321461014357806318c7e2b614610178578063248a9ca31461018d575b600080fd5b61012e61012936600461097c565b6102ea565b60405190151581526020015b60405180910390f35b61016a7f591fa5458fe051cc8c02c405479bd38e00713c98dbd3db209d982048f1e638fa81565b60405190815260200161013a565b61018b6101863660046109c2565b610321565b005b61016a61019b3660046109df565b60009081526020819052604090206001015490565b6003546101c3906001600160a01b031681565b6040516001600160a01b03909116815260200161013a565b61018b6101e93660046109f8565b610367565b61018b6101fc3660046109f8565b610392565b61018b61020f3660046109c2565b6103ca565b6102276102223660046109df565b61040c565b60405161013a9190610a28565b61018b610242366004610abf565b6104aa565b6002546101c3906001600160a01b031681565b61018b610268366004610b14565b6105a5565b61016a600080516020610e6983398151915281565b61012e6102903660046109f8565b6107eb565b61016a600081565b61018b6102ab3660046109f8565b610814565b61016a7fbdb3b186091af1eb1ae5c50fa0612c33068a4a081a418934ab31721be7069cd981565b6001546101c3906001600160a01b031681565b60006001600160e01b03198216637965db0b60e01b148061031b57506301ffc9a760e01b6001600160e01b03198316145b92915050565b600080516020610e6983398151915261033981610839565b6103637fbdb3b186091af1eb1ae5c50fa0612c33068a4a081a418934ab31721be7069cd983610367565b5050565b60008281526020819052604090206001015461038281610839565b61038c8383610846565b50505050565b6001600160a01b03811633146103bb5760405163334bd91960e11b815260040160405180910390fd5b6103c582826108d8565b505050565b600080516020610e698339815191526103e281610839565b6103637f591fa5458fe051cc8c02c405479bd38e00713c98dbd3db209d982048f1e638fa83610367565b60046020526000908152604090208054819061042790610b8e565b80601f016020809104026020016040519081016040528092919081815260200182805461045390610b8e565b80156104a05780601f10610475576101008083540402835291602001916104a0565b820191906000526020600020905b81548152906001019060200180831161048357829003601f168201915b5050505050905081565b600080516020610e698339815191526104c281610839565b60058054600091826104d383610bc8565b90915550600154604051632851206560e21b81526001600160a01b0388811660048301526024820184905292935091169063a144819490604401600060405180830381600087803b15801561052757600080fd5b505af115801561053b573d6000803e3d6000fd5b50505060008281526004602052604090209050610559848683610c53565b50846001600160a01b0316817f522902797ecf25adb7fe6834ed0d749090896244923f1c3e0b7ca938687ea08f8686604051610596929190610d3d565b60405180910390a35050505050565b7fbdb3b186091af1eb1ae5c50fa0612c33068a4a081a418934ab31721be7069cd96105cf81610839565b6001546040516331a9108f60e11b8152600481018890526000916001600160a01b031690636352211e90602401602060405180830381865afa158015610619573d6000803e3d6000fd5b505050506040513d601f19601f8201168201806040525081019061063d9190610d59565b6001600160a01b0316036106905760405162461bcd60e51b815260206004820152601560248201527420b9b9b2ba103237b2b9903737ba1032bc34b9ba1760591b60448201526064015b60405180910390fd5b60046000878152602001908152602001600020600101604051806080016040528042815260200187878080601f016020809104026020016040519081016040528093929190818152602001838380828437600092019190915250505090825250604080516020601f8801819004810282018101909252868152918101919087908790819084018382808284376000920182905250938552505033602093840152508354600181810186559482529082902083516004909202019081559082015191929091908201906107629082610d76565b50604082015160028201906107779082610d76565b5060609190910151600390910180546001600160a01b0319166001600160a01b03909216919091179055604051339087907fddf5168028249a8c8091da3714cf08991eeb7792af2f331fe75d004b555a838a906107db908990899089908990610e36565b60405180910390a3505050505050565b6000918252602082815260408084206001600160a01b0393909316845291905290205460ff1690565b60008281526020819052604090206001015461082f81610839565b61038c83836108d8565b6108438133610943565b50565b600061085283836107eb565b6108d0576000838152602081815260408083206001600160a01b03861684529091529020805460ff191660011790556108883390565b6001600160a01b0316826001600160a01b0316847f2f8788117e7eff1d82e926ec794901d17c78024a50270940304540a733656f0d60405160405180910390a450600161031b565b50600061031b565b60006108e483836107eb565b156108d0576000838152602081815260408083206001600160a01b0386168085529252808320805460ff1916905551339286917ff6391f5c32d9c69d2a47ea670b442974b53935d1edc7fd64eb21e047a839171b9190a450600161031b565b61094d82826107eb565b6103635760405163e2517d3f60e01b81526001600160a01b038216600482015260248101839052604401610687565b60006020828403121561098e57600080fd5b81356001600160e01b0319811681146109a657600080fd5b9392505050565b6001600160a01b038116811461084357600080fd5b6000602082840312156109d457600080fd5b81356109a6816109ad565b6000602082840312156109f157600080fd5b5035919050565b60008060408385031215610a0b57600080fd5b823591506020830135610a1d816109ad565b809150509250929050565b600060208083528351808285015260005b81811015610a5557858101830151858201604001528201610a39565b506000604082860101526040601f19601f8301168501019250505092915050565b60008083601f840112610a8857600080fd5b50813567ffffffffffffffff811115610aa057600080fd5b602083019150836020828501011115610ab857600080fd5b9250929050565b600080600060408486031215610ad457600080fd5b8335610adf816109ad565b9250602084013567ffffffffffffffff811115610afb57600080fd5b610b0786828701610a76565b9497909650939450505050565b600080600080600060608688031215610b2c57600080fd5b85359450602086013567ffffffffffffffff80821115610b4b57600080fd5b610b5789838a01610a76565b90965094506040880135915080821115610b7057600080fd5b50610b7d88828901610a76565b969995985093965092949392505050565b600181811c90821680610ba257607f821691505b602082108103610bc257634e487b7160e01b600052602260045260246000fd5b50919050565b600060018201610be857634e487b7160e01b600052601160045260246000fd5b5060010190565b634e487b7160e01b600052604160045260246000fd5b601f8211156103c557600081815260208120601f850160051c81016020861015610c2c5750805b601f850160051c820191505b81811015610c4b57828155600101610c38565b505050505050565b67ffffffffffffffff831115610c6b57610c6b610bef565b610c7f83610c798354610b8e565b83610c05565b6000601f841160018114610cb35760008515610c9b5750838201355b600019600387901b1c1916600186901b178355610d0d565b600083815260209020601f19861690835b82811015610ce45786850135825560209485019460019092019101610cc4565b5086821015610d015760001960f88860031b161c19848701351681555b505060018560011b0183555b5050505050565b81835281816020850137506000828201602090810191909152601f909101601f19169091010190565b602081526000610d51602083018486610d14565b949350505050565b600060208284031215610d6b57600080fd5b81516109a6816109ad565b815167ffffffffffffffff811115610d9057610d90610bef565b610da481610d9e8454610b8e565b84610c05565b602080601f831160018114610dd95760008415610dc15750858301515b600019600386901b1c1916600185901b178555610c4b565b600085815260208120601f198616915b82811015610e0857888601518255948401946001909101908401610de9565b5085821015610e265787850151600019600388901b60f8161c191681555b5050505050600190811b01905550565b604081526000610e4a604083018688610d14565b8281036020840152610e5d818587610d14565b97965050505050505056fea49807205ce4d355092ef5a8a18f56e8913cf4a201fbe287825b095693c21775a264697066735822122013c5cd92cd2bb747f53f24821e5987095fce8ef05df851c237bd4bc5d38dd97a64736f6c6343000814003360806040523480156200001157600080fd5b50604051620013b4380380620013b483398101604081905262000034916200012f565b806040518060400160405280600e81526020016d121a59da15985b1d59505cdcd95d60921b8152506040518060400160405280600381526020016248564160e81b815250816000908162000089919062000206565b50600162000098828262000206565b5050506001600160a01b038116620000ca57604051631e4fbdf760e01b81526000600482015260240160405180910390fd5b620000d581620000dd565b5050620002d2565b600680546001600160a01b038381166001600160a01b0319831681179093556040519116919082907f8be0079c531659141344cd1fd0a4f28419497f9722a3daafe3b4186f6b6457e090600090a35050565b6000602082840312156200014257600080fd5b81516001600160a01b03811681146200015a57600080fd5b9392505050565b634e487b7160e01b600052604160045260246000fd5b600181811c908216806200018c57607f821691505b602082108103620001ad57634e487b7160e01b600052602260045260246000fd5b50919050565b601f8211156200020157600081815260208120601f850160051c81016020861015620001dc5750805b601f850160051c820191505b81811015620001fd57828155600101620001e8565b5050505b505050565b81516001600160401b0381111562000222576200022262000161565b6200023a8162000233845462000177565b84620001b3565b602080601f831160018114620002725760008415620002595750858301515b600019600386901b1c1916600185901b178555620001fd565b600085815260208120601f198616915b82811015620002a35788860151825594840194600190910190840162000282565b5085821015620002c25787850151600019600388901b60f8161c191681555b5050505050600190811b01905550565b6110d280620002e26000396000f3fe608060405234801561001057600080fd5b506004361061010b5760003560e01c8063715018a6116100a2578063a22cb46511610071578063a22cb4651461021b578063b88d4fde1461022e578063c87b56dd14610241578063e985e9c514610254578063f2fde38b1461026757600080fd5b8063715018a6146101e75780638da5cb5b146101ef57806395d89b4114610200578063a14481941461020857600080fd5b806323b872dd116100de57806323b872dd1461018d57806342842e0e146101a05780636352211e146101b357806370a08231146101c657600080fd5b806301ffc9a71461011057806306fdde0314610138578063081812fc1461014d578063095ea7b314610178575b600080fd5b61012361011e366004610d42565b61027a565b60405190151581526020015b60405180910390f35b6101406102cc565b60405161012f9190610daf565b61016061015b366004610dc2565b61035e565b6040516001600160a01b03909116815260200161012f565b61018b610186366004610df7565b610387565b005b61018b61019b366004610e21565b610396565b61018b6101ae366004610e21565b610426565b6101606101c1366004610dc2565b610446565b6101d96101d4366004610e5d565b610451565b60405190815260200161012f565b61018b610499565b6006546001600160a01b0316610160565b6101406104ad565b61018b610216366004610df7565b6104bc565b61018b610229366004610e78565b6104ce565b61018b61023c366004610eca565b6104d9565b61014061024f366004610dc2565b6104f1565b610123610262366004610fa6565b610566565b61018b610275366004610e5d565b610594565b60006001600160e01b031982166380ac58cd60e01b14806102ab57506001600160e01b03198216635b5e139f60e01b145b806102c657506301ffc9a760e01b6001600160e01b03198316145b92915050565b6060600080546102db90610fd9565b80601f016020809104026020016040519081016040528092919081815260200182805461030790610fd9565b80156103545780601f1061032957610100808354040283529160200191610354565b820191906000526020600020905b81548152906001019060200180831161033757829003601f168201915b5050505050905090565b6000610369826105d2565b506000828152600460205260409020546001600160a01b03166102c6565b61039282823361060b565b5050565b6001600160a01b0382166103c557604051633250574960e11b8152600060048201526024015b60405180910390fd5b60006103d2838333610618565b9050836001600160a01b0316816001600160a01b031614610420576040516364283d7b60e01b81526001600160a01b03808616600483015260248201849052821660448201526064016103bc565b50505050565b610441838383604051806020016040528060008152506104d9565b505050565b60006102c6826105d2565b60006001600160a01b03821661047d576040516322718ad960e21b8152600060048201526024016103bc565b506001600160a01b031660009081526003602052604090205490565b6104a1610711565b6104ab600061073e565b565b6060600180546102db90610fd9565b6104c4610711565b6103928282610790565b6103923383836107aa565b6104e4848484610396565b6104203385858585610849565b60606104fc826105d2565b50600061051460408051602081019091526000815290565b90506000815111610534576040518060200160405280600081525061055f565b8061053e84610974565b60405160200161054f929190611013565b6040516020818303038152906040525b9392505050565b6001600160a01b03918216600090815260056020908152604080832093909416825291909152205460ff1690565b61059c610711565b6001600160a01b0381166105c657604051631e4fbdf760e01b8152600060048201526024016103bc565b6105cf8161073e565b50565b6000818152600260205260408120546001600160a01b0316806102c657604051637e27328960e01b8152600481018490526024016103bc565b6104418383836001610a07565b6000828152600260205260408120546001600160a01b039081169083161561064557610645818486610b0d565b6001600160a01b0381161561068357610662600085600080610a07565b6001600160a01b038116600090815260036020526040902080546000190190555b6001600160a01b038516156106b2576001600160a01b0385166000908152600360205260409020805460010190555b60008481526002602052604080822080546001600160a01b0319166001600160a01b0389811691821790925591518793918516917fddf252ad1be2c89b69c2b068fc378daa952ba7f163c4a11628f55a4df523b3ef91a4949350505050565b6006546001600160a01b031633146104ab5760405163118cdaa760e01b81523360048201526024016103bc565b600680546001600160a01b038381166001600160a01b0319831681179093556040519116919082907f8be0079c531659141344cd1fd0a4f28419497f9722a3daafe3b4186f6b6457e090600090a35050565b610392828260405180602001604052806000815250610b71565b6001600160a01b0382166107dc57604051630b61174360e31b81526001600160a01b03831660048201526024016103bc565b6001600160a01b03838116600081815260056020908152604080832094871680845294825291829020805460ff191686151590811790915591519182527f17307eab39ab6107e8899845ad3d59bd9653f200f220920489ca2b5937696c31910160405180910390a3505050565b6001600160a01b0383163b1561096d57604051630a85bd0160e11b81526001600160a01b0384169063150b7a029061088b908890889087908790600401611042565b6020604051808303816000875af19250505080156108c6575060408051601f3d908101601f191682019092526108c39181019061107f565b60015b61092f573d8080156108f4576040519150601f19603f3d011682016040523d82523d6000602084013e6108f9565b606091505b50805160000361092757604051633250574960e11b81526001600160a01b03851660048201526024016103bc565b805181602001fd5b6001600160e01b03198116630a85bd0160e11b1461096b57604051633250574960e11b81526001600160a01b03851660048201526024016103bc565b505b5050505050565b6060600061098183610b89565b600101905060008167ffffffffffffffff8111156109a1576109a1610eb4565b6040519080825280601f01601f1916602001820160405280156109cb576020820181803683370190505b5090508181016020015b600019016f181899199a1a9b1b9c1cb0b131b232b360811b600a86061a8153600a85049450846109d557509392505050565b8080610a1b57506001600160a01b03821615155b15610add576000610a2b846105d2565b90506001600160a01b03831615801590610a575750826001600160a01b0316816001600160a01b031614155b8015610a6a5750610a688184610566565b155b15610a935760405163a9fbf51f60e01b81526001600160a01b03841660048201526024016103bc565b8115610adb5783856001600160a01b0316826001600160a01b03167f8c5be1e5ebec7d5bd14f71427d1e84f3dd0314c0f7b2291e5b200ac8c7c3b92560405160405180910390a45b505b5050600090815260046020526040902080546001600160a01b0319166001600160a01b0392909216919091179055565b610b18838383610c61565b610441576001600160a01b038316610b4657604051637e27328960e01b8152600481018290526024016103bc565b60405163177e802f60e01b81526001600160a01b0383166004820152602481018290526044016103bc565b610b7b8383610cc7565b610441336000858585610849565b60008072184f03e93ff9f4daa797ed6e38ed64bf6a1f0160401b8310610bc85772184f03e93ff9f4daa797ed6e38ed64bf6a1f0160401b830492506040015b6d04ee2d6d415b85acef81000000008310610bf4576d04ee2d6d415b85acef8100000000830492506020015b662386f26fc100008310610c1257662386f26fc10000830492506010015b6305f5e1008310610c2a576305f5e100830492506008015b6127108310610c3e57612710830492506004015b60648310610c50576064830492506002015b600a83106102c65760010192915050565b60006001600160a01b03831615801590610cbf5750826001600160a01b0316846001600160a01b03161480610c9b5750610c9b8484610566565b80610cbf57506000828152600460205260409020546001600160a01b038481169116145b949350505050565b6001600160a01b038216610cf157604051633250574960e11b8152600060048201526024016103bc565b6000610cff83836000610618565b90506001600160a01b03811615610441576040516339e3563760e11b8152600060048201526024016103bc565b6001600160e01b0319811681146105cf57600080fd5b600060208284031215610d5457600080fd5b813561055f81610d2c565b60005b83811015610d7a578181015183820152602001610d62565b50506000910152565b60008151808452610d9b816020860160208601610d5f565b601f01601f19169290920160200192915050565b60208152600061055f6020830184610d83565b600060208284031215610dd457600080fd5b5035919050565b80356001600160a01b0381168114610df257600080fd5b919050565b60008060408385031215610e0a57600080fd5b610e1383610ddb565b946020939093013593505050565b600080600060608486031215610e3657600080fd5b610e3f84610ddb565b9250610e4d60208501610ddb565b9150604084013590509250925092565b600060208284031215610e6f57600080fd5b61055f82610ddb565b60008060408385031215610e8b57600080fd5b610e9483610ddb565b915060208301358015158114610ea957600080fd5b809150509250929050565b634e487b7160e01b600052604160045260246000fd5b60008060008060808587031215610ee057600080fd5b610ee985610ddb565b9350610ef760208601610ddb565b925060408501359150606085013567ffffffffffffffff80821115610f1b57600080fd5b818701915087601f830112610f2f57600080fd5b813581811115610f4157610f41610eb4565b604051601f8201601f19908116603f01168101908382118183101715610f6957610f69610eb4565b816040528281528a6020848701011115610f8257600080fd5b82602086016020830137600060208483010152809550505050505092959194509250565b60008060408385031215610fb957600080fd5b610fc283610ddb565b9150610fd060208401610ddb565b90509250929050565b600181811c90821680610fed57607f821691505b60208210810361100d57634e487b7160e01b600052602260045260246000fd5b50919050565b60008351611025818460208801610d5f565b835190830190611039818360208801610d5f565b01949350505050565b6001600160a01b038581168252841660208201526040810183905260806060820181905260009061107590830184610d83565b9695505050505050565b60006020828403121561109157600080fd5b815161055f81610d2c56fea2646970667358221220ca5519169a819d92e4d63af63f67fd4ea157752f7601dea1164a51d5838abc0f64736f6c63430008140033",
  "linkReferences": {},
  "deployedLinkReferences": {}
}