{
  "_format": "hh-sol-artifact-1",
  "contractName": "MultiSigWallet",
  "sourceName": "contracts/MultiSigWallet.sol",
  "abi": [
    {
      "inputs": [
        {
          "internalType": "address[]",
          "name": "_signers",
          "type": "address[]"
        },
        {
          "internalType": "uint256",
          "name": "_requiredConfirmations",
          "type": "uint256"
        }
      ],
      "stateMutability": "nonpayable",
      "type": "constructor"
    },
    {
      "inputs": [
        {
          "internalType": "address",
          "name": "owner",
          "type": "address"
        }
      ],
      "name": "OwnableInvalidOwner",
      "type": "error"
    },
    {
      "inputs": [
        {
          "internalType": "address",
          "name": "account",
          "type": "address"
        }
      ],
      "name": "OwnableUnauthorizedAccount",
      "type": "error"
    },
    {
      "anonymous": false,
      "inputs": [
        {
          "indexed": true,
          "internalType": "address",
          "name": "sender",
          "type": "address"
        },
        {
          "indexed": false,
          "internalType": "uint256",
          "name": "amount",
          "type": "uint256"
        }
      ],
      "name": "Deposit",
      "type": "event"
    },
    {
      "anonymous": false,
      "inputs": [
        {
          "indexed": true,
          "internalType": "address",
          "name": "previousOwner",
          "type": "address"
        },
        {
          "indexed": true,
          "internalType": "address",
          "name": "newOwner",
          "type": "address"
        }
      ],
      "name": "OwnershipTransferred",
      "type": "event"
    },
    {
      "anonymous": false,
      "inputs": [
        {
          "indexed": true,
          "internalType": "uint256",
          "name": "transactionId",
          "type": "uint256"
        },
        {
          "indexed": true,
          "internalType": "address",
          "name": "signer",
          "type": "address"
        }
      ],
      "name": "TransactionConfirmed",
      "type": "event"
    },
    {
      "anonymous": false,
      "inputs": [
        {
          "indexed": true,
          "internalType": "uint256",
          "name": "transactionId",
          "type": "uint256"
        },
        {
          "indexed": true,
          "internalType": "address",
          "name": "to",
          "type": "address"
        },
        {
          "indexed": false,
          "internalType": "uint256",
          "name": "value",
          "type": "uint256"
        },
        {
          "indexed": false,
          "internalType": "bytes",
          "name": "data",
          "type": "bytes"
        }
      ],
      "name": "TransactionCreated",
      "type": "event"
    },
    {
      "anonymous": false,
      "inputs": [
        {
          "indexed": true,
          "internalType": "uint256",
          "name": "transactionId",
          "type": "uint256"
        }
      ],
      "name": "TransactionExecuted",
      "type": "event"
    },
    {
      "anonymous": false,
      "inputs": [
        {
          "indexed": true,
          "internalType": "uint256",
          "name": "transactionId",
          "type": "uint256"
        },
        {
          "indexed": true,
          "internalType": "address",
          "name": "signer",
          "type": "address"
        }
      ],
      "name": "TransactionRevoked",
      "type": "event"
    },
    {
      "inputs": [
        {
          "internalType": "address",
          "name": "newSigner",
          "type": "address"
        }
      ],
      "name": "addSigner",
      "outputs": [],
      "stateMutability": "nonpayable",
      "type": "function"
    },
    {
      "inputs": [
        {
          "internalType": "uint256",
          "name": "transactionId",
          "type": "uint256"
        }
      ],
      "name": "confirmTransaction",
      "outputs": [],
      "stateMutability": "nonpayable",
      "type": "function"
    },
    {
      "inputs": [
        {
          "internalType": "address",
          "name": "to",
          "type": "address"
        },
        {
          "internalType": "uint256",
          "name": "value",
          "type": "uint256"
        },
        {
          "internalType": "bytes",
          "name": "data",
          "type": "bytes"
        }
      ],
      "name": "createTransaction",
      "outputs": [],
      "stateMutability": "nonpayable",
      "type": "function"
    },
    {
      "inputs": [],
      "name": "deposit",
      "outputs": [],
      "stateMutability": "payable",
      "type": "function"
    },
    {
      "inputs": [],
      "name": "getSigners",
      "outputs": [
        {
          "internalType": "address[]",
          "name": "",
          "type": "address[]"
        }
      ],
      "stateMutability": "view",
      "type": "function"
    },
    {
      "inputs": [
        {
          "internalType": "uint256",
          "name": "transactionId",
          "type": "uint256"
        }
      ],
      "name": "getTransaction",
      "outputs": [
        {
          "components": [
            {
              "internalType": "address",
              "name": "to",
              "type": "address"
            },
            {
              "internalType": "uint256",
              "name": "value",
              "type": "uint256"
            },
            {
              "internalType": "bytes",
              "name": "data",
              "type": "bytes"
            },
            {
              "internalType": "bool",
              "name": "executed",
              "type": "bool"
            },
            {
              "internalType": "uint256",
              "name": "confirmations",
              "type": "uint256"
            }
          ],
          "internalType": "struct MultiSigWallet.Transaction",
          "name": "",
          "type": "tuple"
        }
      ],
      "stateMutability": "view",
      "type": "function"
    },
    {
      "inputs": [
        {
          "internalType": "uint256",
          "name": "",
          "type": "uint256"
        },
        {
          "internalType": "address",
          "name": "",
          "type": "address"
        }
      ],
      "name": "isConfirmed",
      "outputs": [
        {
          "internalType": "bool",
          "name": "",
          "type": "bool"
        }
      ],
      "stateMutability": "view",
      "type": "function"
    },
    {
      "inputs": [
        {
          "internalType": "address",
          "name": "",
          "type": "address"
        }
      ],
      "name": "isSigner",
      "outputs": [
        {
          "internalType": "bool",
          "name": "",
          "type": "bool"
        }
      ],
      "stateMutability": "view",
      "type": "function"
    },
    {
      "inputs": [],
      "name": "owner",
      "outputs": [
        {
          "internalType": "address",
          "name": "",
          "type": "address"
        }
      ],
      "stateMutability": "view",
      "type": "function"
    },
    {
      "inputs": [],
      "name": "renounceOwnership",
      "outputs": [],
      "stateMutability": "nonpayable",
      "type": "function"
    },
    {
      "inputs": [],
      "name": "requiredConfirmations",
      "outputs": [
        {
          "internalType": "uint256",
          "name": "",
          "type": "uint256"
        }
      ],
      "stateMutability": "view",
      "type": "function"
    },
    {
      "inputs": [
        {
          "internalType": "uint256",
          "name": "transactionId",
          "type": "uint256"
        }
      ],
      "name": "revokeConfirmation",
      "outputs": [],
      "stateMutability": "nonpayable",
      "type": "function"
    },
    {
      "inputs": [
        {
          "internalType": "uint256",
          "name": "",
          "type": "uint256"
        }
      ],
      "name": "signers",
      "outputs": [
        {
          "internalType": "address",
          "name": "",
          "type": "address"
        }
      ],
      "stateMutability": "view",
      "type": "function"
    },
    {
      "inputs": [],
      "name": "transactionCount",
      "outputs": [
        {
          "internalType": "uint256",
          "name": "",
          "type": "uint256"
        }
      ],
      "stateMutability": "view",
      "type": "function"
    },
    {
      "inputs": [
        {
          "internalType": "uint256",
          "name": "",
          "type": "uint256"
        }
      ],
      "name": "transactions",
      "outputs": [
        {
          "internalType": "address",
          "name": "to",
          "type": "address"
        },
        {
          "internalType": "uint256",
          "name": "value",
          "type": "uint256"
        },
        {
          "internalType": "bytes",
          "name": "data",
          "type": "bytes"
        },
        {
          "internalType": "bool",
          "name": "executed",
          "type": "bool"
        },
        {
          "internalType": "uint256",
          "name": "confirmations",
          "type": "uint256"
        }
      ],
      "stateMutability": "view",
      "type": "function"
    },
    {
      "inputs": [
        {
          "internalType": "address",
          "name": "newOwner",
          "type": "address"
        }
      ],
      "name": "transferOwnership",
      "outputs": [],
      "stateMutability": "nonpayable",
      "type": "function"
    }
  ],
  "bytecode": "0x60806040523480156200001157600080fd5b50604051620017af380380620017af833981016040819052620000349162000308565b33806200005c57604051631e4fbdf760e01b8152600060048201526024015b60405180910390fd5b620000678162000285565b506000825111620000ae5760405162461bcd60e51b815260206004820152601060248201526f14da59db995c9cc81c995c5d5a5c995960821b604482015260640162000053565b600081118015620000c0575081518111155b6200011f5760405162461bcd60e51b815260206004820152602860248201527f496e76616c6964206e756d626572206f6620726571756972656420636f6e6669604482015267726d6174696f6e7360c01b606482015260840162000053565b60005b82518110156200027a576000838281518110620001435762000143620003e2565b6020026020010151905060006001600160a01b0316816001600160a01b031603620001a25760405162461bcd60e51b815260206004820152600e60248201526d24b73b30b634b21039b4b3b732b960911b604482015260640162000053565b6001600160a01b03811660009081526004602052604090205460ff1615620002005760405162461bcd60e51b815260206004820152601060248201526f223ab83634b1b0ba329039b4b3b732b960811b604482015260640162000053565b6003805460018181019092557fc2575a0e9e593c00f959f8c92f12db2869c3395a3b0502d05e2516446f71f85b0180546001600160a01b039093166001600160a01b031990931683179055600091825260046020526040909120805460ff19169091179055806200027181620003f8565b91505062000122565b506005555062000420565b600080546001600160a01b038381166001600160a01b0319831681178455604051919092169283917f8be0079c531659141344cd1fd0a4f28419497f9722a3daafe3b4186f6b6457e09190a35050565b634e487b7160e01b600052604160045260246000fd5b80516001600160a01b03811681146200030357600080fd5b919050565b600080604083850312156200031c57600080fd5b82516001600160401b03808211156200033457600080fd5b818501915085601f8301126200034957600080fd5b8151602082821115620003605762000360620002d5565b8160051b604051601f19603f83011681018181108682111715620003885762000388620002d5565b604052928352818301935084810182019289841115620003a757600080fd5b948201945b83861015620003d057620003c086620002eb565b85529482019493820193620003ac565b97909101519698969750505050505050565b634e487b7160e01b600052603260045260246000fd5b6000600182016200041957634e487b7160e01b600052601160045260246000fd5b5060010190565b61137f80620004306000396000f3fe6080604052600436106100f35760003560e01c806394cf795e1161008a578063c01a8c8411610059578063c01a8c84146102df578063d0e30db0146102ff578063eb12d61e14610307578063f2fde38b1461032757600080fd5b806394cf795e146102565780639ace38c214610278578063a9496e75146102a9578063b77bf600146102c957600080fd5b80637df73e27116100c65780637df73e271461019957806380f59a65146101d957806382e717f7146102145780638da5cb5b1461023857600080fd5b80632079fb9a146100f857806320ea8d861461013557806333ea3dc814610157578063715018a614610184575b600080fd5b34801561010457600080fd5b50610118610113366004610e97565b610347565b6040516001600160a01b0390911681526020015b60405180910390f35b34801561014157600080fd5b50610155610150366004610e97565b610371565b005b34801561016357600080fd5b50610177610172366004610e97565b61049c565b60405161012c9190610ef6565b34801561019057600080fd5b506101556105c4565b3480156101a557600080fd5b506101c96101b4366004610f6c565b60046020526000908152604090205460ff1681565b604051901515815260200161012c565b3480156101e557600080fd5b506101c96101f4366004610f8e565b600260209081526000928352604080842090915290825290205460ff1681565b34801561022057600080fd5b5061022a60055481565b60405190815260200161012c565b34801561024457600080fd5b506000546001600160a01b0316610118565b34801561026257600080fd5b5061026b6105d8565b60405161012c9190610fba565b34801561028457600080fd5b50610298610293366004610e97565b61063a565b60405161012c959493929190611007565b3480156102b557600080fd5b506101556102c4366004611058565b610702565b3480156102d557600080fd5b5061022a60065481565b3480156102eb57600080fd5b506101556102fa366004610e97565b610919565b610155610acb565b34801561031357600080fd5b50610155610322366004610f6c565b610b02565b34801561033357600080fd5b50610155610342366004610f6c565b610c14565b6003818154811061035757600080fd5b6000918252602090912001546001600160a01b0316905081565b3360009081526004602052604090205460ff166103c45760405162461bcd60e51b815260206004820152600c60248201526b2737ba10309039b4b3b732b960a11b60448201526064015b60405180910390fd5b600081815260026020908152604080832033845290915290205460ff1661042d5760405162461bcd60e51b815260206004820152601960248201527f5472616e73616374696f6e206e6f7420636f6e6669726d65640000000000000060448201526064016103bb565b60008181526002602090815260408083203384528252808320805460ff191690558383526001909152812060040180549161046783611139565b9091555050604051339082907f4cd471041f6b9ff47536a54a3d3ab62d0fa9dd5e36c0418b294b1673acb3188190600090a350565b6104d96040518060a0016040528060006001600160a01b031681526020016000815260200160608152602001600015158152602001600081525090565b600082815260016020818152604092839020835160a08101855281546001600160a01b031681529281015491830191909152600281018054929391929184019161052290611150565b80601f016020809104026020016040519081016040528092919081815260200182805461054e90611150565b801561059b5780601f106105705761010080835404028352916020019161059b565b820191906000526020600020905b81548152906001019060200180831161057e57829003601f168201915b5050509183525050600382015460ff161515602082015260049091015460409091015292915050565b6105cc610c4f565b6105d66000610c7c565b565b6060600380548060200260200160405190810160405280929190818152602001828054801561063057602002820191906000526020600020905b81546001600160a01b03168152600190910190602001808311610612575b5050505050905090565b60016020819052600091825260409091208054918101546002820180546001600160a01b039094169391929161066f90611150565b80601f016020809104026020016040519081016040528092919081815260200182805461069b90611150565b80156106e85780601f106106bd576101008083540402835291602001916106e8565b820191906000526020600020905b8154815290600101906020018083116106cb57829003601f168201915b505050506003830154600490930154919260ff1691905085565b3360009081526004602052604090205460ff168061072a57506000546001600160a01b031633145b6107825760405162461bcd60e51b8152602060048201526024808201527f4e6f7420617574686f72697a656420746f20637265617465207472616e7361636044820152633a34b7b760e11b60648201526084016103bb565b60068054600091826107938361118a565b909155506040805160a0810182526001600160a01b03878116825260208083018881528385018881526000606086018190526080860181905287815260019384905295909520845181546001600160a01b03191694169390931783555190820155915192935091600282019061080990826111f2565b50606082015160038201805460ff19169115159190911790556080909101516004909101556040516001600160a01b0385169082907f453e07a951b5abb44cc647534a150065e3a308fec0dc01fda6ca43a4984f835b9061086d90879087906112b2565b60405180910390a33360009081526004602052604090205460ff161561091357600081815260026020908152604080832033808552908352818420805460ff19166001908117909155858552928390528184206004019290925551909183917f15c2f311c9e0f53b50388279894aeff029a3457884a6601e924fca879e12adcc9190a3600554600082815260016020526040902060040154106109135761091381610ccc565b50505050565b3360009081526004602052604090205460ff166109675760405162461bcd60e51b815260206004820152600c60248201526b2737ba10309039b4b3b732b960a11b60448201526064016103bb565b6000818152600160205260409020546001600160a01b03166109cb5760405162461bcd60e51b815260206004820152601a60248201527f5472616e73616374696f6e20646f6573206e6f7420657869737400000000000060448201526064016103bb565b600081815260026020908152604080832033845290915290205460ff1615610a355760405162461bcd60e51b815260206004820152601d60248201527f5472616e73616374696f6e20616c726561647920636f6e6669726d656400000060448201526064016103bb565b60008181526002602090815260408083203384528252808320805460ff191660019081179091558484529091528120600401805491610a738361118a565b9091555050604051339082907f15c2f311c9e0f53b50388279894aeff029a3457884a6601e924fca879e12adcc90600090a360055460008281526001602052604090206004015410610ac857610ac881610ccc565b50565b60405134815233907fe1fffcc4923d04b559f4d29a8bfc6cda04eb5b0d3c460751c2402c5c5cc9109c9060200160405180910390a2565b610b0a610c4f565b6001600160a01b038116610b515760405162461bcd60e51b815260206004820152600e60248201526d24b73b30b634b21039b4b3b732b960911b60448201526064016103bb565b6001600160a01b03811660009081526004602052604090205460ff1615610bad5760405162461bcd60e51b815260206004820152601060248201526f20b63932b0b23c90309039b4b3b732b960811b60448201526064016103bb565b6003805460018181019092557fc2575a0e9e593c00f959f8c92f12db2869c3395a3b0502d05e2516446f71f85b0180546001600160a01b039093166001600160a01b031990931683179055600091825260046020526040909120805460ff19169091179055565b610c1c610c4f565b6001600160a01b038116610c4657604051631e4fbdf760e01b8152600060048201526024016103bb565b610ac881610c7c565b6000546001600160a01b031633146105d65760405163118cdaa760e01b81523360048201526024016103bb565b600080546001600160a01b038381166001600160a01b0319831681178455604051919092169283917f8be0079c531659141344cd1fd0a4f28419497f9722a3daafe3b4186f6b6457e09190a35050565b6005546000828152600160205260409020600401541015610d2f5760405162461bcd60e51b815260206004820152601860248201527f4e6f7420656e6f75676820636f6e6669726d6174696f6e73000000000000000060448201526064016103bb565b60008181526001602052604090206003015460ff1615610d915760405162461bcd60e51b815260206004820152601c60248201527f5472616e73616374696f6e20616c72656164792065786563757465640000000060448201526064016103bb565b600081815260016020819052604080832060038101805460ff19168417905580549281015491519093926001600160a01b03169190610dd49060028601906112d3565b60006040518083038185875af1925050503d8060008114610e11576040519150601f19603f3d011682016040523d82523d6000602084013e610e16565b606091505b5050905080610e675760405162461bcd60e51b815260206004820152601c60248201527f5472616e73616374696f6e20657865637574696f6e206661696c65640000000060448201526064016103bb565b60405183907f15ed165a284872ea7017f03df402a0cadfbfab588320ffaf83f160c2f82781c790600090a2505050565b600060208284031215610ea957600080fd5b5035919050565b6000815180845260005b81811015610ed657602081850181015186830182015201610eba565b506000602082860101526020601f19601f83011685010191505092915050565b6020815260018060a01b038251166020820152602082015160408201526000604083015160a06060840152610f2e60c0840182610eb0565b9050606084015115156080840152608084015160a08401528091505092915050565b80356001600160a01b0381168114610f6757600080fd5b919050565b600060208284031215610f7e57600080fd5b610f8782610f50565b9392505050565b60008060408385031215610fa157600080fd5b82359150610fb160208401610f50565b90509250929050565b6020808252825182820181905260009190848201906040850190845b81811015610ffb5783516001600160a01b031683529284019291840191600101610fd6565b50909695505050505050565b60018060a01b038616815284602082015260a06040820152600061102e60a0830186610eb0565b931515606083015250608001529392505050565b634e487b7160e01b600052604160045260246000fd5b60008060006060848603121561106d57600080fd5b61107684610f50565b925060208401359150604084013567ffffffffffffffff8082111561109a57600080fd5b818601915086601f8301126110ae57600080fd5b8135818111156110c0576110c0611042565b604051601f8201601f19908116603f011681019083821181831017156110e8576110e8611042565b8160405282815289602084870101111561110157600080fd5b8260208601602083013760006020848301015280955050505050509250925092565b634e487b7160e01b600052601160045260246000fd5b60008161114857611148611123565b506000190190565b600181811c9082168061116457607f821691505b60208210810361118457634e487b7160e01b600052602260045260246000fd5b50919050565b60006001820161119c5761119c611123565b5060010190565b601f8211156111ed57600081815260208120601f850160051c810160208610156111ca5750805b601f850160051c820191505b818110156111e9578281556001016111d6565b5050505b505050565b815167ffffffffffffffff81111561120c5761120c611042565b6112208161121a8454611150565b846111a3565b602080601f831160018114611255576000841561123d5750858301515b600019600386901b1c1916600185901b1785556111e9565b600085815260208120601f198616915b8281101561128457888601518255948401946001909101908401611265565b50858210156112a25787850151600019600388901b60f8161c191681555b5050505050600190811b01905550565b8281526040602082015260006112cb6040830184610eb0565b949350505050565b60008083546112e181611150565b600182811680156112f9576001811461130e5761133d565b60ff198416875282151583028701945061133d565b8760005260208060002060005b858110156113345781548a82015290840190820161131b565b50505082870194505b5092969550505050505056fea2646970667358221220cc19d024dea476253aea80ac085ca0f66bd1a6ea077b8a782028221aeae2aaca64736f6c63430008140033",
  "linkReferences": {},
  "deployedLinkReferences": {}
}