{
  "_format": "hh-sol-artifact-1",
  "contractName": "MultiSigWallet",
  "sourceName": "contracts/MultiSigWallet.sol",
  "abi": [
    {
      "inputs": [
        {
          "internalType": "address[]",
          "name": "_signers",
          "type": "address[]"
        },
        {
          "internalType": "uint256",
          "name": "_requiredConfirmations",
          "type": "uint256"
        }
      ],
      "stateMutability": "nonpayable",
      "type": "constructor"
    },
    {
      "inputs": [
        {
          "internalType": "address",
          "name": "owner",
          "type": "address"
        }
      ],
      "name": "OwnableInvalidOwner",
      "type": "error"
    },
    {
      "inputs": [
        {
          "internalType": "address",
          "name": "account",
          "type": "address"
        }
      ],
      "name": "OwnableUnauthorizedAccount",
      "type": "error"
    },
    {
      "anonymous": false,
      "inputs": [
        {
          "indexed": true,
          "internalType": "address",
          "name": "sender",
          "type": "address"
        },
        {
          "indexed": false,
          "internalType": "uint256",
          "name": "amount",
          "type": "uint256"
        }
      ],
      "name": "Deposit",
      "type": "event"
    },
    {
      "anonymous": false,
      "inputs": [
        {
          "indexed": true,
          "internalType": "address",
          "name": "previousOwner",
          "type": "address"
        },
        {
          "indexed": true,
          "internalType": "address",
          "name": "newOwner",
          "type": "address"
        }
      ],
      "name": "OwnershipTransferred",
      "type": "event"
    },
    {
      "anonymous": false,
      "inputs": [
        {
          "indexed": true,
          "internalType": "uint256",
          "name": "transactionId",
          "type": "uint256"
        },
        {
          "indexed": true,
          "internalType": "address",
          "name": "signer",
          "type": "address"
        }
      ],
      "name": "TransactionConfirmed",
      "type": "event"
    },
    {
      "anonymous": false,
      "inputs": [
        {
          "indexed": true,
          "internalType": "uint256",
          "name": "transactionId",
          "type": "uint256"
        },
        {
          "indexed": true,
          "internalType": "address",
          "name": "to",
          "type": "address"
        },
        {
          "indexed": false,
          "internalType": "uint256",
          "name": "value",
          "type": "uint256"
        },
        {
          "indexed": false,
          "internalType": "bytes",
          "name": "data",
          "type": "bytes"
        }
      ],
      "name": "TransactionCreated",
      "type": "event"
    },
    {
      "anonymous": false,
      "inputs": [
        {
          "indexed": true,
          "internalType": "uint256",
          "name": "transactionId",
          "type": "uint256"
        }
      ],
      "name": "TransactionExecuted",
      "type": "event"
    },
    {
      "anonymous": false,
      "inputs": [
        {
          "indexed": true,
          "internalType": "uint256",
          "name": "transactionId",
          "type": "uint256"
        },
        {
          "indexed": true,
          "internalType": "address",
          "name": "signer",
          "type": "address"
        }
      ],
      "name": "TransactionRevoked",
      "type": "event"
    },
    {
      "inputs": [
        {
          "internalType": "uint256",
          "name": "transactionId",
          "type": "uint256"
        }
      ],
      "name": "confirmTransaction",
      "outputs": [],
      "stateMutability": "nonpayable",
      "type": "function"
    },
    {
      "inputs": [
        {
          "internalType": "address",
          "name": "to",
          "type": "address"
        },
        {
          "internalType": "uint256",
          "name": "value",
          "type": "uint256"
        },
        {
          "internalType": "bytes",
          "name": "data",
          "type": "bytes"
        }
      ],
      "name": "createTransaction",
      "outputs": [],
      "stateMutability": "nonpayable",
      "type": "function"
    },
    {
      "inputs": [],
      "name": "deposit",
      "outputs": [],
      "stateMutability": "payable",
      "type": "function"
    },
    {
      "inputs": [],
      "name": "getSigners",
      "outputs": [
        {
          "internalType": "address[]",
          "name": "",
          "type": "address[]"
        }
      ],
      "stateMutability": "view",
      "type": "function"
    },
    {
      "inputs": [
        {
          "internalType": "uint256",
          "name": "transactionId",
          "type": "uint256"
        }
      ],
      "name": "getTransaction",
      "outputs": [
        {
          "components": [
            {
              "internalType": "address",
              "name": "to",
              "type": "address"
            },
            {
              "internalType": "uint256",
              "name": "value",
              "type": "uint256"
            },
            {
              "internalType": "bytes",
              "name": "data",
              "type": "bytes"
            },
            {
              "internalType": "bool",
              "name": "executed",
              "type": "bool"
            },
            {
              "internalType": "uint256",
              "name": "confirmations",
              "type": "uint256"
            }
          ],
          "internalType": "struct MultiSigWallet.Transaction",
          "name": "",
          "type": "tuple"
        }
      ],
      "stateMutability": "view",
      "type": "function"
    },
    {
      "inputs": [
        {
          "internalType": "uint256",
          "name": "",
          "type": "uint256"
        },
        {
          "internalType": "address",
          "name": "",
          "type": "address"
        }
      ],
      "name": "isConfirmed",
      "outputs": [
        {
          "internalType": "bool",
          "name": "",
          "type": "bool"
        }
      ],
      "stateMutability": "view",
      "type": "function"
    },
    {
      "inputs": [
        {
          "internalType": "address",
          "name": "",
          "type": "address"
        }
      ],
      "name": "isSigner",
      "outputs": [
        {
          "internalType": "bool",
          "name": "",
          "type": "bool"
        }
      ],
      "stateMutability": "view",
      "type": "function"
    },
    {
      "inputs": [],
      "name": "owner",
      "outputs": [
        {
          "internalType": "address",
          "name": "",
          "type": "address"
        }
      ],
      "stateMutability": "view",
      "type": "function"
    },
    {
      "inputs": [],
      "name": "renounceOwnership",
      "outputs": [],
      "stateMutability": "nonpayable",
      "type": "function"
    },
    {
      "inputs": [],
      "name": "requiredConfirmations",
      "outputs": [
        {
          "internalType": "uint256",
          "name": "",
          "type": "uint256"
        }
      ],
      "stateMutability": "view",
      "type": "function"
    },
    {
      "inputs": [
        {
          "internalType": "uint256",
          "name": "transactionId",
          "type": "uint256"
        }
      ],
      "name": "revokeConfirmation",
      "outputs": [],
      "stateMutability": "nonpayable",
      "type": "function"
    },
    {
      "inputs": [
        {
          "internalType": "uint256",
          "name": "",
          "type": "uint256"
        }
      ],
      "name": "signers",
      "outputs": [
        {
          "internalType": "address",
          "name": "",
          "type": "address"
        }
      ],
      "stateMutability": "view",
      "type": "function"
    },
    {
      "inputs": [],
      "name": "transactionCount",
      "outputs": [
        {
          "internalType": "uint256",
          "name": "",
          "type": "uint256"
        }
      ],
      "stateMutability": "view",
      "type": "function"
    },
    {
      "inputs": [
        {
          "internalType": "uint256",
          "name": "",
          "type": "uint256"
        }
      ],
      "name": "transactions",
      "outputs": [
        {
          "internalType": "address",
          "name": "to",
          "type": "address"
        },
        {
          "internalType": "uint256",
          "name": "value",
          "type": "uint256"
        },
        {
          "internalType": "bytes",
          "name": "data",
          "type": "bytes"
        },
        {
          "internalType": "bool",
          "name": "executed",
          "type": "bool"
        },
        {
          "internalType": "uint256",
          "name": "confirmations",
          "type": "uint256"
        }
      ],
      "stateMutability": "view",
      "type": "function"
    },
    {
      "inputs": [
        {
          "internalType": "address",
          "name": "newOwner",
          "type": "address"
        }
      ],
      "name": "transferOwnership",
      "outputs": [],
      "stateMutability": "nonpayable",
      "type": "function"
    }
  ],
  "bytecode": "0x60806040523480156200001157600080fd5b50604051620015d4380380620015d4833981016040819052620000349162000308565b33806200005c57604051631e4fbdf760e01b8152600060048201526024015b60405180910390fd5b620000678162000285565b506000825111620000ae5760405162461bcd60e51b815260206004820152601060248201526f14da59db995c9cc81c995c5d5a5c995960821b604482015260640162000053565b600081118015620000c0575081518111155b6200011f5760405162461bcd60e51b815260206004820152602860248201527f496e76616c6964206e756d626572206f6620726571756972656420636f6e6669604482015267726d6174696f6e7360c01b606482015260840162000053565b60005b82518110156200027a576000838281518110620001435762000143620003e2565b6020026020010151905060006001600160a01b0316816001600160a01b031603620001a25760405162461bcd60e51b815260206004820152600e60248201526d24b73b30b634b21039b4b3b732b960911b604482015260640162000053565b6001600160a01b03811660009081526004602052604090205460ff1615620002005760405162461bcd60e51b815260206004820152601060248201526f223ab83634b1b0ba329039b4b3b732b960811b604482015260640162000053565b6003805460018181019092557fc2575a0e9e593c00f959f8c92f12db2869c3395a3b0502d05e2516446f71f85b0180546001600160a01b039093166001600160a01b031990931683179055600091825260046020526040909120805460ff19169091179055806200027181620003f8565b91505062000122565b506005555062000420565b600080546001600160a01b038381166001600160a01b0319831681178455604051919092169283917f8be0079c531659141344cd1fd0a4f28419497f9722a3daafe3b4186f6b6457e09190a35050565b634e487b7160e01b600052604160045260246000fd5b80516001600160a01b03811681146200030357600080fd5b919050565b600080604083850312156200031c57600080fd5b82516001600160401b03808211156200033457600080fd5b818501915085601f8301126200034957600080fd5b8151602082821115620003605762000360620002d5565b8160051b604051601f19603f83011681018181108682111715620003885762000388620002d5565b604052928352818301935084810182019289841115620003a757600080fd5b948201945b83861015620003d057620003c086620002eb565b85529482019493820193620003ac565b97909101519698969750505050505050565b634e487b7160e01b600052603260045260246000fd5b6000600182016200041957634e487b7160e01b600052601160045260246000fd5b5060010190565b6111a480620004306000396000f3fe6080604052600436106100e85760003560e01c80638da5cb5b1161008a578063b77bf60011610059578063b77bf600146102be578063c01a8c84146102d4578063d0e30db0146102f4578063f2fde38b146102fc57600080fd5b80638da5cb5b1461022d57806394cf795e1461024b5780639ace38c21461026d578063a9496e751461029e57600080fd5b8063715018a6116100c6578063715018a6146101795780637df73e271461018e57806380f59a65146101ce57806382e717f71461020957600080fd5b80632079fb9a146100ed57806320ea8d861461012a57806333ea3dc81461014c575b600080fd5b3480156100f957600080fd5b5061010d610108366004610cbc565b61031c565b6040516001600160a01b0390911681526020015b60405180910390f35b34801561013657600080fd5b5061014a610145366004610cbc565b610346565b005b34801561015857600080fd5b5061016c610167366004610cbc565b610471565b6040516101219190610d1b565b34801561018557600080fd5b5061014a610599565b34801561019a57600080fd5b506101be6101a9366004610d91565b60046020526000908152604090205460ff1681565b6040519015158152602001610121565b3480156101da57600080fd5b506101be6101e9366004610db3565b600260209081526000928352604080842090915290825290205460ff1681565b34801561021557600080fd5b5061021f60055481565b604051908152602001610121565b34801561023957600080fd5b506000546001600160a01b031661010d565b34801561025757600080fd5b506102606105ad565b6040516101219190610ddf565b34801561027957600080fd5b5061028d610288366004610cbc565b61060f565b604051610121959493929190610e2c565b3480156102aa57600080fd5b5061014a6102b9366004610e7d565b6106d7565b3480156102ca57600080fd5b5061021f60065481565b3480156102e057600080fd5b5061014a6102ef366004610cbc565b610850565b61014a610a02565b34801561030857600080fd5b5061014a610317366004610d91565b610a39565b6003818154811061032c57600080fd5b6000918252602090912001546001600160a01b0316905081565b3360009081526004602052604090205460ff166103995760405162461bcd60e51b815260206004820152600c60248201526b2737ba10309039b4b3b732b960a11b60448201526064015b60405180910390fd5b600081815260026020908152604080832033845290915290205460ff166104025760405162461bcd60e51b815260206004820152601960248201527f5472616e73616374696f6e206e6f7420636f6e6669726d6564000000000000006044820152606401610390565b60008181526002602090815260408083203384528252808320805460ff191690558383526001909152812060040180549161043c83610f5e565b9091555050604051339082907f4cd471041f6b9ff47536a54a3d3ab62d0fa9dd5e36c0418b294b1673acb3188190600090a350565b6104ae6040518060a0016040528060006001600160a01b031681526020016000815260200160608152602001600015158152602001600081525090565b600082815260016020818152604092839020835160a08101855281546001600160a01b03168152928101549183019190915260028101805492939192918401916104f790610f75565b80601f016020809104026020016040519081016040528092919081815260200182805461052390610f75565b80156105705780601f1061054557610100808354040283529160200191610570565b820191906000526020600020905b81548152906001019060200180831161055357829003601f168201915b5050509183525050600382015460ff161515602082015260049091015460409091015292915050565b6105a1610a74565b6105ab6000610aa1565b565b6060600380548060200260200160405190810160405280929190818152602001828054801561060557602002820191906000526020600020905b81546001600160a01b031681526001909101906020018083116105e7575b5050505050905090565b60016020819052600091825260409091208054918101546002820180546001600160a01b039094169391929161064490610f75565b80601f016020809104026020016040519081016040528092919081815260200182805461067090610f75565b80156106bd5780601f10610692576101008083540402835291602001916106bd565b820191906000526020600020905b8154815290600101906020018083116106a057829003601f168201915b505050506003830154600490930154919260ff1691905085565b3360009081526004602052604090205460ff16806106ff57506000546001600160a01b031633145b6107575760405162461bcd60e51b8152602060048201526024808201527f4e6f7420617574686f72697a656420746f20637265617465207472616e7361636044820152633a34b7b760e11b6064820152608401610390565b600680546000918261076883610faf565b909155506040805160a0810182526001600160a01b03878116825260208083018881528385018881526000606086018190526080860181905287815260019384905295909520845181546001600160a01b0319169416939093178355519082015591519293509160028201906107de9082611017565b50606082015160038201805460ff19169115159190911790556080909101516004909101556040516001600160a01b0385169082907f453e07a951b5abb44cc647534a150065e3a308fec0dc01fda6ca43a4984f835b9061084290879087906110d7565b60405180910390a350505050565b3360009081526004602052604090205460ff1661089e5760405162461bcd60e51b815260206004820152600c60248201526b2737ba10309039b4b3b732b960a11b6044820152606401610390565b6000818152600160205260409020546001600160a01b03166109025760405162461bcd60e51b815260206004820152601a60248201527f5472616e73616374696f6e20646f6573206e6f742065786973740000000000006044820152606401610390565b600081815260026020908152604080832033845290915290205460ff161561096c5760405162461bcd60e51b815260206004820152601d60248201527f5472616e73616374696f6e20616c726561647920636f6e6669726d65640000006044820152606401610390565b60008181526002602090815260408083203384528252808320805460ff1916600190811790915584845290915281206004018054916109aa83610faf565b9091555050604051339082907f15c2f311c9e0f53b50388279894aeff029a3457884a6601e924fca879e12adcc90600090a3600554600082815260016020526040902060040154106109ff576109ff81610af1565b50565b60405134815233907fe1fffcc4923d04b559f4d29a8bfc6cda04eb5b0d3c460751c2402c5c5cc9109c9060200160405180910390a2565b610a41610a74565b6001600160a01b038116610a6b57604051631e4fbdf760e01b815260006004820152602401610390565b6109ff81610aa1565b6000546001600160a01b031633146105ab5760405163118cdaa760e01b8152336004820152602401610390565b600080546001600160a01b038381166001600160a01b0319831681178455604051919092169283917f8be0079c531659141344cd1fd0a4f28419497f9722a3daafe3b4186f6b6457e09190a35050565b6005546000828152600160205260409020600401541015610b545760405162461bcd60e51b815260206004820152601860248201527f4e6f7420656e6f75676820636f6e6669726d6174696f6e7300000000000000006044820152606401610390565b60008181526001602052604090206003015460ff1615610bb65760405162461bcd60e51b815260206004820152601c60248201527f5472616e73616374696f6e20616c7265616479206578656375746564000000006044820152606401610390565b600081815260016020819052604080832060038101805460ff19168417905580549281015491519093926001600160a01b03169190610bf99060028601906110f8565b60006040518083038185875af1925050503d8060008114610c36576040519150601f19603f3d011682016040523d82523d6000602084013e610c3b565b606091505b5050905080610c8c5760405162461bcd60e51b815260206004820152601c60248201527f5472616e73616374696f6e20657865637574696f6e206661696c6564000000006044820152606401610390565b60405183907f15ed165a284872ea7017f03df402a0cadfbfab588320ffaf83f160c2f82781c790600090a2505050565b600060208284031215610cce57600080fd5b5035919050565b6000815180845260005b81811015610cfb57602081850181015186830182015201610cdf565b506000602082860101526020601f19601f83011685010191505092915050565b6020815260018060a01b038251166020820152602082015160408201526000604083015160a06060840152610d5360c0840182610cd5565b9050606084015115156080840152608084015160a08401528091505092915050565b80356001600160a01b0381168114610d8c57600080fd5b919050565b600060208284031215610da357600080fd5b610dac82610d75565b9392505050565b60008060408385031215610dc657600080fd5b82359150610dd660208401610d75565b90509250929050565b6020808252825182820181905260009190848201906040850190845b81811015610e205783516001600160a01b031683529284019291840191600101610dfb565b50909695505050505050565b60018060a01b038616815284602082015260a060408201526000610e5360a0830186610cd5565b931515606083015250608001529392505050565b634e487b7160e01b600052604160045260246000fd5b600080600060608486031215610e9257600080fd5b610e9b84610d75565b925060208401359150604084013567ffffffffffffffff80821115610ebf57600080fd5b818601915086601f830112610ed357600080fd5b813581811115610ee557610ee5610e67565b604051601f8201601f19908116603f01168101908382118183101715610f0d57610f0d610e67565b81604052828152896020848701011115610f2657600080fd5b8260208601602083013760006020848301015280955050505050509250925092565b634e487b7160e01b600052601160045260246000fd5b600081610f6d57610f6d610f48565b506000190190565b600181811c90821680610f8957607f821691505b602082108103610fa957634e487b7160e01b600052602260045260246000fd5b50919050565b600060018201610fc157610fc1610f48565b5060010190565b601f82111561101257600081815260208120601f850160051c81016020861015610fef5750805b601f850160051c820191505b8181101561100e57828155600101610ffb565b5050505b505050565b815167ffffffffffffffff81111561103157611031610e67565b6110458161103f8454610f75565b84610fc8565b602080601f83116001811461107a57600084156110625750858301515b600019600386901b1c1916600185901b17855561100e565b600085815260208120601f198616915b828110156110a95788860151825594840194600190910190840161108a565b50858210156110c75787850151600019600388901b60f8161c191681555b5050505050600190811b01905550565b8281526040602082015260006110f06040830184610cd5565b949350505050565b600080835461110681610f75565b6001828116801561111e576001811461113357611162565b60ff1984168752821515830287019450611162565b8760005260208060002060005b858110156111595781548a820152908401908201611140565b50505082870194505b5092969550505050505056fea26469706673582212204e3ed3be1f19c5a630c97813dc7784ad9b9cc70c47d09a6654fbcd37f2f2647a64736f6c63430008140033",
  "linkReferences": {},
  "deployedLinkReferences": {}
}